{"contracts/ExPopulusCards.sol":{"ExPopulusCards":{"abi":[{"inputs":[{"internalType":"string","name":"_name","type":"string"},{"internalType":"string","name":"_symbol","type":"string"}],"stateMutability":"nonpayable","type":"constructor"},{"inputs":[],"name":"CardIsInBattle","type":"error"},{"inputs":[{"internalType":"address","name":"sender","type":"address"},{"internalType":"uint256","name":"tokenId","type":"uint256"},{"internalType":"address","name":"owner","type":"address"}],"name":"ERC721IncorrectOwner","type":"error"},{"inputs":[{"internalType":"address","name":"operator","type":"address"},{"internalType":"uint256","name":"tokenId","type":"uint256"}],"name":"ERC721InsufficientApproval","type":"error"},{"inputs":[{"internalType":"address","name":"approver","type":"address"}],"name":"ERC721InvalidApprover","type":"error"},{"inputs":[{"internalType":"address","name":"operator","type":"address"}],"name":"ERC721InvalidOperator","type":"error"},{"inputs":[{"internalType":"address","name":"owner","type":"address"}],"name":"ERC721InvalidOwner","type":"error"},{"inputs":[{"internalType":"address","name":"receiver","type":"address"}],"name":"ERC721InvalidReceiver","type":"error"},{"inputs":[{"internalType":"address","name":"sender","type":"address"}],"name":"ERC721InvalidSender","type":"error"},{"inputs":[{"internalType":"uint256","name":"tokenId","type":"uint256"}],"name":"ERC721NonexistentToken","type":"error"},{"inputs":[],"name":"InvalidValue","type":"error"},{"inputs":[],"name":"OnlyGameLogic","type":"error"},{"inputs":[],"name":"OnlyWhitelistedAddress","type":"error"},{"anonymous":false,"inputs":[{"indexed":false,"internalType":"address","name":"_address","type":"address"}],"name":"AddressWhitelisted","type":"event"},{"anonymous":false,"inputs":[{"indexed":true,"internalType":"address","name":"owner","type":"address"},{"indexed":true,"internalType":"address","name":"approved","type":"address"},{"indexed":true,"internalType":"uint256","name":"tokenId","type":"uint256"}],"name":"Approval","type":"event"},{"anonymous":false,"inputs":[{"indexed":true,"internalType":"address","name":"owner","type":"address"},{"indexed":true,"internalType":"address","name":"operator","type":"address"},{"indexed":false,"internalType":"bool","name":"approved","type":"bool"}],"name":"ApprovalForAll","type":"event"},{"anonymous":false,"inputs":[{"indexed":false,"internalType":"uint256","name":"tokenID","type":"uint256"},{"indexed":false,"internalType":"bool","name":"status","type":"bool"}],"name":"CardIsInGame","type":"event"},{"anonymous":false,"inputs":[{"indexed":false,"internalType":"int8","name":"_health","type":"int8"},{"indexed":false,"internalType":"int8","name":"_attack","type":"int8"},{"indexed":false,"internalType":"uint256","name":"_ability","type":"uint256"},{"indexed":false,"internalType":"address","name":"to","type":"address"},{"indexed":false,"internalType":"uint256","name":"tokenID","type":"uint256"}],"name":"CardMinted","type":"event"},{"anonymous":false,"inputs":[{"indexed":true,"internalType":"address","name":"from","type":"address"},{"indexed":true,"internalType":"address","name":"to","type":"address"},{"indexed":true,"internalType":"uint256","name":"tokenId","type":"uint256"}],"name":"Transfer","type":"event"},{"inputs":[],"name":"abilityCount","outputs":[{"internalType":"uint256","name":"","type":"uint256"}],"stateMutability":"view","type":"function"},{"inputs":[{"internalType":"address","name":"_address","type":"address"},{"internalType":"bool","name":"status","type":"bool"}],"name":"addOrRemoveFromWhiteList","outputs":[],"stateMutability":"nonpayable","type":"function"},{"inputs":[{"internalType":"address","name":"to","type":"address"},{"internalType":"uint256","name":"tokenId","type":"uint256"}],"name":"approve","outputs":[],"stateMutability":"nonpayable","type":"function"},{"inputs":[{"internalType":"address","name":"owner","type":"address"}],"name":"balanceOf","outputs":[{"internalType":"uint256","name":"","type":"uint256"}],"stateMutability":"view","type":"function"},{"inputs":[],"name":"cardCount","outputs":[{"internalType":"uint256","name":"","type":"uint256"}],"stateMutability":"view","type":"function"},{"inputs":[{"internalType":"uint256","name":"tokenID","type":"uint256"},{"internalType":"bool","name":"status","type":"bool"}],"name":"cardInGamePlay","outputs":[],"stateMutability":"nonpayable","type":"function"},{"inputs":[{"internalType":"uint256","name":"tokenID","type":"uint256"},{"internalType":"enum ExPopulusCards.specialPower","name":"_power","type":"uint8"},{"internalType":"uint8","name":"_priority","type":"uint8"}],"name":"defineAbilities","outputs":[{"internalType":"uint256","name":"","type":"uint256"}],"stateMutability":"nonpayable","type":"function"},{"inputs":[],"name":"deployer","outputs":[{"internalType":"address","name":"","type":"address"}],"stateMutability":"view","type":"function"},{"inputs":[],"name":"gameLogicAddress","outputs":[{"internalType":"address","name":"","type":"address"}],"stateMutability":"view","type":"function"},{"inputs":[{"internalType":"uint256","name":"abilityID","type":"uint256"}],"name":"getAbility","outputs":[{"components":[{"internalType":"uint8","name":"priority","type":"uint8"},{"internalType":"enum ExPopulusCards.specialPower","name":"power","type":"uint8"},{"internalType":"bool","name":"abilityUsed","type":"bool"}],"internalType":"struct ExPopulusCards.Ability","name":"","type":"tuple"}],"stateMutability":"view","type":"function"},{"inputs":[{"internalType":"uint256","name":"tokenID","type":"uint256"}],"name":"getAbilityID","outputs":[{"internalType":"uint256","name":"","type":"uint256"}],"stateMutability":"view","type":"function"},{"inputs":[{"internalType":"uint256","name":"tokenId","type":"uint256"}],"name":"getApproved","outputs":[{"internalType":"address","name":"","type":"address"}],"stateMutability":"view","type":"function"},{"inputs":[{"internalType":"uint256","name":"tokenID","type":"uint256"}],"name":"getAttack","outputs":[{"internalType":"int256","name":"","type":"int256"}],"stateMutability":"view","type":"function"},{"inputs":[{"internalType":"uint256","name":"cardID","type":"uint256"}],"name":"getCharacterCard","outputs":[{"components":[{"internalType":"int8","name":"attack","type":"int8"},{"internalType":"int8","name":"health","type":"int8"},{"internalType":"uint256","name":"abilityID","type":"uint256"}],"internalType":"struct ExPopulusCards.CharacterCard","name":"","type":"tuple"}],"stateMutability":"view","type":"function"},{"inputs":[{"internalType":"uint256","name":"tokenID","type":"uint256"}],"name":"getHealth","outputs":[{"internalType":"int256","name":"","type":"int256"}],"stateMutability":"view","type":"function"},{"inputs":[{"internalType":"uint256","name":"abilityID","type":"uint256"}],"name":"getPriority","outputs":[{"internalType":"uint256","name":"","type":"uint256"}],"stateMutability":"view","type":"function"},{"inputs":[{"internalType":"address","name":"owner","type":"address"},{"internalType":"address","name":"operator","type":"address"}],"name":"isApprovedForAll","outputs":[{"internalType":"bool","name":"","type":"bool"}],"stateMutability":"view","type":"function"},{"inputs":[{"internalType":"uint256","name":"tokenID","type":"uint256"}],"name":"isInGame","outputs":[{"internalType":"bool","name":"","type":"bool"}],"stateMutability":"view","type":"function"},{"inputs":[{"internalType":"int8","name":"_health","type":"int8"},{"internalType":"int8","name":"_attack","type":"int8"},{"internalType":"address","name":"to","type":"address"},{"internalType":"uint256","name":"tokenID","type":"uint256"},{"internalType":"enum ExPopulusCards.specialPower","name":"_power","type":"uint8"},{"internalType":"uint8","name":"_priority","type":"uint8"}],"name":"mintCard","outputs":[{"internalType":"uint256","name":"","type":"uint256"}],"stateMutability":"nonpayable","type":"function"},{"inputs":[],"name":"name","outputs":[{"internalType":"string","name":"","type":"string"}],"stateMutability":"view","type":"function"},{"inputs":[{"internalType":"uint256","name":"tokenId","type":"uint256"}],"name":"ownerOf","outputs":[{"internalType":"address","name":"","type":"address"}],"stateMutability":"view","type":"function"},{"inputs":[{"internalType":"address","name":"from","type":"address"},{"internalType":"address","name":"to","type":"address"},{"internalType":"uint256","name":"tokenId","type":"uint256"}],"name":"safeTransferFrom","outputs":[],"stateMutability":"nonpayable","type":"function"},{"inputs":[{"internalType":"address","name":"from","type":"address"},{"internalType":"address","name":"to","type":"address"},{"internalType":"uint256","name":"tokenId","type":"uint256"},{"internalType":"bytes","name":"data","type":"bytes"}],"name":"safeTransferFrom","outputs":[],"stateMutability":"nonpayable","type":"function"},{"inputs":[{"internalType":"address","name":"operator","type":"address"},{"internalType":"bool","name":"approved","type":"bool"}],"name":"setApprovalForAll","outputs":[],"stateMutability":"nonpayable","type":"function"},{"inputs":[{"internalType":"address","name":"_gameLogicAddress","type":"address"}],"name":"setGameLogicAdress","outputs":[],"stateMutability":"nonpayable","type":"function"},{"inputs":[{"internalType":"bytes4","name":"interfaceId","type":"bytes4"}],"name":"supportsInterface","outputs":[{"internalType":"bool","name":"","type":"bool"}],"stateMutability":"view","type":"function"},{"inputs":[],"name":"symbol","outputs":[{"internalType":"string","name":"","type":"string"}],"stateMutability":"view","type":"function"},{"inputs":[{"internalType":"uint256","name":"tokenId","type":"uint256"}],"name":"tokenURI","outputs":[{"internalType":"string","name":"","type":"string"}],"stateMutability":"view","type":"function"},{"inputs":[{"internalType":"address","name":"from","type":"address"},{"internalType":"address","name":"to","type":"address"},{"internalType":"uint256","name":"tokenID","type":"uint256"}],"name":"transferFrom","outputs":[],"stateMutability":"nonpayable","type":"function"}],"evm":{"bytecode":{"linkReferences":{},"object":"6080604052346200032b576200194a803803806200001d8162000330565b9283398101906040818303126200032b5780516001600160401b03908181116200032b57836200004f91840162000356565b91602093848201518381116200032b576200006b920162000356565b825190828211620003155760008054926001958685811c951680156200030a575b88861014620002f6578190601f95868111620002a3575b5088908683116001146200023f57849262000233575b5050600019600383901b1c191690861b1781555b81519384116200021f5784548581811c9116801562000214575b878210146200020057838111620001b8575b50859284116001146200015357839495509262000147575b5050600019600383901b1c191690821b1790555b600680546001600160a01b031916331790556040516115819081620003c98239f35b01519050388062000111565b9190601f1984169585845280842093905b878210620001a05750508385961062000186575b505050811b01905562000125565b015160001960f88460031b161c1916905538808062000178565b80878596829496860151815501950193019062000164565b8582528682208480870160051c820192898810620001f6575b0160051c019086905b828110620001ea575050620000f9565b838155018690620001da565b92508192620001d1565b634e487b7160e01b82526022600452602482fd5b90607f1690620000e7565b634e487b7160e01b81526041600452602490fd5b015190503880620000b9565b8480528985208994509190601f198416865b8c8282106200028c575050841162000272575b505050811b018155620000cd565b015160001960f88460031b161c1916905538808062000264565b8385015186558c9790950194938401930162000251565b9091508380528884208680850160051c8201928b8610620002ec575b918a91869594930160051c01915b828110620002dd575050620000a3565b8681558594508a9101620002cd565b92508192620002bf565b634e487b7160e01b83526022600452602483fd5b94607f16946200008c565b634e487b7160e01b600052604160045260246000fd5b600080fd5b6040519190601f01601f191682016001600160401b038111838210176200031557604052565b919080601f840112156200032b5782516001600160401b03811162000315576020906200038c601f8201601f1916830162000330565b928184528282870101116200032b5760005b818110620003b457508260009394955001015290565b85810183015184820184015282016200039e56fe6080604081815260048036101561001557600080fd5b600092833560e01c90816301ffc9a714610dfb5750806306fdde0314610d30578063081812fc14610cf7578063095ea7b314610c045780631164b99214610b995780631b6cde1014610b7a57806323b872dd14610b6257806336f0808414610af45780633fc70f2c14610ac757806342842e0e14610a9e57806354996d18146109ed5780636352211e146109bd5780636a019b7f146109125780636eb3d828146106e557806370a0823114610677578063763d0f621461064d57806391f3f18c1461062557806395d89b411461050f578063a22cb46514610454578063b88d4fde146103cb578063c87b56dd14610378578063cc56f2d31461034e578063cff840f014610324578063d2b325f4146102f8578063d5523f7714610248578063d5f3948814610220578063e985e9c5146101d2578063f530bd94146101af5763f687b5041461016257600080fd5b346101ab5760603660031901126101ab576024359060038210156101a7576044359360ff851685036101a457509261019d91602094356111dc565b9051908152f35b80fd5b8380fd5b8280fd5b5050346101ce57816003193601126101ce576020906009549051908152f35b5080fd5b5050346101ce57806003193601126101ce5760ff816020936101f2610f0b565b6101fa610f26565b6001600160a01b0391821683526005875283832091168252855220549151911615158152f35b5050346101ce57816003193601126101ce576020906001600160a01b03600654169051908152f35b509190346101ce5760203660031901126101ce5761026461152c565b5082358252600b6020528082209181519261027e84610f80565b549060ff8216845260ff8260081c16602085019060038110156102e557815260ff8486019360101c161515835260ff84519551168552519060038210156102d2575060609450602084015251151590820152f35b80602187634e487b7160e01b6024945252fd5b602483602189634e487b7160e01b835252fd5b50346101ab5760203660031901126101ab578160209360ff92358152600d855220541690519015158152f35b50346101ab5760203660031901126101ab5791602092358152600a835281812054900b9051908152f35b50346101ab5760203660031901126101ab5781602093600192358152600a85522001549051908152f35b509190346101ce5760203660031901126101ce576103996103c793356111a1565b508181516103a681610fb2565b528051916103b383610fb2565b825251918291602083526020830190610ecb565b0390f35b5090346101ab5760803660031901126101ab576103e6610f0b565b6103ee610f26565b846064359467ffffffffffffffff86116101ce57366023870112156101ce578501359461042661041d87610ff0565b95519586610fce565b85855236602487830101116101ce57856104519660246020930183880137850101526044359161100c565b80f35b5090346101ab57806003193601126101ab5761046e610f0b565b906001600160a01b0361047f610f71565b92169283156104e1575033845260056020528084208385526020526104b2828286209060ff801983541691151516179055565b5190151581527f17307eab39ab6107e8899845ad3d59bd9653f200f220920489ca2b5937696c3160203392a380f35b8360249251917f5b08ba18000000000000000000000000000000000000000000000000000000008352820152fd5b5091346101a457806003193601126101a4578151918160019283549384811c9181861695861561061b575b6020968785108114610608578899509688969785829a5291826000146105e1575050600114610586575b5050506103c79291610577910385610fce565b51928284938452830190610ecb565b91908693508083527fb10e2d527612073b26eecdfd717e6a320cf44b4afac2b0732d9fcbe2b7fa0cf65b8284106105c957505050820101816105776103c7610564565b8054848a0186015288955087949093019281016105b0565b60ff19168782015293151560051b8601909301935084925061057791506103c79050610564565b60248360228c634e487b7160e01b835252fd5b92607f169261053a565b5050346101ce57816003193601126101ce576020906001600160a01b03600754169051908152f35b50346101ab5760203660031901126101ab578160209360ff92358152600b85522054169051908152f35b5091346101a45760203660031901126101a4576001600160a01b0361069a610f0b565b169283156106b75750806020938392526003845220549051908152f35b9060249251917f89c62b64000000000000000000000000000000000000000000000000000000008352820152fd5b50346101ab5760c03660031901126101ab57803580840b9182820361090e576024359485810b8087036101ce57604435926001600160a01b03928385168095036101a457606435956084359060038210156101ab5760a4359a60ff8c168c036101a75786600654163314806108f9575b6108ea5791600a9b916107a1938a6008558a865260209d8e528c86209060ff198254169060ff1617905560085485528b85209081549060081b61ff00169061ff001916179055886111dc565b936008548252600a8a528460018a8420015585156108d45786825260028a5288822054168686821515928361089c575b81855260038d528b85206001815401905582855260028d528b8520826001600160a01b03198254161790557fddf252ad1be2c89b69c2b068fc378daa952ba7f163c4a11628f55a4df523b3ef8580a461086d57505085519485528685015283850152606083015260808201527f109229ac81b300348d84064e43ade3c2b4bcc03ffada9917da223d4da8082fef9060a090a16008549051908152f35b602492508751917f73c6ac6e000000000000000000000000000000000000000000000000000000008352820152fd5b6108bd83600052600460205260406000206001600160a01b03198154169055565b80855260038d528b852080546000190190556107d1565b602483838b5191633250574960e11b8352820152fd5b848b5163d79d3adb60e01b8152fd5b50338452600c60205260ff8b85205416610755565b8480fd5b509190346101ce57806003193601126101ce57823561092f610f71565b6001600160a01b0360075416331461099557839450817fc4b31ae5059620910ac0a7a772a9fc25a174520541a9eb16b8d34a92859d25e19452600d602052610985818487209060ff801983541691151516179055565b825191825215156020820152a180f35b8483517f35c2674b000000000000000000000000000000000000000000000000000000008152fd5b5091346101a45760203660031901126101a457506001600160a01b036109e5602093356111a1565b915191168152f35b5090346101ab57806003193601126101ab57610a07610f0b565b91610a10610f71565b926001600160a01b03918260065416331480610a89575b610a7b575091610a737f4f783c179409b4127238bc9c990bc99b9a651666a0d20b51d6c42849eb88466d94926020941692838752600c85528287209060ff801983541691151516179055565b51908152a180f35b835163d79d3adb60e01b8152fd5b50338652600c60205260ff8487205416610a27565b5050346101ce5761045190610ab236610f3c565b91925192610abf84610fb2565b85845261100c565b50346101ab5760203660031901126101ab5791602092358152600a83528181205460081c900b9051908152f35b50346101ab5760203660031901126101ab57610b0e610f0b565b906001600160a01b03928360065416331480610b4d575b610b40575050166001600160a01b0319600754161760075580f35b5163d79d3adb60e01b8152fd5b50338552600c60205260ff8186205416610b25565b83346101a457610451610b7436610f3c565b9161131c565b5050346101ce57816003193601126101ce576020906008549051908152f35b509190346101ce5760203660031901126101ce57606092610bb861152c565b50358252600a60205280822091815190610bd182610f80565b835483600182840b96878652602086019360081c850b845201549301928352835194855251900b60208401525190820152f35b5090346101ab57806003193601126101ab57610c1e610f0b565b91602435610c2b816111a1565b33151580610ce4575b80610cbc575b610c8d5781906001600160a01b03809616958691167f8c5be1e5ebec7d5bd14f71427d1e84f3dd0314c0f7b2291e5b200ac8c7c3b9258880a484526020528220906001600160a01b031982541617905580f35b83517fa9fbf51f0000000000000000000000000000000000000000000000000000000081523381850152602490fd5b506001600160a01b0381168652600560205283862033875260205260ff848720541615610c3a565b50336001600160a01b0382161415610c34565b50346101ab5760203660031901126101ab5781602093826001600160a01b039335610d21816111a1565b50825285522054169051908152f35b5091346101a457806003193601126101a45781519181825492600184811c91818616958615610df1575b6020968785108114610608578899509688969785829a5291826000146105e1575050600114610d96575050506103c79291610577910385610fce565b91908693508280527f290decd9548b62a8d60345a988386fc84ba6bc95484008f6362f93160ef3e5635b828410610dd957505050820101816105776103c7610564565b8054848a018601528895508794909301928101610dc0565b92607f1692610d5a565b925050346101ab5760203660031901126101ab57357fffffffff0000000000000000000000000000000000000000000000000000000081168091036101ab57602092507f80ac58cd000000000000000000000000000000000000000000000000000000008114908115610ea1575b8115610e77575b5015158152f35b7f01ffc9a70000000000000000000000000000000000000000000000000000000091501438610e70565b7f5b5e139f0000000000000000000000000000000000000000000000000000000081149150610e69565b919082519283825260005b848110610ef7575050826000602080949584010152601f8019910116010190565b602081830181015184830182015201610ed6565b600435906001600160a01b0382168203610f2157565b600080fd5b602435906001600160a01b0382168203610f2157565b6060906003190112610f21576001600160a01b03906004358281168103610f2157916024359081168103610f21579060443590565b602435908115158203610f2157565b6060810190811067ffffffffffffffff821117610f9c57604052565b634e487b7160e01b600052604160045260246000fd5b6020810190811067ffffffffffffffff821117610f9c57604052565b90601f8019910116810190811067ffffffffffffffff821117610f9c57604052565b67ffffffffffffffff8111610f9c57601f01601f191660200190565b61101783838361131c565b813b611024575b50505050565b6001600160a01b03949192939480931693604051937f150b7a020000000000000000000000000000000000000000000000000000000092838652336004870152166024850152604484015260806064840152826110876020966084830190610ecb565b039285816000958187895af1849181611149575b506110fa575050503d6000146110f2573d6110b581610ff0565b906110c36040519283610fce565b81528091843d92013e5b805192836110ed5760248360405190633250574960e11b82526004820152fd5b019050fd5b5060606110cd565b9092507fffffffff00000000000000000000000000000000000000000000000000000000919450160361113157503880808061101e565b60249060405190633250574960e11b82526004820152fd5b9091508681813d831161119a575b6111618183610fce565b8101031261090e57517fffffffff000000000000000000000000000000000000000000000000000000008116810361090e57903861109b565b503d611157565b8060005260026020526001600160a01b03604060002054169081156111c4575090565b60249060405190637e27328960e01b82526004820152fd5b916001600160a01b0360065416331480611304575b6112f35760099160018354019081845560038110156112dd5760019181156112aa575b501480611272575b611239575b505490600052600a6020528060016040600020015590565b8154600052600b602052604060002061020061ff0019825416179055815460005260ff6040600020911660ff1982541617905538611221565b8254600052600b602052604060002061010061ff00198254161790558254600052604060002060ff831660ff1982541617905561121c565b600052600b602052604060002061ff001981541690558354600052604060002060ff841660ff1982541617905538611214565b634e487b7160e01b600052602160045260246000fd5b600460405163d79d3adb60e01b8152fd5b5033600052600c60205260ff604060002054166111f1565b91600091818352602093600d855260409460ff8686205416611503576001600160a01b038093169081156114ec57908491828752600281528488882054169687913315158061143d575b509060027fddf252ad1be2c89b69c2b068fc378daa952ba7f163c4a11628f55a4df523b3ef9284611405575b858352600381528b83206001815401905586835252898120846001600160a01b031982541617905580a416928383036113cb5750505050565b6064945051927f64283d7b000000000000000000000000000000000000000000000000000000008452600484015260248301526044820152fd5b61142687600052600460205260406000206001600160a01b03198154169055565b848352600381528b83208054600019019055611392565b919394509150806114ab575b1561145957859291879138611366565b878688611476576024915190637e27328960e01b82526004820152fd5b60449151907f177e802f0000000000000000000000000000000000000000000000000000000082523360048301526024820152fd5b5033871480156114d0575b806114495750858252600481523385898420541614611449565b5086825260058152878220338352815260ff88832054166114b6565b602486885190633250574960e11b82526004820152fd5b600486517f9e51d34b000000000000000000000000000000000000000000000000000000008152fd5b6040519061153982610f80565b6000604083828152826020820152015256fea2646970667358221220d9cbfd232987c210f7d839050fa85226e70ea47062d7b498f29068b63295a7e864736f6c63430008140033","opcodes":"PUSH1 0x80 PUSH1 0x40 MSTORE CALLVALUE PUSH3 0x32B JUMPI PUSH3 0x194A DUP1 CODESIZE SUB DUP1 PUSH3 0x1D DUP2 PUSH3 0x330 JUMP JUMPDEST SWAP3 DUP4 CODECOPY DUP2 ADD SWAP1 PUSH1 0x40 DUP2 DUP4 SUB SLT PUSH3 0x32B JUMPI DUP1 MLOAD PUSH1 0x1 PUSH1 0x1 PUSH1 0x40 SHL SUB SWAP1 DUP2 DUP2 GT PUSH3 0x32B JUMPI DUP4 PUSH3 0x4F SWAP2 DUP5 ADD PUSH3 0x356 JUMP JUMPDEST SWAP2 PUSH1 0x20 SWAP4 DUP5 DUP3 ADD MLOAD DUP4 DUP2 GT PUSH3 0x32B JUMPI PUSH3 0x6B SWAP3 ADD PUSH3 0x356 JUMP JUMPDEST DUP3 MLOAD SWAP1 DUP3 DUP3 GT PUSH3 0x315 JUMPI PUSH1 0x0 DUP1 SLOAD SWAP3 PUSH1 0x1 SWAP6 DUP7 DUP6 DUP2 SHR SWAP6 AND DUP1 ISZERO PUSH3 0x30A JUMPI JUMPDEST DUP9 DUP7 LT EQ PUSH3 0x2F6 JUMPI DUP2 SWAP1 PUSH1 0x1F SWAP6 DUP7 DUP2 GT PUSH3 0x2A3 JUMPI JUMPDEST POP DUP9 SWAP1 DUP7 DUP4 GT PUSH1 0x1 EQ PUSH3 0x23F JUMPI DUP5 SWAP3 PUSH3 0x233 JUMPI JUMPDEST POP POP PUSH1 0x0 NOT PUSH1 0x3 DUP4 SWAP1 SHL SHR NOT AND SWAP1 DUP7 SHL OR DUP2 SSTORE JUMPDEST DUP2 MLOAD SWAP4 DUP5 GT PUSH3 0x21F JUMPI DUP5 SLOAD DUP6 DUP2 DUP2 SHR SWAP2 AND DUP1 ISZERO PUSH3 0x214 JUMPI JUMPDEST DUP8 DUP3 LT EQ PUSH3 0x200 JUMPI DUP4 DUP2 GT PUSH3 0x1B8 JUMPI JUMPDEST POP DUP6 SWAP3 DUP5 GT PUSH1 0x1 EQ PUSH3 0x153 JUMPI DUP4 SWAP5 SWAP6 POP SWAP3 PUSH3 0x147 JUMPI JUMPDEST POP POP PUSH1 0x0 NOT PUSH1 0x3 DUP4 SWAP1 SHL SHR NOT AND SWAP1 DUP3 SHL OR SWAP1 SSTORE JUMPDEST PUSH1 0x6 DUP1 SLOAD PUSH1 0x1 PUSH1 0x1 PUSH1 0xA0 SHL SUB NOT AND CALLER OR SWAP1 SSTORE PUSH1 0x40 MLOAD PUSH2 0x1581 SWAP1 DUP2 PUSH3 0x3C9 DUP3 CODECOPY RETURN JUMPDEST ADD MLOAD SWAP1 POP CODESIZE DUP1 PUSH3 0x111 JUMP JUMPDEST SWAP2 SWAP1 PUSH1 0x1F NOT DUP5 AND SWAP6 DUP6 DUP5 MSTORE DUP1 DUP5 KECCAK256 SWAP4 SWAP1 JUMPDEST DUP8 DUP3 LT PUSH3 0x1A0 JUMPI POP POP DUP4 DUP6 SWAP7 LT PUSH3 0x186 JUMPI JUMPDEST POP POP POP DUP2 SHL ADD SWAP1 SSTORE PUSH3 0x125 JUMP JUMPDEST ADD MLOAD PUSH1 0x0 NOT PUSH1 0xF8 DUP5 PUSH1 0x3 SHL AND SHR NOT AND SWAP1 SSTORE CODESIZE DUP1 DUP1 PUSH3 0x178 JUMP JUMPDEST DUP1 DUP8 DUP6 SWAP7 DUP3 SWAP5 SWAP7 DUP7 ADD MLOAD DUP2 SSTORE ADD SWAP6 ADD SWAP4 ADD SWAP1 PUSH3 0x164 JUMP JUMPDEST DUP6 DUP3 MSTORE DUP7 DUP3 KECCAK256 DUP5 DUP1 DUP8 ADD PUSH1 0x5 SHR DUP3 ADD SWAP3 DUP10 DUP9 LT PUSH3 0x1F6 JUMPI JUMPDEST ADD PUSH1 0x5 SHR ADD SWAP1 DUP7 SWAP1 JUMPDEST DUP3 DUP2 LT PUSH3 0x1EA JUMPI POP POP PUSH3 0xF9 JUMP JUMPDEST DUP4 DUP2 SSTORE ADD DUP7 SWAP1 PUSH3 0x1DA JUMP JUMPDEST SWAP3 POP DUP2 SWAP3 PUSH3 0x1D1 JUMP JUMPDEST PUSH4 0x4E487B71 PUSH1 0xE0 SHL DUP3 MSTORE PUSH1 0x22 PUSH1 0x4 MSTORE PUSH1 0x24 DUP3 REVERT JUMPDEST SWAP1 PUSH1 0x7F AND SWAP1 PUSH3 0xE7 JUMP JUMPDEST PUSH4 0x4E487B71 PUSH1 0xE0 SHL DUP2 MSTORE PUSH1 0x41 PUSH1 0x4 MSTORE PUSH1 0x24 SWAP1 REVERT JUMPDEST ADD MLOAD SWAP1 POP CODESIZE DUP1 PUSH3 0xB9 JUMP JUMPDEST DUP5 DUP1 MSTORE DUP10 DUP6 KECCAK256 DUP10 SWAP5 POP SWAP2 SWAP1 PUSH1 0x1F NOT DUP5 AND DUP7 JUMPDEST DUP13 DUP3 DUP3 LT PUSH3 0x28C JUMPI POP POP DUP5 GT PUSH3 0x272 JUMPI JUMPDEST POP POP POP DUP2 SHL ADD DUP2 SSTORE PUSH3 0xCD JUMP JUMPDEST ADD MLOAD PUSH1 0x0 NOT PUSH1 0xF8 DUP5 PUSH1 0x3 SHL AND SHR NOT AND SWAP1 SSTORE CODESIZE DUP1 DUP1 PUSH3 0x264 JUMP JUMPDEST DUP4 DUP6 ADD MLOAD DUP7 SSTORE DUP13 SWAP8 SWAP1 SWAP6 ADD SWAP5 SWAP4 DUP5 ADD SWAP4 ADD PUSH3 0x251 JUMP JUMPDEST SWAP1 SWAP2 POP DUP4 DUP1 MSTORE DUP9 DUP5 KECCAK256 DUP7 DUP1 DUP6 ADD PUSH1 0x5 SHR DUP3 ADD SWAP3 DUP12 DUP7 LT PUSH3 0x2EC JUMPI JUMPDEST SWAP2 DUP11 SWAP2 DUP7 SWAP6 SWAP5 SWAP4 ADD PUSH1 0x5 SHR ADD SWAP2 JUMPDEST DUP3 DUP2 LT PUSH3 0x2DD JUMPI POP POP PUSH3 0xA3 JUMP JUMPDEST DUP7 DUP2 SSTORE DUP6 SWAP5 POP DUP11 SWAP2 ADD PUSH3 0x2CD JUMP JUMPDEST SWAP3 POP DUP2 SWAP3 PUSH3 0x2BF JUMP JUMPDEST PUSH4 0x4E487B71 PUSH1 0xE0 SHL DUP4 MSTORE PUSH1 0x22 PUSH1 0x4 MSTORE PUSH1 0x24 DUP4 REVERT JUMPDEST SWAP5 PUSH1 0x7F AND SWAP5 PUSH3 0x8C JUMP JUMPDEST PUSH4 0x4E487B71 PUSH1 0xE0 SHL PUSH1 0x0 MSTORE PUSH1 0x41 PUSH1 0x4 MSTORE PUSH1 0x24 PUSH1 0x0 REVERT JUMPDEST PUSH1 0x0 DUP1 REVERT JUMPDEST PUSH1 0x40 MLOAD SWAP2 SWAP1 PUSH1 0x1F ADD PUSH1 0x1F NOT AND DUP3 ADD PUSH1 0x1 PUSH1 0x1 PUSH1 0x40 SHL SUB DUP2 GT DUP4 DUP3 LT OR PUSH3 0x315 JUMPI PUSH1 0x40 MSTORE JUMP JUMPDEST SWAP2 SWAP1 DUP1 PUSH1 0x1F DUP5 ADD SLT ISZERO PUSH3 0x32B JUMPI DUP3 MLOAD PUSH1 0x1 PUSH1 0x1 PUSH1 0x40 SHL SUB DUP2 GT PUSH3 0x315 JUMPI PUSH1 0x20 SWAP1 PUSH3 0x38C PUSH1 0x1F DUP3 ADD PUSH1 0x1F NOT AND DUP4 ADD PUSH3 0x330 JUMP JUMPDEST SWAP3 DUP2 DUP5 MSTORE DUP3 DUP3 DUP8 ADD ADD GT PUSH3 0x32B JUMPI PUSH1 0x0 JUMPDEST DUP2 DUP2 LT PUSH3 0x3B4 JUMPI POP DUP3 PUSH1 0x0 SWAP4 SWAP5 SWAP6 POP ADD ADD MSTORE SWAP1 JUMP JUMPDEST DUP6 DUP2 ADD DUP4 ADD MLOAD DUP5 DUP3 ADD DUP5 ADD MSTORE DUP3 ADD PUSH3 0x39E JUMP INVALID PUSH1 0x80 PUSH1 0x40 DUP2 DUP2 MSTORE PUSH1 0x4 DUP1 CALLDATASIZE LT ISZERO PUSH2 0x15 JUMPI PUSH1 0x0 DUP1 REVERT JUMPDEST PUSH1 0x0 SWAP3 DUP4 CALLDATALOAD PUSH1 0xE0 SHR SWAP1 DUP2 PUSH4 0x1FFC9A7 EQ PUSH2 0xDFB JUMPI POP DUP1 PUSH4 0x6FDDE03 EQ PUSH2 0xD30 JUMPI DUP1 PUSH4 0x81812FC EQ PUSH2 0xCF7 JUMPI DUP1 PUSH4 0x95EA7B3 EQ PUSH2 0xC04 JUMPI DUP1 PUSH4 0x1164B992 EQ PUSH2 0xB99 JUMPI DUP1 PUSH4 0x1B6CDE10 EQ PUSH2 0xB7A JUMPI DUP1 PUSH4 0x23B872DD EQ PUSH2 0xB62 JUMPI DUP1 PUSH4 0x36F08084 EQ PUSH2 0xAF4 JUMPI DUP1 PUSH4 0x3FC70F2C EQ PUSH2 0xAC7 JUMPI DUP1 PUSH4 0x42842E0E EQ PUSH2 0xA9E JUMPI DUP1 PUSH4 0x54996D18 EQ PUSH2 0x9ED JUMPI DUP1 PUSH4 0x6352211E EQ PUSH2 0x9BD JUMPI DUP1 PUSH4 0x6A019B7F EQ PUSH2 0x912 JUMPI DUP1 PUSH4 0x6EB3D828 EQ PUSH2 0x6E5 JUMPI DUP1 PUSH4 0x70A08231 EQ PUSH2 0x677 JUMPI DUP1 PUSH4 0x763D0F62 EQ PUSH2 0x64D JUMPI DUP1 PUSH4 0x91F3F18C EQ PUSH2 0x625 JUMPI DUP1 PUSH4 0x95D89B41 EQ PUSH2 0x50F JUMPI DUP1 PUSH4 0xA22CB465 EQ PUSH2 0x454 JUMPI DUP1 PUSH4 0xB88D4FDE EQ PUSH2 0x3CB JUMPI DUP1 PUSH4 0xC87B56DD EQ PUSH2 0x378 JUMPI DUP1 PUSH4 0xCC56F2D3 EQ PUSH2 0x34E JUMPI DUP1 PUSH4 0xCFF840F0 EQ PUSH2 0x324 JUMPI DUP1 PUSH4 0xD2B325F4 EQ PUSH2 0x2F8 JUMPI DUP1 PUSH4 0xD5523F77 EQ PUSH2 0x248 JUMPI DUP1 PUSH4 0xD5F39488 EQ PUSH2 0x220 JUMPI DUP1 PUSH4 0xE985E9C5 EQ PUSH2 0x1D2 JUMPI DUP1 PUSH4 0xF530BD94 EQ PUSH2 0x1AF JUMPI PUSH4 0xF687B504 EQ PUSH2 0x162 JUMPI PUSH1 0x0 DUP1 REVERT JUMPDEST CALLVALUE PUSH2 0x1AB JUMPI PUSH1 0x60 CALLDATASIZE PUSH1 0x3 NOT ADD SLT PUSH2 0x1AB JUMPI PUSH1 0x24 CALLDATALOAD SWAP1 PUSH1 0x3 DUP3 LT ISZERO PUSH2 0x1A7 JUMPI PUSH1 0x44 CALLDATALOAD SWAP4 PUSH1 0xFF DUP6 AND DUP6 SUB PUSH2 0x1A4 JUMPI POP SWAP3 PUSH2 0x19D SWAP2 PUSH1 0x20 SWAP5 CALLDATALOAD PUSH2 0x11DC JUMP JUMPDEST SWAP1 MLOAD SWAP1 DUP2 MSTORE RETURN JUMPDEST DUP1 REVERT JUMPDEST DUP4 DUP1 REVERT JUMPDEST DUP3 DUP1 REVERT JUMPDEST POP POP CALLVALUE PUSH2 0x1CE JUMPI DUP2 PUSH1 0x3 NOT CALLDATASIZE ADD SLT PUSH2 0x1CE JUMPI PUSH1 0x20 SWAP1 PUSH1 0x9 SLOAD SWAP1 MLOAD SWAP1 DUP2 MSTORE RETURN JUMPDEST POP DUP1 REVERT JUMPDEST POP POP CALLVALUE PUSH2 0x1CE JUMPI DUP1 PUSH1 0x3 NOT CALLDATASIZE ADD SLT PUSH2 0x1CE JUMPI PUSH1 0xFF DUP2 PUSH1 0x20 SWAP4 PUSH2 0x1F2 PUSH2 0xF0B JUMP JUMPDEST PUSH2 0x1FA PUSH2 0xF26 JUMP JUMPDEST PUSH1 0x1 PUSH1 0x1 PUSH1 0xA0 SHL SUB SWAP2 DUP3 AND DUP4 MSTORE PUSH1 0x5 DUP8 MSTORE DUP4 DUP4 KECCAK256 SWAP2 AND DUP3 MSTORE DUP6 MSTORE KECCAK256 SLOAD SWAP2 MLOAD SWAP2 AND ISZERO ISZERO DUP2 MSTORE RETURN JUMPDEST POP POP CALLVALUE PUSH2 0x1CE JUMPI DUP2 PUSH1 0x3 NOT CALLDATASIZE ADD SLT PUSH2 0x1CE JUMPI PUSH1 0x20 SWAP1 PUSH1 0x1 PUSH1 0x1 PUSH1 0xA0 SHL SUB PUSH1 0x6 SLOAD AND SWAP1 MLOAD SWAP1 DUP2 MSTORE RETURN JUMPDEST POP SWAP2 SWAP1 CALLVALUE PUSH2 0x1CE JUMPI PUSH1 0x20 CALLDATASIZE PUSH1 0x3 NOT ADD SLT PUSH2 0x1CE JUMPI PUSH2 0x264 PUSH2 0x152C JUMP JUMPDEST POP DUP3 CALLDATALOAD DUP3 MSTORE PUSH1 0xB PUSH1 0x20 MSTORE DUP1 DUP3 KECCAK256 SWAP2 DUP2 MLOAD SWAP3 PUSH2 0x27E DUP5 PUSH2 0xF80 JUMP JUMPDEST SLOAD SWAP1 PUSH1 0xFF DUP3 AND DUP5 MSTORE PUSH1 0xFF DUP3 PUSH1 0x8 SHR AND PUSH1 0x20 DUP6 ADD SWAP1 PUSH1 0x3 DUP2 LT ISZERO PUSH2 0x2E5 JUMPI DUP2 MSTORE PUSH1 0xFF DUP5 DUP7 ADD SWAP4 PUSH1 0x10 SHR AND ISZERO ISZERO DUP4 MSTORE PUSH1 0xFF DUP5 MLOAD SWAP6 MLOAD AND DUP6 MSTORE MLOAD SWAP1 PUSH1 0x3 DUP3 LT ISZERO PUSH2 0x2D2 JUMPI POP PUSH1 0x60 SWAP5 POP PUSH1 0x20 DUP5 ADD MSTORE MLOAD ISZERO ISZERO SWAP1 DUP3 ADD MSTORE RETURN JUMPDEST DUP1 PUSH1 0x21 DUP8 PUSH4 0x4E487B71 PUSH1 0xE0 SHL PUSH1 0x24 SWAP5 MSTORE MSTORE REVERT JUMPDEST PUSH1 0x24 DUP4 PUSH1 0x21 DUP10 PUSH4 0x4E487B71 PUSH1 0xE0 SHL DUP4 MSTORE MSTORE REVERT JUMPDEST POP CALLVALUE PUSH2 0x1AB JUMPI PUSH1 0x20 CALLDATASIZE PUSH1 0x3 NOT ADD SLT PUSH2 0x1AB JUMPI DUP2 PUSH1 0x20 SWAP4 PUSH1 0xFF SWAP3 CALLDATALOAD DUP2 MSTORE PUSH1 0xD DUP6 MSTORE KECCAK256 SLOAD AND SWAP1 MLOAD SWAP1 ISZERO ISZERO DUP2 MSTORE RETURN JUMPDEST POP CALLVALUE PUSH2 0x1AB JUMPI PUSH1 0x20 CALLDATASIZE PUSH1 0x3 NOT ADD SLT PUSH2 0x1AB JUMPI SWAP2 PUSH1 0x20 SWAP3 CALLDATALOAD DUP2 MSTORE PUSH1 0xA DUP4 MSTORE DUP2 DUP2 KECCAK256 SLOAD SWAP1 SIGNEXTEND SWAP1 MLOAD SWAP1 DUP2 MSTORE RETURN JUMPDEST POP CALLVALUE PUSH2 0x1AB JUMPI PUSH1 0x20 CALLDATASIZE PUSH1 0x3 NOT ADD SLT PUSH2 0x1AB JUMPI DUP2 PUSH1 0x20 SWAP4 PUSH1 0x1 SWAP3 CALLDATALOAD DUP2 MSTORE PUSH1 0xA DUP6 MSTORE KECCAK256 ADD SLOAD SWAP1 MLOAD SWAP1 DUP2 MSTORE RETURN JUMPDEST POP SWAP2 SWAP1 CALLVALUE PUSH2 0x1CE JUMPI PUSH1 0x20 CALLDATASIZE PUSH1 0x3 NOT ADD SLT PUSH2 0x1CE JUMPI PUSH2 0x399 PUSH2 0x3C7 SWAP4 CALLDATALOAD PUSH2 0x11A1 JUMP JUMPDEST POP DUP2 DUP2 MLOAD PUSH2 0x3A6 DUP2 PUSH2 0xFB2 JUMP JUMPDEST MSTORE DUP1 MLOAD SWAP2 PUSH2 0x3B3 DUP4 PUSH2 0xFB2 JUMP JUMPDEST DUP3 MSTORE MLOAD SWAP2 DUP3 SWAP2 PUSH1 0x20 DUP4 MSTORE PUSH1 0x20 DUP4 ADD SWAP1 PUSH2 0xECB JUMP JUMPDEST SUB SWAP1 RETURN JUMPDEST POP SWAP1 CALLVALUE PUSH2 0x1AB JUMPI PUSH1 0x80 CALLDATASIZE PUSH1 0x3 NOT ADD SLT PUSH2 0x1AB JUMPI PUSH2 0x3E6 PUSH2 0xF0B JUMP JUMPDEST PUSH2 0x3EE PUSH2 0xF26 JUMP JUMPDEST DUP5 PUSH1 0x64 CALLDATALOAD SWAP5 PUSH8 0xFFFFFFFFFFFFFFFF DUP7 GT PUSH2 0x1CE JUMPI CALLDATASIZE PUSH1 0x23 DUP8 ADD SLT ISZERO PUSH2 0x1CE JUMPI DUP6 ADD CALLDATALOAD SWAP5 PUSH2 0x426 PUSH2 0x41D DUP8 PUSH2 0xFF0 JUMP JUMPDEST SWAP6 MLOAD SWAP6 DUP7 PUSH2 0xFCE JUMP JUMPDEST DUP6 DUP6 MSTORE CALLDATASIZE PUSH1 0x24 DUP8 DUP4 ADD ADD GT PUSH2 0x1CE JUMPI DUP6 PUSH2 0x451 SWAP7 PUSH1 0x24 PUSH1 0x20 SWAP4 ADD DUP4 DUP9 ADD CALLDATACOPY DUP6 ADD ADD MSTORE PUSH1 0x44 CALLDATALOAD SWAP2 PUSH2 0x100C JUMP JUMPDEST DUP1 RETURN JUMPDEST POP SWAP1 CALLVALUE PUSH2 0x1AB JUMPI DUP1 PUSH1 0x3 NOT CALLDATASIZE ADD SLT PUSH2 0x1AB JUMPI PUSH2 0x46E PUSH2 0xF0B JUMP JUMPDEST SWAP1 PUSH1 0x1 PUSH1 0x1 PUSH1 0xA0 SHL SUB PUSH2 0x47F PUSH2 0xF71 JUMP JUMPDEST SWAP3 AND SWAP3 DUP4 ISZERO PUSH2 0x4E1 JUMPI POP CALLER DUP5 MSTORE PUSH1 0x5 PUSH1 0x20 MSTORE DUP1 DUP5 KECCAK256 DUP4 DUP6 MSTORE PUSH1 0x20 MSTORE PUSH2 0x4B2 DUP3 DUP3 DUP7 KECCAK256 SWAP1 PUSH1 0xFF DUP1 NOT DUP4 SLOAD AND SWAP2 ISZERO ISZERO AND OR SWAP1 SSTORE JUMP JUMPDEST MLOAD SWAP1 ISZERO ISZERO DUP2 MSTORE PUSH32 0x17307EAB39AB6107E8899845AD3D59BD9653F200F220920489CA2B5937696C31 PUSH1 0x20 CALLER SWAP3 LOG3 DUP1 RETURN JUMPDEST DUP4 PUSH1 0x24 SWAP3 MLOAD SWAP2 PUSH32 0x5B08BA1800000000000000000000000000000000000000000000000000000000 DUP4 MSTORE DUP3 ADD MSTORE REVERT JUMPDEST POP SWAP2 CALLVALUE PUSH2 0x1A4 JUMPI DUP1 PUSH1 0x3 NOT CALLDATASIZE ADD SLT PUSH2 0x1A4 JUMPI DUP2 MLOAD SWAP2 DUP2 PUSH1 0x1 SWAP3 DUP4 SLOAD SWAP4 DUP5 DUP2 SHR SWAP2 DUP2 DUP7 AND SWAP6 DUP7 ISZERO PUSH2 0x61B JUMPI JUMPDEST PUSH1 0x20 SWAP7 DUP8 DUP6 LT DUP2 EQ PUSH2 0x608 JUMPI DUP9 SWAP10 POP SWAP7 DUP9 SWAP7 SWAP8 DUP6 DUP3 SWAP11 MSTORE SWAP2 DUP3 PUSH1 0x0 EQ PUSH2 0x5E1 JUMPI POP POP PUSH1 0x1 EQ PUSH2 0x586 JUMPI JUMPDEST POP POP POP PUSH2 0x3C7 SWAP3 SWAP2 PUSH2 0x577 SWAP2 SUB DUP6 PUSH2 0xFCE JUMP JUMPDEST MLOAD SWAP3 DUP3 DUP5 SWAP4 DUP5 MSTORE DUP4 ADD SWAP1 PUSH2 0xECB JUMP JUMPDEST SWAP2 SWAP1 DUP7 SWAP4 POP DUP1 DUP4 MSTORE PUSH32 0xB10E2D527612073B26EECDFD717E6A320CF44B4AFAC2B0732D9FCBE2B7FA0CF6 JUMPDEST DUP3 DUP5 LT PUSH2 0x5C9 JUMPI POP POP POP DUP3 ADD ADD DUP2 PUSH2 0x577 PUSH2 0x3C7 PUSH2 0x564 JUMP JUMPDEST DUP1 SLOAD DUP5 DUP11 ADD DUP7 ADD MSTORE DUP9 SWAP6 POP DUP8 SWAP5 SWAP1 SWAP4 ADD SWAP3 DUP2 ADD PUSH2 0x5B0 JUMP JUMPDEST PUSH1 0xFF NOT AND DUP8 DUP3 ADD MSTORE SWAP4 ISZERO ISZERO PUSH1 0x5 SHL DUP7 ADD SWAP1 SWAP4 ADD SWAP4 POP DUP5 SWAP3 POP PUSH2 0x577 SWAP2 POP PUSH2 0x3C7 SWAP1 POP PUSH2 0x564 JUMP JUMPDEST PUSH1 0x24 DUP4 PUSH1 0x22 DUP13 PUSH4 0x4E487B71 PUSH1 0xE0 SHL DUP4 MSTORE MSTORE REVERT JUMPDEST SWAP3 PUSH1 0x7F AND SWAP3 PUSH2 0x53A JUMP JUMPDEST POP POP CALLVALUE PUSH2 0x1CE JUMPI DUP2 PUSH1 0x3 NOT CALLDATASIZE ADD SLT PUSH2 0x1CE JUMPI PUSH1 0x20 SWAP1 PUSH1 0x1 PUSH1 0x1 PUSH1 0xA0 SHL SUB PUSH1 0x7 SLOAD AND SWAP1 MLOAD SWAP1 DUP2 MSTORE RETURN JUMPDEST POP CALLVALUE PUSH2 0x1AB JUMPI PUSH1 0x20 CALLDATASIZE PUSH1 0x3 NOT ADD SLT PUSH2 0x1AB JUMPI DUP2 PUSH1 0x20 SWAP4 PUSH1 0xFF SWAP3 CALLDATALOAD DUP2 MSTORE PUSH1 0xB DUP6 MSTORE KECCAK256 SLOAD AND SWAP1 MLOAD SWAP1 DUP2 MSTORE RETURN JUMPDEST POP SWAP2 CALLVALUE PUSH2 0x1A4 JUMPI PUSH1 0x20 CALLDATASIZE PUSH1 0x3 NOT ADD SLT PUSH2 0x1A4 JUMPI PUSH1 0x1 PUSH1 0x1 PUSH1 0xA0 SHL SUB PUSH2 0x69A PUSH2 0xF0B JUMP JUMPDEST AND SWAP3 DUP4 ISZERO PUSH2 0x6B7 JUMPI POP DUP1 PUSH1 0x20 SWAP4 DUP4 SWAP3 MSTORE PUSH1 0x3 DUP5 MSTORE KECCAK256 SLOAD SWAP1 MLOAD SWAP1 DUP2 MSTORE RETURN JUMPDEST SWAP1 PUSH1 0x24 SWAP3 MLOAD SWAP2 PUSH32 0x89C62B6400000000000000000000000000000000000000000000000000000000 DUP4 MSTORE DUP3 ADD MSTORE REVERT JUMPDEST POP CALLVALUE PUSH2 0x1AB JUMPI PUSH1 0xC0 CALLDATASIZE PUSH1 0x3 NOT ADD SLT PUSH2 0x1AB JUMPI DUP1 CALLDATALOAD DUP1 DUP5 SIGNEXTEND SWAP2 DUP3 DUP3 SUB PUSH2 0x90E JUMPI PUSH1 0x24 CALLDATALOAD SWAP5 DUP6 DUP2 SIGNEXTEND DUP1 DUP8 SUB PUSH2 0x1CE JUMPI PUSH1 0x44 CALLDATALOAD SWAP3 PUSH1 0x1 PUSH1 0x1 PUSH1 0xA0 SHL SUB SWAP3 DUP4 DUP6 AND DUP1 SWAP6 SUB PUSH2 0x1A4 JUMPI PUSH1 0x64 CALLDATALOAD SWAP6 PUSH1 0x84 CALLDATALOAD SWAP1 PUSH1 0x3 DUP3 LT ISZERO PUSH2 0x1AB JUMPI PUSH1 0xA4 CALLDATALOAD SWAP11 PUSH1 0xFF DUP13 AND DUP13 SUB PUSH2 0x1A7 JUMPI DUP7 PUSH1 0x6 SLOAD AND CALLER EQ DUP1 PUSH2 0x8F9 JUMPI JUMPDEST PUSH2 0x8EA JUMPI SWAP2 PUSH1 0xA SWAP12 SWAP2 PUSH2 0x7A1 SWAP4 DUP11 PUSH1 0x8 SSTORE DUP11 DUP7 MSTORE PUSH1 0x20 SWAP14 DUP15 MSTORE DUP13 DUP7 KECCAK256 SWAP1 PUSH1 0xFF NOT DUP3 SLOAD AND SWAP1 PUSH1 0xFF AND OR SWAP1 SSTORE PUSH1 0x8 SLOAD DUP6 MSTORE DUP12 DUP6 KECCAK256 SWAP1 DUP2 SLOAD SWAP1 PUSH1 0x8 SHL PUSH2 0xFF00 AND SWAP1 PUSH2 0xFF00 NOT AND OR SWAP1 SSTORE DUP9 PUSH2 0x11DC JUMP JUMPDEST SWAP4 PUSH1 0x8 SLOAD DUP3 MSTORE PUSH1 0xA DUP11 MSTORE DUP5 PUSH1 0x1 DUP11 DUP5 KECCAK256 ADD SSTORE DUP6 ISZERO PUSH2 0x8D4 JUMPI DUP7 DUP3 MSTORE PUSH1 0x2 DUP11 MSTORE DUP9 DUP3 KECCAK256 SLOAD AND DUP7 DUP7 DUP3 ISZERO ISZERO SWAP3 DUP4 PUSH2 0x89C JUMPI JUMPDEST DUP2 DUP6 MSTORE PUSH1 0x3 DUP14 MSTORE DUP12 DUP6 KECCAK256 PUSH1 0x1 DUP2 SLOAD ADD SWAP1 SSTORE DUP3 DUP6 MSTORE PUSH1 0x2 DUP14 MSTORE DUP12 DUP6 KECCAK256 DUP3 PUSH1 0x1 PUSH1 0x1 PUSH1 0xA0 SHL SUB NOT DUP3 SLOAD AND OR SWAP1 SSTORE PUSH32 0xDDF252AD1BE2C89B69C2B068FC378DAA952BA7F163C4A11628F55A4DF523B3EF DUP6 DUP1 LOG4 PUSH2 0x86D JUMPI POP POP DUP6 MLOAD SWAP5 DUP6 MSTORE DUP7 DUP6 ADD MSTORE DUP4 DUP6 ADD MSTORE PUSH1 0x60 DUP4 ADD MSTORE PUSH1 0x80 DUP3 ADD MSTORE PUSH32 0x109229AC81B300348D84064E43ADE3C2B4BCC03FFADA9917DA223D4DA8082FEF SWAP1 PUSH1 0xA0 SWAP1 LOG1 PUSH1 0x8 SLOAD SWAP1 MLOAD SWAP1 DUP2 MSTORE RETURN JUMPDEST PUSH1 0x24 SWAP3 POP DUP8 MLOAD SWAP2 PUSH32 0x73C6AC6E00000000000000000000000000000000000000000000000000000000 DUP4 MSTORE DUP3 ADD MSTORE REVERT JUMPDEST PUSH2 0x8BD DUP4 PUSH1 0x0 MSTORE PUSH1 0x4 PUSH1 0x20 MSTORE PUSH1 0x40 PUSH1 0x0 KECCAK256 PUSH1 0x1 PUSH1 0x1 PUSH1 0xA0 SHL SUB NOT DUP2 SLOAD AND SWAP1 SSTORE JUMP JUMPDEST DUP1 DUP6 MSTORE PUSH1 0x3 DUP14 MSTORE DUP12 DUP6 KECCAK256 DUP1 SLOAD PUSH1 0x0 NOT ADD SWAP1 SSTORE PUSH2 0x7D1 JUMP JUMPDEST PUSH1 0x24 DUP4 DUP4 DUP12 MLOAD SWAP2 PUSH4 0x32505749 PUSH1 0xE1 SHL DUP4 MSTORE DUP3 ADD MSTORE REVERT JUMPDEST DUP5 DUP12 MLOAD PUSH4 0xD79D3ADB PUSH1 0xE0 SHL DUP2 MSTORE REVERT JUMPDEST POP CALLER DUP5 MSTORE PUSH1 0xC PUSH1 0x20 MSTORE PUSH1 0xFF DUP12 DUP6 KECCAK256 SLOAD AND PUSH2 0x755 JUMP JUMPDEST DUP5 DUP1 REVERT JUMPDEST POP SWAP2 SWAP1 CALLVALUE PUSH2 0x1CE JUMPI DUP1 PUSH1 0x3 NOT CALLDATASIZE ADD SLT PUSH2 0x1CE JUMPI DUP3 CALLDATALOAD PUSH2 0x92F PUSH2 0xF71 JUMP JUMPDEST PUSH1 0x1 PUSH1 0x1 PUSH1 0xA0 SHL SUB PUSH1 0x7 SLOAD AND CALLER EQ PUSH2 0x995 JUMPI DUP4 SWAP5 POP DUP2 PUSH32 0xC4B31AE5059620910AC0A7A772A9FC25A174520541A9EB16B8D34A92859D25E1 SWAP5 MSTORE PUSH1 0xD PUSH1 0x20 MSTORE PUSH2 0x985 DUP2 DUP5 DUP8 KECCAK256 SWAP1 PUSH1 0xFF DUP1 NOT DUP4 SLOAD AND SWAP2 ISZERO ISZERO AND OR SWAP1 SSTORE JUMP JUMPDEST DUP3 MLOAD SWAP2 DUP3 MSTORE ISZERO ISZERO PUSH1 0x20 DUP3 ADD MSTORE LOG1 DUP1 RETURN JUMPDEST DUP5 DUP4 MLOAD PUSH32 0x35C2674B00000000000000000000000000000000000000000000000000000000 DUP2 MSTORE REVERT JUMPDEST POP SWAP2 CALLVALUE PUSH2 0x1A4 JUMPI PUSH1 0x20 CALLDATASIZE PUSH1 0x3 NOT ADD SLT PUSH2 0x1A4 JUMPI POP PUSH1 0x1 PUSH1 0x1 PUSH1 0xA0 SHL SUB PUSH2 0x9E5 PUSH1 0x20 SWAP4 CALLDATALOAD PUSH2 0x11A1 JUMP JUMPDEST SWAP2 MLOAD SWAP2 AND DUP2 MSTORE RETURN JUMPDEST POP SWAP1 CALLVALUE PUSH2 0x1AB JUMPI DUP1 PUSH1 0x3 NOT CALLDATASIZE ADD SLT PUSH2 0x1AB JUMPI PUSH2 0xA07 PUSH2 0xF0B JUMP JUMPDEST SWAP2 PUSH2 0xA10 PUSH2 0xF71 JUMP JUMPDEST SWAP3 PUSH1 0x1 PUSH1 0x1 PUSH1 0xA0 SHL SUB SWAP2 DUP3 PUSH1 0x6 SLOAD AND CALLER EQ DUP1 PUSH2 0xA89 JUMPI JUMPDEST PUSH2 0xA7B JUMPI POP SWAP2 PUSH2 0xA73 PUSH32 0x4F783C179409B4127238BC9C990BC99B9A651666A0D20B51D6C42849EB88466D SWAP5 SWAP3 PUSH1 0x20 SWAP5 AND SWAP3 DUP4 DUP8 MSTORE PUSH1 0xC DUP6 MSTORE DUP3 DUP8 KECCAK256 SWAP1 PUSH1 0xFF DUP1 NOT DUP4 SLOAD AND SWAP2 ISZERO ISZERO AND OR SWAP1 SSTORE JUMP JUMPDEST MLOAD SWAP1 DUP2 MSTORE LOG1 DUP1 RETURN JUMPDEST DUP4 MLOAD PUSH4 0xD79D3ADB PUSH1 0xE0 SHL DUP2 MSTORE REVERT JUMPDEST POP CALLER DUP7 MSTORE PUSH1 0xC PUSH1 0x20 MSTORE PUSH1 0xFF DUP5 DUP8 KECCAK256 SLOAD AND PUSH2 0xA27 JUMP JUMPDEST POP POP CALLVALUE PUSH2 0x1CE JUMPI PUSH2 0x451 SWAP1 PUSH2 0xAB2 CALLDATASIZE PUSH2 0xF3C JUMP JUMPDEST SWAP2 SWAP3 MLOAD SWAP3 PUSH2 0xABF DUP5 PUSH2 0xFB2 JUMP JUMPDEST DUP6 DUP5 MSTORE PUSH2 0x100C JUMP JUMPDEST POP CALLVALUE PUSH2 0x1AB JUMPI PUSH1 0x20 CALLDATASIZE PUSH1 0x3 NOT ADD SLT PUSH2 0x1AB JUMPI SWAP2 PUSH1 0x20 SWAP3 CALLDATALOAD DUP2 MSTORE PUSH1 0xA DUP4 MSTORE DUP2 DUP2 KECCAK256 SLOAD PUSH1 0x8 SHR SWAP1 SIGNEXTEND SWAP1 MLOAD SWAP1 DUP2 MSTORE RETURN JUMPDEST POP CALLVALUE PUSH2 0x1AB JUMPI PUSH1 0x20 CALLDATASIZE PUSH1 0x3 NOT ADD SLT PUSH2 0x1AB JUMPI PUSH2 0xB0E PUSH2 0xF0B JUMP JUMPDEST SWAP1 PUSH1 0x1 PUSH1 0x1 PUSH1 0xA0 SHL SUB SWAP3 DUP4 PUSH1 0x6 SLOAD AND CALLER EQ DUP1 PUSH2 0xB4D JUMPI JUMPDEST PUSH2 0xB40 JUMPI POP POP AND PUSH1 0x1 PUSH1 0x1 PUSH1 0xA0 SHL SUB NOT PUSH1 0x7 SLOAD AND OR PUSH1 0x7 SSTORE DUP1 RETURN JUMPDEST MLOAD PUSH4 0xD79D3ADB PUSH1 0xE0 SHL DUP2 MSTORE REVERT JUMPDEST POP CALLER DUP6 MSTORE PUSH1 0xC PUSH1 0x20 MSTORE PUSH1 0xFF DUP2 DUP7 KECCAK256 SLOAD AND PUSH2 0xB25 JUMP JUMPDEST DUP4 CALLVALUE PUSH2 0x1A4 JUMPI PUSH2 0x451 PUSH2 0xB74 CALLDATASIZE PUSH2 0xF3C JUMP JUMPDEST SWAP2 PUSH2 0x131C JUMP JUMPDEST POP POP CALLVALUE PUSH2 0x1CE JUMPI DUP2 PUSH1 0x3 NOT CALLDATASIZE ADD SLT PUSH2 0x1CE JUMPI PUSH1 0x20 SWAP1 PUSH1 0x8 SLOAD SWAP1 MLOAD SWAP1 DUP2 MSTORE RETURN JUMPDEST POP SWAP2 SWAP1 CALLVALUE PUSH2 0x1CE JUMPI PUSH1 0x20 CALLDATASIZE PUSH1 0x3 NOT ADD SLT PUSH2 0x1CE JUMPI PUSH1 0x60 SWAP3 PUSH2 0xBB8 PUSH2 0x152C JUMP JUMPDEST POP CALLDATALOAD DUP3 MSTORE PUSH1 0xA PUSH1 0x20 MSTORE DUP1 DUP3 KECCAK256 SWAP2 DUP2 MLOAD SWAP1 PUSH2 0xBD1 DUP3 PUSH2 0xF80 JUMP JUMPDEST DUP4 SLOAD DUP4 PUSH1 0x1 DUP3 DUP5 SIGNEXTEND SWAP7 DUP8 DUP7 MSTORE PUSH1 0x20 DUP7 ADD SWAP4 PUSH1 0x8 SHR DUP6 SIGNEXTEND DUP5 MSTORE ADD SLOAD SWAP4 ADD SWAP3 DUP4 MSTORE DUP4 MLOAD SWAP5 DUP6 MSTORE MLOAD SWAP1 SIGNEXTEND PUSH1 0x20 DUP5 ADD MSTORE MLOAD SWAP1 DUP3 ADD MSTORE RETURN JUMPDEST POP SWAP1 CALLVALUE PUSH2 0x1AB JUMPI DUP1 PUSH1 0x3 NOT CALLDATASIZE ADD SLT PUSH2 0x1AB JUMPI PUSH2 0xC1E PUSH2 0xF0B JUMP JUMPDEST SWAP2 PUSH1 0x24 CALLDATALOAD PUSH2 0xC2B DUP2 PUSH2 0x11A1 JUMP JUMPDEST CALLER ISZERO ISZERO DUP1 PUSH2 0xCE4 JUMPI JUMPDEST DUP1 PUSH2 0xCBC JUMPI JUMPDEST PUSH2 0xC8D JUMPI DUP2 SWAP1 PUSH1 0x1 PUSH1 0x1 PUSH1 0xA0 SHL SUB DUP1 SWAP7 AND SWAP6 DUP7 SWAP2 AND PUSH32 0x8C5BE1E5EBEC7D5BD14F71427D1E84F3DD0314C0F7B2291E5B200AC8C7C3B925 DUP9 DUP1 LOG4 DUP5 MSTORE PUSH1 0x20 MSTORE DUP3 KECCAK256 SWAP1 PUSH1 0x1 PUSH1 0x1 PUSH1 0xA0 SHL SUB NOT DUP3 SLOAD AND OR SWAP1 SSTORE DUP1 RETURN JUMPDEST DUP4 MLOAD PUSH32 0xA9FBF51F00000000000000000000000000000000000000000000000000000000 DUP2 MSTORE CALLER DUP2 DUP6 ADD MSTORE PUSH1 0x24 SWAP1 REVERT JUMPDEST POP PUSH1 0x1 PUSH1 0x1 PUSH1 0xA0 SHL SUB DUP2 AND DUP7 MSTORE PUSH1 0x5 PUSH1 0x20 MSTORE DUP4 DUP7 KECCAK256 CALLER DUP8 MSTORE PUSH1 0x20 MSTORE PUSH1 0xFF DUP5 DUP8 KECCAK256 SLOAD AND ISZERO PUSH2 0xC3A JUMP JUMPDEST POP CALLER PUSH1 0x1 PUSH1 0x1 PUSH1 0xA0 SHL SUB DUP3 AND EQ ISZERO PUSH2 0xC34 JUMP JUMPDEST POP CALLVALUE PUSH2 0x1AB JUMPI PUSH1 0x20 CALLDATASIZE PUSH1 0x3 NOT ADD SLT PUSH2 0x1AB JUMPI DUP2 PUSH1 0x20 SWAP4 DUP3 PUSH1 0x1 PUSH1 0x1 PUSH1 0xA0 SHL SUB SWAP4 CALLDATALOAD PUSH2 0xD21 DUP2 PUSH2 0x11A1 JUMP JUMPDEST POP DUP3 MSTORE DUP6 MSTORE KECCAK256 SLOAD AND SWAP1 MLOAD SWAP1 DUP2 MSTORE RETURN JUMPDEST POP SWAP2 CALLVALUE PUSH2 0x1A4 JUMPI DUP1 PUSH1 0x3 NOT CALLDATASIZE ADD SLT PUSH2 0x1A4 JUMPI DUP2 MLOAD SWAP2 DUP2 DUP3 SLOAD SWAP3 PUSH1 0x1 DUP5 DUP2 SHR SWAP2 DUP2 DUP7 AND SWAP6 DUP7 ISZERO PUSH2 0xDF1 JUMPI JUMPDEST PUSH1 0x20 SWAP7 DUP8 DUP6 LT DUP2 EQ PUSH2 0x608 JUMPI DUP9 SWAP10 POP SWAP7 DUP9 SWAP7 SWAP8 DUP6 DUP3 SWAP11 MSTORE SWAP2 DUP3 PUSH1 0x0 EQ PUSH2 0x5E1 JUMPI POP POP PUSH1 0x1 EQ PUSH2 0xD96 JUMPI POP POP POP PUSH2 0x3C7 SWAP3 SWAP2 PUSH2 0x577 SWAP2 SUB DUP6 PUSH2 0xFCE JUMP JUMPDEST SWAP2 SWAP1 DUP7 SWAP4 POP DUP3 DUP1 MSTORE PUSH32 0x290DECD9548B62A8D60345A988386FC84BA6BC95484008F6362F93160EF3E563 JUMPDEST DUP3 DUP5 LT PUSH2 0xDD9 JUMPI POP POP POP DUP3 ADD ADD DUP2 PUSH2 0x577 PUSH2 0x3C7 PUSH2 0x564 JUMP JUMPDEST DUP1 SLOAD DUP5 DUP11 ADD DUP7 ADD MSTORE DUP9 SWAP6 POP DUP8 SWAP5 SWAP1 SWAP4 ADD SWAP3 DUP2 ADD PUSH2 0xDC0 JUMP JUMPDEST SWAP3 PUSH1 0x7F AND SWAP3 PUSH2 0xD5A JUMP JUMPDEST SWAP3 POP POP CALLVALUE PUSH2 0x1AB JUMPI PUSH1 0x20 CALLDATASIZE PUSH1 0x3 NOT ADD SLT PUSH2 0x1AB JUMPI CALLDATALOAD PUSH32 0xFFFFFFFF00000000000000000000000000000000000000000000000000000000 DUP2 AND DUP1 SWAP2 SUB PUSH2 0x1AB JUMPI PUSH1 0x20 SWAP3 POP PUSH32 0x80AC58CD00000000000000000000000000000000000000000000000000000000 DUP2 EQ SWAP1 DUP2 ISZERO PUSH2 0xEA1 JUMPI JUMPDEST DUP2 ISZERO PUSH2 0xE77 JUMPI JUMPDEST POP ISZERO ISZERO DUP2 MSTORE RETURN JUMPDEST PUSH32 0x1FFC9A700000000000000000000000000000000000000000000000000000000 SWAP2 POP EQ CODESIZE PUSH2 0xE70 JUMP JUMPDEST PUSH32 0x5B5E139F00000000000000000000000000000000000000000000000000000000 DUP2 EQ SWAP2 POP PUSH2 0xE69 JUMP JUMPDEST SWAP2 SWAP1 DUP3 MLOAD SWAP3 DUP4 DUP3 MSTORE PUSH1 0x0 JUMPDEST DUP5 DUP2 LT PUSH2 0xEF7 JUMPI POP POP DUP3 PUSH1 0x0 PUSH1 0x20 DUP1 SWAP5 SWAP6 DUP5 ADD ADD MSTORE PUSH1 0x1F DUP1 NOT SWAP2 ADD AND ADD ADD SWAP1 JUMP JUMPDEST PUSH1 0x20 DUP2 DUP4 ADD DUP2 ADD MLOAD DUP5 DUP4 ADD DUP3 ADD MSTORE ADD PUSH2 0xED6 JUMP JUMPDEST PUSH1 0x4 CALLDATALOAD SWAP1 PUSH1 0x1 PUSH1 0x1 PUSH1 0xA0 SHL SUB DUP3 AND DUP3 SUB PUSH2 0xF21 JUMPI JUMP JUMPDEST PUSH1 0x0 DUP1 REVERT JUMPDEST PUSH1 0x24 CALLDATALOAD SWAP1 PUSH1 0x1 PUSH1 0x1 PUSH1 0xA0 SHL SUB DUP3 AND DUP3 SUB PUSH2 0xF21 JUMPI JUMP JUMPDEST PUSH1 0x60 SWAP1 PUSH1 0x3 NOT ADD SLT PUSH2 0xF21 JUMPI PUSH1 0x1 PUSH1 0x1 PUSH1 0xA0 SHL SUB SWAP1 PUSH1 0x4 CALLDATALOAD DUP3 DUP2 AND DUP2 SUB PUSH2 0xF21 JUMPI SWAP2 PUSH1 0x24 CALLDATALOAD SWAP1 DUP2 AND DUP2 SUB PUSH2 0xF21 JUMPI SWAP1 PUSH1 0x44 CALLDATALOAD SWAP1 JUMP JUMPDEST PUSH1 0x24 CALLDATALOAD SWAP1 DUP2 ISZERO ISZERO DUP3 SUB PUSH2 0xF21 JUMPI JUMP JUMPDEST PUSH1 0x60 DUP2 ADD SWAP1 DUP2 LT PUSH8 0xFFFFFFFFFFFFFFFF DUP3 GT OR PUSH2 0xF9C JUMPI PUSH1 0x40 MSTORE JUMP JUMPDEST PUSH4 0x4E487B71 PUSH1 0xE0 SHL PUSH1 0x0 MSTORE PUSH1 0x41 PUSH1 0x4 MSTORE PUSH1 0x24 PUSH1 0x0 REVERT JUMPDEST PUSH1 0x20 DUP2 ADD SWAP1 DUP2 LT PUSH8 0xFFFFFFFFFFFFFFFF DUP3 GT OR PUSH2 0xF9C JUMPI PUSH1 0x40 MSTORE JUMP JUMPDEST SWAP1 PUSH1 0x1F DUP1 NOT SWAP2 ADD AND DUP2 ADD SWAP1 DUP2 LT PUSH8 0xFFFFFFFFFFFFFFFF DUP3 GT OR PUSH2 0xF9C JUMPI PUSH1 0x40 MSTORE JUMP JUMPDEST PUSH8 0xFFFFFFFFFFFFFFFF DUP2 GT PUSH2 0xF9C JUMPI PUSH1 0x1F ADD PUSH1 0x1F NOT AND PUSH1 0x20 ADD SWAP1 JUMP JUMPDEST PUSH2 0x1017 DUP4 DUP4 DUP4 PUSH2 0x131C JUMP JUMPDEST DUP2 EXTCODESIZE PUSH2 0x1024 JUMPI JUMPDEST POP POP POP POP JUMP JUMPDEST PUSH1 0x1 PUSH1 0x1 PUSH1 0xA0 SHL SUB SWAP5 SWAP2 SWAP3 SWAP4 SWAP5 DUP1 SWAP4 AND SWAP4 PUSH1 0x40 MLOAD SWAP4 PUSH32 0x150B7A0200000000000000000000000000000000000000000000000000000000 SWAP3 DUP4 DUP7 MSTORE CALLER PUSH1 0x4 DUP8 ADD MSTORE AND PUSH1 0x24 DUP6 ADD MSTORE PUSH1 0x44 DUP5 ADD MSTORE PUSH1 0x80 PUSH1 0x64 DUP5 ADD MSTORE DUP3 PUSH2 0x1087 PUSH1 0x20 SWAP7 PUSH1 0x84 DUP4 ADD SWAP1 PUSH2 0xECB JUMP JUMPDEST SUB SWAP3 DUP6 DUP2 PUSH1 0x0 SWAP6 DUP2 DUP8 DUP10 GAS CALL DUP5 SWAP2 DUP2 PUSH2 0x1149 JUMPI JUMPDEST POP PUSH2 0x10FA JUMPI POP POP POP RETURNDATASIZE PUSH1 0x0 EQ PUSH2 0x10F2 JUMPI RETURNDATASIZE PUSH2 0x10B5 DUP2 PUSH2 0xFF0 JUMP JUMPDEST SWAP1 PUSH2 0x10C3 PUSH1 0x40 MLOAD SWAP3 DUP4 PUSH2 0xFCE JUMP JUMPDEST DUP2 MSTORE DUP1 SWAP2 DUP5 RETURNDATASIZE SWAP3 ADD RETURNDATACOPY JUMPDEST DUP1 MLOAD SWAP3 DUP4 PUSH2 0x10ED JUMPI PUSH1 0x24 DUP4 PUSH1 0x40 MLOAD SWAP1 PUSH4 0x32505749 PUSH1 0xE1 SHL DUP3 MSTORE PUSH1 0x4 DUP3 ADD MSTORE REVERT JUMPDEST ADD SWAP1 POP REVERT JUMPDEST POP PUSH1 0x60 PUSH2 0x10CD JUMP JUMPDEST SWAP1 SWAP3 POP PUSH32 0xFFFFFFFF00000000000000000000000000000000000000000000000000000000 SWAP2 SWAP5 POP AND SUB PUSH2 0x1131 JUMPI POP CODESIZE DUP1 DUP1 DUP1 PUSH2 0x101E JUMP JUMPDEST PUSH1 0x24 SWAP1 PUSH1 0x40 MLOAD SWAP1 PUSH4 0x32505749 PUSH1 0xE1 SHL DUP3 MSTORE PUSH1 0x4 DUP3 ADD MSTORE REVERT JUMPDEST SWAP1 SWAP2 POP DUP7 DUP2 DUP2 RETURNDATASIZE DUP4 GT PUSH2 0x119A JUMPI JUMPDEST PUSH2 0x1161 DUP2 DUP4 PUSH2 0xFCE JUMP JUMPDEST DUP2 ADD SUB SLT PUSH2 0x90E JUMPI MLOAD PUSH32 0xFFFFFFFF00000000000000000000000000000000000000000000000000000000 DUP2 AND DUP2 SUB PUSH2 0x90E JUMPI SWAP1 CODESIZE PUSH2 0x109B JUMP JUMPDEST POP RETURNDATASIZE PUSH2 0x1157 JUMP JUMPDEST DUP1 PUSH1 0x0 MSTORE PUSH1 0x2 PUSH1 0x20 MSTORE PUSH1 0x1 PUSH1 0x1 PUSH1 0xA0 SHL SUB PUSH1 0x40 PUSH1 0x0 KECCAK256 SLOAD AND SWAP1 DUP2 ISZERO PUSH2 0x11C4 JUMPI POP SWAP1 JUMP JUMPDEST PUSH1 0x24 SWAP1 PUSH1 0x40 MLOAD SWAP1 PUSH4 0x7E273289 PUSH1 0xE0 SHL DUP3 MSTORE PUSH1 0x4 DUP3 ADD MSTORE REVERT JUMPDEST SWAP2 PUSH1 0x1 PUSH1 0x1 PUSH1 0xA0 SHL SUB PUSH1 0x6 SLOAD AND CALLER EQ DUP1 PUSH2 0x1304 JUMPI JUMPDEST PUSH2 0x12F3 JUMPI PUSH1 0x9 SWAP2 PUSH1 0x1 DUP4 SLOAD ADD SWAP1 DUP2 DUP5 SSTORE PUSH1 0x3 DUP2 LT ISZERO PUSH2 0x12DD JUMPI PUSH1 0x1 SWAP2 DUP2 ISZERO PUSH2 0x12AA JUMPI JUMPDEST POP EQ DUP1 PUSH2 0x1272 JUMPI JUMPDEST PUSH2 0x1239 JUMPI JUMPDEST POP SLOAD SWAP1 PUSH1 0x0 MSTORE PUSH1 0xA PUSH1 0x20 MSTORE DUP1 PUSH1 0x1 PUSH1 0x40 PUSH1 0x0 KECCAK256 ADD SSTORE SWAP1 JUMP JUMPDEST DUP2 SLOAD PUSH1 0x0 MSTORE PUSH1 0xB PUSH1 0x20 MSTORE PUSH1 0x40 PUSH1 0x0 KECCAK256 PUSH2 0x200 PUSH2 0xFF00 NOT DUP3 SLOAD AND OR SWAP1 SSTORE DUP2 SLOAD PUSH1 0x0 MSTORE PUSH1 0xFF PUSH1 0x40 PUSH1 0x0 KECCAK256 SWAP2 AND PUSH1 0xFF NOT DUP3 SLOAD AND OR SWAP1 SSTORE CODESIZE PUSH2 0x1221 JUMP JUMPDEST DUP3 SLOAD PUSH1 0x0 MSTORE PUSH1 0xB PUSH1 0x20 MSTORE PUSH1 0x40 PUSH1 0x0 KECCAK256 PUSH2 0x100 PUSH2 0xFF00 NOT DUP3 SLOAD AND OR SWAP1 SSTORE DUP3 SLOAD PUSH1 0x0 MSTORE PUSH1 0x40 PUSH1 0x0 KECCAK256 PUSH1 0xFF DUP4 AND PUSH1 0xFF NOT DUP3 SLOAD AND OR SWAP1 SSTORE PUSH2 0x121C JUMP JUMPDEST PUSH1 0x0 MSTORE PUSH1 0xB PUSH1 0x20 MSTORE PUSH1 0x40 PUSH1 0x0 KECCAK256 PUSH2 0xFF00 NOT DUP2 SLOAD AND SWAP1 SSTORE DUP4 SLOAD PUSH1 0x0 MSTORE PUSH1 0x40 PUSH1 0x0 KECCAK256 PUSH1 0xFF DUP5 AND PUSH1 0xFF NOT DUP3 SLOAD AND OR SWAP1 SSTORE CODESIZE PUSH2 0x1214 JUMP JUMPDEST PUSH4 0x4E487B71 PUSH1 0xE0 SHL PUSH1 0x0 MSTORE PUSH1 0x21 PUSH1 0x4 MSTORE PUSH1 0x24 PUSH1 0x0 REVERT JUMPDEST PUSH1 0x4 PUSH1 0x40 MLOAD PUSH4 0xD79D3ADB PUSH1 0xE0 SHL DUP2 MSTORE REVERT JUMPDEST POP CALLER PUSH1 0x0 MSTORE PUSH1 0xC PUSH1 0x20 MSTORE PUSH1 0xFF PUSH1 0x40 PUSH1 0x0 KECCAK256 SLOAD AND PUSH2 0x11F1 JUMP JUMPDEST SWAP2 PUSH1 0x0 SWAP2 DUP2 DUP4 MSTORE PUSH1 0x20 SWAP4 PUSH1 0xD DUP6 MSTORE PUSH1 0x40 SWAP5 PUSH1 0xFF DUP7 DUP7 KECCAK256 SLOAD AND PUSH2 0x1503 JUMPI PUSH1 0x1 PUSH1 0x1 PUSH1 0xA0 SHL SUB DUP1 SWAP4 AND SWAP1 DUP2 ISZERO PUSH2 0x14EC JUMPI SWAP1 DUP5 SWAP2 DUP3 DUP8 MSTORE PUSH1 0x2 DUP2 MSTORE DUP5 DUP9 DUP9 KECCAK256 SLOAD AND SWAP7 DUP8 SWAP2 CALLER ISZERO ISZERO DUP1 PUSH2 0x143D JUMPI JUMPDEST POP SWAP1 PUSH1 0x2 PUSH32 0xDDF252AD1BE2C89B69C2B068FC378DAA952BA7F163C4A11628F55A4DF523B3EF SWAP3 DUP5 PUSH2 0x1405 JUMPI JUMPDEST DUP6 DUP4 MSTORE PUSH1 0x3 DUP2 MSTORE DUP12 DUP4 KECCAK256 PUSH1 0x1 DUP2 SLOAD ADD SWAP1 SSTORE DUP7 DUP4 MSTORE MSTORE DUP10 DUP2 KECCAK256 DUP5 PUSH1 0x1 PUSH1 0x1 PUSH1 0xA0 SHL SUB NOT DUP3 SLOAD AND OR SWAP1 SSTORE DUP1 LOG4 AND SWAP3 DUP4 DUP4 SUB PUSH2 0x13CB JUMPI POP POP POP POP JUMP JUMPDEST PUSH1 0x64 SWAP5 POP MLOAD SWAP3 PUSH32 0x64283D7B00000000000000000000000000000000000000000000000000000000 DUP5 MSTORE PUSH1 0x4 DUP5 ADD MSTORE PUSH1 0x24 DUP4 ADD MSTORE PUSH1 0x44 DUP3 ADD MSTORE REVERT JUMPDEST PUSH2 0x1426 DUP8 PUSH1 0x0 MSTORE PUSH1 0x4 PUSH1 0x20 MSTORE PUSH1 0x40 PUSH1 0x0 KECCAK256 PUSH1 0x1 PUSH1 0x1 PUSH1 0xA0 SHL SUB NOT DUP2 SLOAD AND SWAP1 SSTORE JUMP JUMPDEST DUP5 DUP4 MSTORE PUSH1 0x3 DUP2 MSTORE DUP12 DUP4 KECCAK256 DUP1 SLOAD PUSH1 0x0 NOT ADD SWAP1 SSTORE PUSH2 0x1392 JUMP JUMPDEST SWAP2 SWAP4 SWAP5 POP SWAP2 POP DUP1 PUSH2 0x14AB JUMPI JUMPDEST ISZERO PUSH2 0x1459 JUMPI DUP6 SWAP3 SWAP2 DUP8 SWAP2 CODESIZE PUSH2 0x1366 JUMP JUMPDEST DUP8 DUP7 DUP9 PUSH2 0x1476 JUMPI PUSH1 0x24 SWAP2 MLOAD SWAP1 PUSH4 0x7E273289 PUSH1 0xE0 SHL DUP3 MSTORE PUSH1 0x4 DUP3 ADD MSTORE REVERT JUMPDEST PUSH1 0x44 SWAP2 MLOAD SWAP1 PUSH32 0x177E802F00000000000000000000000000000000000000000000000000000000 DUP3 MSTORE CALLER PUSH1 0x4 DUP4 ADD MSTORE PUSH1 0x24 DUP3 ADD MSTORE REVERT JUMPDEST POP CALLER DUP8 EQ DUP1 ISZERO PUSH2 0x14D0 JUMPI JUMPDEST DUP1 PUSH2 0x1449 JUMPI POP DUP6 DUP3 MSTORE PUSH1 0x4 DUP2 MSTORE CALLER DUP6 DUP10 DUP5 KECCAK256 SLOAD AND EQ PUSH2 0x1449 JUMP JUMPDEST POP DUP7 DUP3 MSTORE PUSH1 0x5 DUP2 MSTORE DUP8 DUP3 KECCAK256 CALLER DUP4 MSTORE DUP2 MSTORE PUSH1 0xFF DUP9 DUP4 KECCAK256 SLOAD AND PUSH2 0x14B6 JUMP JUMPDEST PUSH1 0x24 DUP7 DUP9 MLOAD SWAP1 PUSH4 0x32505749 PUSH1 0xE1 SHL DUP3 MSTORE PUSH1 0x4 DUP3 ADD MSTORE REVERT JUMPDEST PUSH1 0x4 DUP7 MLOAD PUSH32 0x9E51D34B00000000000000000000000000000000000000000000000000000000 DUP2 MSTORE REVERT JUMPDEST PUSH1 0x40 MLOAD SWAP1 PUSH2 0x1539 DUP3 PUSH2 0xF80 JUMP JUMPDEST PUSH1 0x0 PUSH1 0x40 DUP4 DUP3 DUP2 MSTORE DUP3 PUSH1 0x20 DUP3 ADD MSTORE ADD MSTORE JUMP INVALID LOG2 PUSH5 0x6970667358 0x22 SLT KECCAK256 0xD9 0xCB REVERT 0x23 0x29 DUP8 0xC2 LT 0xF7 0xD8 CODECOPY SDIV 0xF 0xA8 MSTORE 0x26 0xE7 0xE LOG4 PUSH17 0x62D7B498F29068B63295A7E864736F6C63 NUMBER STOP ADDMOD EQ STOP CALLER "},"methodIdentifiers":{"abilityCount()":"f530bd94","addOrRemoveFromWhiteList(address,bool)":"54996d18","approve(address,uint256)":"095ea7b3","balanceOf(address)":"70a08231","cardCount()":"1b6cde10","cardInGamePlay(uint256,bool)":"6a019b7f","defineAbilities(uint256,uint8,uint8)":"f687b504","deployer()":"d5f39488","gameLogicAddress()":"91f3f18c","getAbility(uint256)":"d5523f77","getAbilityID(uint256)":"cc56f2d3","getApproved(uint256)":"081812fc","getAttack(uint256)":"cff840f0","getCharacterCard(uint256)":"1164b992","getHealth(uint256)":"3fc70f2c","getPriority(uint256)":"763d0f62","isApprovedForAll(address,address)":"e985e9c5","isInGame(uint256)":"d2b325f4","mintCard(int8,int8,address,uint256,uint8,uint8)":"6eb3d828","name()":"06fdde03","ownerOf(uint256)":"6352211e","safeTransferFrom(address,address,uint256)":"42842e0e","safeTransferFrom(address,address,uint256,bytes)":"b88d4fde","setApprovalForAll(address,bool)":"a22cb465","setGameLogicAdress(address)":"36f08084","supportsInterface(bytes4)":"01ffc9a7","symbol()":"95d89b41","tokenURI(uint256)":"c87b56dd","transferFrom(address,address,uint256)":"23b872dd"}}}}}