{"contracts/ExPopulusCardGameLogic.sol":{"ExPopulusCardGameLogic":{"abi":[{"inputs":[{"internalType":"address","name":"_rewardTokenAddres","type":"address"},{"internalType":"address","name":"_cardContractAddress","type":"address"},{"internalType":"address","name":"_initialOwner","type":"address"}],"stateMutability":"nonpayable","type":"constructor"},{"inputs":[],"name":"CantClaimRewards","type":"error"},{"inputs":[],"name":"CantUseTheSameCardTwice","type":"error"},{"inputs":[],"name":"InactiveOrPausedBattleField","type":"error"},{"inputs":[],"name":"NotEnoughEnemyCards","type":"error"},{"inputs":[],"name":"OnlyCardOwner","type":"error"},{"inputs":[{"internalType":"address","name":"owner","type":"address"}],"name":"OwnableInvalidOwner","type":"error"},{"inputs":[{"internalType":"address","name":"account","type":"address"}],"name":"OwnableUnauthorizedAccount","type":"error"},{"inputs":[],"name":"RewardsClaimedAlready","type":"error"},{"anonymous":false,"inputs":[{"indexed":false,"internalType":"uint256","name":"fieldID","type":"uint256"}],"name":"BattleFieldCreated","type":"event"},{"anonymous":false,"inputs":[{"indexed":false,"internalType":"uint256","name":"card1","type":"uint256"},{"indexed":false,"internalType":"uint256","name":"card2","type":"uint256"},{"indexed":false,"internalType":"uint256","name":"card3","type":"uint256"},{"indexed":false,"internalType":"uint256","name":"fieldID","type":"uint256"}],"name":"EnemyCardsGenerated","type":"event"},{"anonymous":false,"inputs":[{"indexed":false,"internalType":"uint256","name":"fieldID","type":"uint256"},{"indexed":false,"internalType":"uint256","name":"playerID","type":"uint256"}],"name":"EnteredBattle","type":"event"},{"anonymous":false,"inputs":[{"indexed":true,"internalType":"address","name":"previousOwner","type":"address"},{"indexed":true,"internalType":"address","name":"newOwner","type":"address"}],"name":"OwnershipTransferred","type":"event"},{"anonymous":false,"inputs":[{"indexed":false,"internalType":"uint256","name":"fieldID","type":"uint256"},{"indexed":false,"internalType":"uint256","name":"playerID","type":"uint256"},{"indexed":false,"internalType":"uint256","name":"startTime","type":"uint256"}],"name":"PlayerEnteredBattle","type":"event"},{"anonymous":false,"inputs":[{"indexed":false,"internalType":"address","name":"player","type":"address"},{"indexed":false,"internalType":"uint256","name":"amount","type":"uint256"}],"name":"RewardsClaimed","type":"event"},{"anonymous":false,"inputs":[{"indexed":false,"internalType":"uint256","name":"fieldID","type":"uint256"},{"indexed":false,"internalType":"uint256","name":"timestamp","type":"uint256"}],"name":"RoundFinished","type":"event"},{"inputs":[],"name":"REWARD_TOKEN","outputs":[{"internalType":"contract IERC20","name":"","type":"address"}],"stateMutability":"view","type":"function"},{"inputs":[{"internalType":"uint256","name":"fieldID","type":"uint256"},{"internalType":"uint256","name":"card1","type":"uint256"},{"internalType":"uint256","name":"card2","type":"uint256"},{"internalType":"uint256","name":"card3","type":"uint256"}],"name":"battle","outputs":[],"stateMutability":"nonpayable","type":"function"},{"inputs":[{"internalType":"uint256","name":"fieldID","type":"uint256"},{"internalType":"uint256","name":"playerID","type":"uint256"}],"name":"claimRewards","outputs":[],"stateMutability":"nonpayable","type":"function"},{"inputs":[{"internalType":"uint256","name":"playerID","type":"uint256"}],"name":"createBattlefield","outputs":[{"internalType":"uint256","name":"","type":"uint256"}],"stateMutability":"nonpayable","type":"function"},{"inputs":[{"internalType":"uint256","name":"fieldID","type":"uint256"},{"internalType":"uint256","name":"card1","type":"uint256"},{"internalType":"uint256","name":"card2","type":"uint256"},{"internalType":"uint256","name":"card3","type":"uint256"}],"name":"enterBattle","outputs":[{"internalType":"uint256","name":"","type":"uint256"}],"stateMutability":"nonpayable","type":"function"},{"inputs":[{"internalType":"uint256","name":"card1","type":"uint256"},{"internalType":"uint256","name":"card2","type":"uint256"},{"internalType":"uint256","name":"card3","type":"uint256"},{"internalType":"uint256","name":"fieldID","type":"uint256"}],"name":"generateEnemyCards","outputs":[],"stateMutability":"nonpayable","type":"function"},{"inputs":[{"internalType":"uint256","name":"fieldID","type":"uint256"}],"name":"getBattleDetails","outputs":[],"stateMutability":"view","type":"function"},{"inputs":[{"internalType":"uint256","name":"fieldID","type":"uint256"}],"name":"getBattleField","outputs":[{"components":[{"internalType":"uint256","name":"playerID","type":"uint256"},{"internalType":"uint256","name":"battleStartTime","type":"uint256"},{"internalType":"uint256","name":"battleEndTime","type":"uint256"},{"internalType":"uint256[]","name":"enemyCards","type":"uint256[]"},{"internalType":"bytes32[]","name":"roundDetails","type":"bytes32[]"},{"internalType":"enum ExPopulusCardGameLogic.FieldStatus","name":"status","type":"uint8"},{"internalType":"enum ExPopulusCardGameLogic.GameResult","name":"result","type":"uint8"},{"internalType":"bool","name":"rewardsClaimed","type":"bool"}],"internalType":"struct ExPopulusCardGameLogic.BattleField","name":"","type":"tuple"}],"stateMutability":"view","type":"function"},{"inputs":[],"name":"getCardAddress","outputs":[{"internalType":"address","name":"","type":"address"}],"stateMutability":"view","type":"function"},{"inputs":[{"internalType":"uint256","name":"playerID","type":"uint256"}],"name":"getPlayer","outputs":[{"components":[{"internalType":"address","name":"wallet","type":"address"},{"internalType":"uint256","name":"battleFieldID","type":"uint256"},{"internalType":"bool","name":"isActive","type":"bool"},{"internalType":"uint256[]","name":"cardsInHand","type":"uint256[]"},{"internalType":"uint256","name":"winstreak","type":"uint256"},{"internalType":"uint256","name":"rewardsEarned","type":"uint256"}],"internalType":"struct ExPopulusCardGameLogic.Player","name":"","type":"tuple"}],"stateMutability":"view","type":"function"},{"inputs":[],"name":"owner","outputs":[{"internalType":"address","name":"","type":"address"}],"stateMutability":"view","type":"function"},{"inputs":[],"name":"renounceOwnership","outputs":[],"stateMutability":"nonpayable","type":"function"},{"inputs":[{"internalType":"address","name":"newOwner","type":"address"}],"name":"transferOwnership","outputs":[],"stateMutability":"nonpayable","type":"function"}],"evm":{"bytecode":{"linkReferences":{},"object":"6080346100f057601f620015d338819003918201601f19168301916001600160401b038311848410176100f5578084926060946040528339810103126100f0576100488161010b565b9060406100576020830161010b565b916001600160a01b0391829161006d910161010b565b169182156100d757816000549460018060a01b03199480868816176000558260405197167f8be0079c531659141344cd1fd0a4f28419497f9722a3daafe3b4186f6b6457e0600080a316836002541617600255169060015416176001556114b39081620001208239f35b604051631e4fbdf760e01b815260006004820152602490fd5b600080fd5b634e487b7160e01b600052604160045260246000fd5b51906001600160a01b03821682036100f05756fe608080604052600436101561001357600080fd5b60003560e01c908163594dd43214610f655750806370d00c7714610f3e578063715018a614610ed85780637a8075a3146107db5780638517e7d61461076a5780638da5cb5b1461074357806399248ea71461071c578063b7044c39146106a1578063b8755343146104dd578063cd6dd5e114610268578063e55ae4e814610173578063f0e26f80146101605763f2fde38b146100ae57600080fd5b3461015b57602036600319011261015b576004356001600160a01b0380821680920361015b576100dc6112c1565b811561012a576000548273ffffffffffffffffffffffffffffffffffffffff19821617600055167f8be0079c531659141344cd1fd0a4f28419497f9722a3daafe3b4186f6b6457e0600080a3005b60246040517f1e4fbdf700000000000000000000000000000000000000000000000000000000815260006004820152fd5b600080fd5b3461015b57602036600319011261015b57005b3461015b5760208060031936011261015b57600060a060405161019581611322565b82815282848201528260408201526060808201528260808201520152600435600052600681526040600020604051906101cd82611322565b6001600160a01b0392838254168352610257600183015482850190815260ff60028501541660408601901515815261020760038601611360565b916060870192835260056004870154966080890197885201549460a08801958652604051988998828a5251169088015251604087015251151560608601525160c0608086015260e085019061126d565b915160a08401525160c08301520390f35b3461015b576102763661124f565b90916001600160a01b039360019385855416604051967f6352211e00000000000000000000000000000000000000000000000000000000918289528560048a01526020988981602481855afa908115610462578a9184916000916104c0575b5016331415938461046e575b84610400575b505050506103d6577f620f0ed05d46ba10787e67d2a336868d61f9ce492ccde631907d128de642085b936060936103926103979388600454018060045560005260068a5260406000203373ffffffffffffffffffffffffffffffffffffffff1982541617905560045460005285896040600020015560045460005260026040600020018960ff1982541617905560045460005261038c6003604060002001938461141b565b8261141b565b61141b565b806000526007855260406000209342818601556004548095556003546000526040600020015460405191825284868301526040820152a1604051908152f35b60046040517f8e216073000000000000000000000000000000000000000000000000000000008152fd5b909192935060246040518094819382528a60048301525afa90811561046257600091610435575b5016331415878088816102e7565b6104559150883d8a1161045b575b61044d818361133e565b810190611446565b88610427565b503d610443565b6040513d6000823e3d90fd5b9350506040518381528460048201528981602481855afa908115610462578a9184916000916104a3575b5016331415936102e1565b6104ba9150833d851161045b5761044d818361133e565b8c610498565b6104d79150833d851161045b5761044d818361133e565b8c6102d5565b3461015b5760208060031936011261015b57600060e06040516104ff81611305565b8281528284820152826040820152606080820152606060808201528260a08201528260c082015201526004356000526007815260406000206040519061054482611305565b80548252600192838201548184019081526002830154906040850191825261056e60038501611360565b91606086019283526004850194604051958686825491828152019160005286600020908a60005b82811061068e5750505050906105af87600593038861133e565b6080880196875201549260a087019160ff85166105cb816112a1565b835260ff8560081c169360c08901946105e3816112a1565b855260ff60e08a019660101c161515865260405198878a5251878a01525160408901525160608801525193610626610100958660808a015261012089019061126d565b9551878703601f190160a08901528051808852968201969082019160005b82811061067b57505050508596505161065c816112a1565b60c08601525161066b816112a1565b60e0850152511515908301520390f35b8351895297810197928101928a01610644565b8354855293890193928101928101610595565b3461015b577fb3181c21c7390851c911b2f39a61aef36d5fb6112a44ceff437e44cfa9396d4c60806106d23661124f565b916106db6112c1565b8260005260076020526107048260036040600020016106fa878261141b565b610392848261141b565b604051938452602084015260408301526060820152a1005b3461015b57600036600319011261015b5760206001600160a01b0360025416604051908152f35b3461015b57600036600319011261015b5760206001600160a01b0360005416604051908152f35b3461015b57602036600319011261015b576107836112c1565b600160035401806003556000526007602052600560406000200160ff19815416905560206003547f95e54cd418a6f7033a8fb10f82e32a066e6d83a5397d091d2a2dee75ef1349e482604051838152a1604051908152f35b3461015b576107e93661124f565b50505080600052600760205260406000209060ff600583549301541661080e816112a1565b610eae5780600052600760205261082b6003604060002001611360565b906003825110610e845782600052600660205261084e6003604060002001611360565b916000806001600554016005555b8451811080610e7a575b15610e785761087581866113b1565b5161088083856113b1565b51906001600160a01b03600154169160405190630cff840f60e41b8252826004830152602082602481875afa91821561046257600092610e44575b5060405190630ff1c3cb60e21b8252836004830152602082602481885afa91821561046257600092610e10575b5060405193630cff840f60e41b8552816004860152602085602481895afa94851561046257600095610ddc575b5060405195630ff1c3cb60e21b8752826004880152602087602481845afa96871561046257600097610da8575b506005549182600052600960205260ff60036040600020015460081c1615610d2f575b505050600554908160005260ff60016040600020015460081c1615610ca2575b50509061099760009361099d936113db565b936113db565b9113158080610c97575b15610a105750506109ba6109c0916113f4565b916113f4565b90845181101580610a05575b6109e2576109ba6109dc916113f4565b9061085c565b5050506000908152600760205260409020600501805461ff001916610200179055005b5082518210156109cc565b15610a745750610a1f906113f4565b8451811015610a34576109ba6109dc916113f4565b5050509050600052600760205260406000206005810161010061ff0019825416179055600242910155600052600660205260006004604082200155600080f35b60001215610a89575b6109ba6109dc916113f4565b90610a93906113f4565b908251821015610c425760055480600052600960205260406000208054906001810154906003600282015491015491604051938460e081011067ffffffffffffffff60e087011117610c2c5760e085016040528452602084019160ff82161515835260ff604086019260081c161515825260609081860190815260808087019360ff87161515855260a09360ff858a019860081c161515885260c096878a0199428b526040519b60208d01525160408c0152511515908a01525115159088015251908601525115159084015251151560e083015251610100908183015281528061012081011067ffffffffffffffff61012083011117610c2c576101208101604052602081519101209084600052600760205260046040600020019081549268010000000000000000841015610c2c57610bf3610bdc856109ba9560016109dc98018155611403565b819391549060031b91821b91600019901b19161790565b90557f8aba4bf97c53cd5124a16826906cf29c99e37b45dcaccff77292ab676a81b52760408051888152426020820152a1915050610a7d565b634e487b7160e01b600052604160045260246000fd5b50505090506000526007602052600560406000200161ff001981541690556000526006602052600460406000200180549060018201809211610c815755005b634e487b7160e01b600052601160045260246000fd5b5060008213156109a7565b60206001600160a01b03600154169160246040518094819363cc56f2d360e01b835260048301525afa801561046257610cfe575b506000908152600960205260408120600101805461ff00191661010017905561099790610985565b602090819493943d8311610d28575b610d17818361133e565b8101031261015b578b929192610cd6565b503d610d0d565b60209060246040518094819363cc56f2d360e01b835260048301525afa801561046257610d7d575b506000526009602052600360406000200161010061ff00198254161790558b8080610965565b602090813d8311610da1575b610d93818361133e565b8101031261015b578c610d57565b503d610d89565b9096506020813d602011610dd4575b81610dc46020938361133e565b8101031261015b5751958d610942565b3d9150610db7565b9094506020813d602011610e08575b81610df86020938361133e565b8101031261015b5751938c610915565b3d9150610deb565b9091506020813d602011610e3c575b81610e2c6020938361133e565b8101031261015b5751908b6108e8565b3d9150610e1f565b9091506020813d602011610e70575b81610e606020938361133e565b8101031261015b5751908a6108bb565b3d9150610e53565b005b5082518210610866565b60046040517f1b971d6b000000000000000000000000000000000000000000000000000000008152fd5b60046040517f7bf33c88000000000000000000000000000000000000000000000000000000008152fd5b3461015b57600036600319011261015b57610ef16112c1565b60006001600160a01b03815473ffffffffffffffffffffffffffffffffffffffff1981168355167f8be0079c531659141344cd1fd0a4f28419497f9722a3daafe3b4186f6b6457e08280a3005b3461015b57600036600319011261015b5760206001600160a01b0360015416604051908152f35b3461015b57604036600319011261015b5760043590816000526007916020918383526024356040600020540361122757508060005282825260ff60056040600020015460101c166111fd576001600160a01b039060008383600254166044604051809481937f095ea7b3000000000000000000000000000000000000000000000000000000008352306004840152811960248401525af18015610462576111e0575b508060005283835260406000205460005260068352600460406000200154928160005284815260056040600020016201000062ff0000198254161790556005840615600014611162576103e893848102948186041490151715610c81576110bf9481858560025416856000528383526040600020546000526006835286604060002054166000604051809b8195829463a9059cbb60e01b845260048401602090939291936001600160a01b0360408201951681520152565b03925af1928315610462577ffc30cddea38e2bf4d6ea7d3f9ed3b6ad7f176419f4963bd81318067a4aee73fe96600694611135575b506000528152604060002054600052526040600020541661113060405192839283602090939291936001600160a01b0360408201951681520152565b0390a1005b61115490843d861161115b575b61114c818361133e565b810190611465565b50876110f4565b503d611142565b606484959402938515868604606414811715610c8157846002541696846000528284526040600020546000526006845285604060002054169160648280020291820488141715610c815760405163a9059cbb60e01b81526001600160a01b0390921660048301526024820152958290879081600081604481016110bf565b6111f690843d861161115b5761114c818361133e565b5084611007565b60046040517f375423bd000000000000000000000000000000000000000000000000000000008152fd5b807f9e55a17c0000000000000000000000000000000000000000000000000000000060049252fd5b608090600319011261015b5760043590602435906044359060643590565b90815180825260208080930193019160005b82811061128d575050505090565b83518552938101939281019260010161127f565b600311156112ab57565b634e487b7160e01b600052602160045260246000fd5b6001600160a01b036000541633036112d557565b60246040517f118cdaa7000000000000000000000000000000000000000000000000000000008152336004820152fd5b610100810190811067ffffffffffffffff821117610c2c57604052565b60c0810190811067ffffffffffffffff821117610c2c57604052565b90601f8019910116810190811067ffffffffffffffff821117610c2c57604052565b9060405191828154918282526020928383019160005283600020936000905b828210611397575050506113959250038361133e565b565b85548452600195860195889550938101939091019061137f565b80518210156113c55760209160051b010190565b634e487b7160e01b600052603260045260246000fd5b81810392916000138015828513169184121617610c8157565b6000198114610c815760010190565b80548210156113c55760005260206000200190600090565b80549068010000000000000000821015610c2c5781610bdc91600161144294018155611403565b9055565b9081602091031261015b57516001600160a01b038116810361015b5790565b9081602091031261015b5751801515810361015b579056fea2646970667358221220a3cbb5c590befd67c037aacea5d04840b14fec8eba12c384fdcc8c507c4dd8ba64736f6c63430008140033","opcodes":"PUSH1 0x80 CALLVALUE PUSH2 0xF0 JUMPI PUSH1 0x1F PUSH3 0x15D3 CODESIZE DUP2 SWAP1 SUB SWAP2 DUP3 ADD PUSH1 0x1F NOT AND DUP4 ADD SWAP2 PUSH1 0x1 PUSH1 0x1 PUSH1 0x40 SHL SUB DUP4 GT DUP5 DUP5 LT OR PUSH2 0xF5 JUMPI DUP1 DUP5 SWAP3 PUSH1 0x60 SWAP5 PUSH1 0x40 MSTORE DUP4 CODECOPY DUP2 ADD SUB SLT PUSH2 0xF0 JUMPI PUSH2 0x48 DUP2 PUSH2 0x10B JUMP JUMPDEST SWAP1 PUSH1 0x40 PUSH2 0x57 PUSH1 0x20 DUP4 ADD PUSH2 0x10B JUMP JUMPDEST SWAP2 PUSH1 0x1 PUSH1 0x1 PUSH1 0xA0 SHL SUB SWAP2 DUP3 SWAP2 PUSH2 0x6D SWAP2 ADD PUSH2 0x10B JUMP JUMPDEST AND SWAP2 DUP3 ISZERO PUSH2 0xD7 JUMPI DUP2 PUSH1 0x0 SLOAD SWAP5 PUSH1 0x1 DUP1 PUSH1 0xA0 SHL SUB NOT SWAP5 DUP1 DUP7 DUP9 AND OR PUSH1 0x0 SSTORE DUP3 PUSH1 0x40 MLOAD SWAP8 AND PUSH32 0x8BE0079C531659141344CD1FD0A4F28419497F9722A3DAAFE3B4186F6B6457E0 PUSH1 0x0 DUP1 LOG3 AND DUP4 PUSH1 0x2 SLOAD AND OR PUSH1 0x2 SSTORE AND SWAP1 PUSH1 0x1 SLOAD AND OR PUSH1 0x1 SSTORE PUSH2 0x14B3 SWAP1 DUP2 PUSH3 0x120 DUP3 CODECOPY RETURN JUMPDEST PUSH1 0x40 MLOAD PUSH4 0x1E4FBDF7 PUSH1 0xE0 SHL DUP2 MSTORE PUSH1 0x0 PUSH1 0x4 DUP3 ADD MSTORE PUSH1 0x24 SWAP1 REVERT JUMPDEST PUSH1 0x0 DUP1 REVERT JUMPDEST PUSH4 0x4E487B71 PUSH1 0xE0 SHL PUSH1 0x0 MSTORE PUSH1 0x41 PUSH1 0x4 MSTORE PUSH1 0x24 PUSH1 0x0 REVERT JUMPDEST MLOAD SWAP1 PUSH1 0x1 PUSH1 0x1 PUSH1 0xA0 SHL SUB DUP3 AND DUP3 SUB PUSH2 0xF0 JUMPI JUMP INVALID PUSH1 0x80 DUP1 PUSH1 0x40 MSTORE PUSH1 0x4 CALLDATASIZE LT ISZERO PUSH2 0x13 JUMPI PUSH1 0x0 DUP1 REVERT JUMPDEST PUSH1 0x0 CALLDATALOAD PUSH1 0xE0 SHR SWAP1 DUP2 PUSH4 0x594DD432 EQ PUSH2 0xF65 JUMPI POP DUP1 PUSH4 0x70D00C77 EQ PUSH2 0xF3E JUMPI DUP1 PUSH4 0x715018A6 EQ PUSH2 0xED8 JUMPI DUP1 PUSH4 0x7A8075A3 EQ PUSH2 0x7DB JUMPI DUP1 PUSH4 0x8517E7D6 EQ PUSH2 0x76A JUMPI DUP1 PUSH4 0x8DA5CB5B EQ PUSH2 0x743 JUMPI DUP1 PUSH4 0x99248EA7 EQ PUSH2 0x71C JUMPI DUP1 PUSH4 0xB7044C39 EQ PUSH2 0x6A1 JUMPI DUP1 PUSH4 0xB8755343 EQ PUSH2 0x4DD JUMPI DUP1 PUSH4 0xCD6DD5E1 EQ PUSH2 0x268 JUMPI DUP1 PUSH4 0xE55AE4E8 EQ PUSH2 0x173 JUMPI DUP1 PUSH4 0xF0E26F80 EQ PUSH2 0x160 JUMPI PUSH4 0xF2FDE38B EQ PUSH2 0xAE JUMPI PUSH1 0x0 DUP1 REVERT JUMPDEST CALLVALUE PUSH2 0x15B JUMPI PUSH1 0x20 CALLDATASIZE PUSH1 0x3 NOT ADD SLT PUSH2 0x15B JUMPI PUSH1 0x4 CALLDATALOAD PUSH1 0x1 PUSH1 0x1 PUSH1 0xA0 SHL SUB DUP1 DUP3 AND DUP1 SWAP3 SUB PUSH2 0x15B JUMPI PUSH2 0xDC PUSH2 0x12C1 JUMP JUMPDEST DUP2 ISZERO PUSH2 0x12A JUMPI PUSH1 0x0 SLOAD DUP3 PUSH20 0xFFFFFFFFFFFFFFFFFFFFFFFFFFFFFFFFFFFFFFFF NOT DUP3 AND OR PUSH1 0x0 SSTORE AND PUSH32 0x8BE0079C531659141344CD1FD0A4F28419497F9722A3DAAFE3B4186F6B6457E0 PUSH1 0x0 DUP1 LOG3 STOP JUMPDEST PUSH1 0x24 PUSH1 0x40 MLOAD PUSH32 0x1E4FBDF700000000000000000000000000000000000000000000000000000000 DUP2 MSTORE PUSH1 0x0 PUSH1 0x4 DUP3 ADD MSTORE REVERT JUMPDEST PUSH1 0x0 DUP1 REVERT JUMPDEST CALLVALUE PUSH2 0x15B JUMPI PUSH1 0x20 CALLDATASIZE PUSH1 0x3 NOT ADD SLT PUSH2 0x15B JUMPI STOP JUMPDEST CALLVALUE PUSH2 0x15B JUMPI PUSH1 0x20 DUP1 PUSH1 0x3 NOT CALLDATASIZE ADD SLT PUSH2 0x15B JUMPI PUSH1 0x0 PUSH1 0xA0 PUSH1 0x40 MLOAD PUSH2 0x195 DUP2 PUSH2 0x1322 JUMP JUMPDEST DUP3 DUP2 MSTORE DUP3 DUP5 DUP3 ADD MSTORE DUP3 PUSH1 0x40 DUP3 ADD MSTORE PUSH1 0x60 DUP1 DUP3 ADD MSTORE DUP3 PUSH1 0x80 DUP3 ADD MSTORE ADD MSTORE PUSH1 0x4 CALLDATALOAD PUSH1 0x0 MSTORE PUSH1 0x6 DUP2 MSTORE PUSH1 0x40 PUSH1 0x0 KECCAK256 PUSH1 0x40 MLOAD SWAP1 PUSH2 0x1CD DUP3 PUSH2 0x1322 JUMP JUMPDEST PUSH1 0x1 PUSH1 0x1 PUSH1 0xA0 SHL SUB SWAP3 DUP4 DUP3 SLOAD AND DUP4 MSTORE PUSH2 0x257 PUSH1 0x1 DUP4 ADD SLOAD DUP3 DUP6 ADD SWAP1 DUP2 MSTORE PUSH1 0xFF PUSH1 0x2 DUP6 ADD SLOAD AND PUSH1 0x40 DUP7 ADD SWAP1 ISZERO ISZERO DUP2 MSTORE PUSH2 0x207 PUSH1 0x3 DUP7 ADD PUSH2 0x1360 JUMP JUMPDEST SWAP2 PUSH1 0x60 DUP8 ADD SWAP3 DUP4 MSTORE PUSH1 0x5 PUSH1 0x4 DUP8 ADD SLOAD SWAP7 PUSH1 0x80 DUP10 ADD SWAP8 DUP9 MSTORE ADD SLOAD SWAP5 PUSH1 0xA0 DUP9 ADD SWAP6 DUP7 MSTORE PUSH1 0x40 MLOAD SWAP9 DUP10 SWAP9 DUP3 DUP11 MSTORE MLOAD AND SWAP1 DUP9 ADD MSTORE MLOAD PUSH1 0x40 DUP8 ADD MSTORE MLOAD ISZERO ISZERO PUSH1 0x60 DUP7 ADD MSTORE MLOAD PUSH1 0xC0 PUSH1 0x80 DUP7 ADD MSTORE PUSH1 0xE0 DUP6 ADD SWAP1 PUSH2 0x126D JUMP JUMPDEST SWAP2 MLOAD PUSH1 0xA0 DUP5 ADD MSTORE MLOAD PUSH1 0xC0 DUP4 ADD MSTORE SUB SWAP1 RETURN JUMPDEST CALLVALUE PUSH2 0x15B JUMPI PUSH2 0x276 CALLDATASIZE PUSH2 0x124F JUMP JUMPDEST SWAP1 SWAP2 PUSH1 0x1 PUSH1 0x1 PUSH1 0xA0 SHL SUB SWAP4 PUSH1 0x1 SWAP4 DUP6 DUP6 SLOAD AND PUSH1 0x40 MLOAD SWAP7 PUSH32 0x6352211E00000000000000000000000000000000000000000000000000000000 SWAP2 DUP3 DUP10 MSTORE DUP6 PUSH1 0x4 DUP11 ADD MSTORE PUSH1 0x20 SWAP9 DUP10 DUP2 PUSH1 0x24 DUP2 DUP6 GAS STATICCALL SWAP1 DUP2 ISZERO PUSH2 0x462 JUMPI DUP11 SWAP2 DUP5 SWAP2 PUSH1 0x0 SWAP2 PUSH2 0x4C0 JUMPI JUMPDEST POP AND CALLER EQ ISZERO SWAP4 DUP5 PUSH2 0x46E JUMPI JUMPDEST DUP5 PUSH2 0x400 JUMPI JUMPDEST POP POP POP POP PUSH2 0x3D6 JUMPI PUSH32 0x620F0ED05D46BA10787E67D2A336868D61F9CE492CCDE631907D128DE642085B SWAP4 PUSH1 0x60 SWAP4 PUSH2 0x392 PUSH2 0x397 SWAP4 DUP9 PUSH1 0x4 SLOAD ADD DUP1 PUSH1 0x4 SSTORE PUSH1 0x0 MSTORE PUSH1 0x6 DUP11 MSTORE PUSH1 0x40 PUSH1 0x0 KECCAK256 CALLER PUSH20 0xFFFFFFFFFFFFFFFFFFFFFFFFFFFFFFFFFFFFFFFF NOT DUP3 SLOAD AND OR SWAP1 SSTORE PUSH1 0x4 SLOAD PUSH1 0x0 MSTORE DUP6 DUP10 PUSH1 0x40 PUSH1 0x0 KECCAK256 ADD SSTORE PUSH1 0x4 SLOAD PUSH1 0x0 MSTORE PUSH1 0x2 PUSH1 0x40 PUSH1 0x0 KECCAK256 ADD DUP10 PUSH1 0xFF NOT DUP3 SLOAD AND OR SWAP1 SSTORE PUSH1 0x4 SLOAD PUSH1 0x0 MSTORE PUSH2 0x38C PUSH1 0x3 PUSH1 0x40 PUSH1 0x0 KECCAK256 ADD SWAP4 DUP5 PUSH2 0x141B JUMP JUMPDEST DUP3 PUSH2 0x141B JUMP JUMPDEST PUSH2 0x141B JUMP JUMPDEST DUP1 PUSH1 0x0 MSTORE PUSH1 0x7 DUP6 MSTORE PUSH1 0x40 PUSH1 0x0 KECCAK256 SWAP4 TIMESTAMP DUP2 DUP7 ADD SSTORE PUSH1 0x4 SLOAD DUP1 SWAP6 SSTORE PUSH1 0x3 SLOAD PUSH1 0x0 MSTORE PUSH1 0x40 PUSH1 0x0 KECCAK256 ADD SLOAD PUSH1 0x40 MLOAD SWAP2 DUP3 MSTORE DUP5 DUP7 DUP4 ADD MSTORE PUSH1 0x40 DUP3 ADD MSTORE LOG1 PUSH1 0x40 MLOAD SWAP1 DUP2 MSTORE RETURN JUMPDEST PUSH1 0x4 PUSH1 0x40 MLOAD PUSH32 0x8E21607300000000000000000000000000000000000000000000000000000000 DUP2 MSTORE REVERT JUMPDEST SWAP1 SWAP2 SWAP3 SWAP4 POP PUSH1 0x24 PUSH1 0x40 MLOAD DUP1 SWAP5 DUP2 SWAP4 DUP3 MSTORE DUP11 PUSH1 0x4 DUP4 ADD MSTORE GAS STATICCALL SWAP1 DUP2 ISZERO PUSH2 0x462 JUMPI PUSH1 0x0 SWAP2 PUSH2 0x435 JUMPI JUMPDEST POP AND CALLER EQ ISZERO DUP8 DUP1 DUP9 DUP2 PUSH2 0x2E7 JUMP JUMPDEST PUSH2 0x455 SWAP2 POP DUP9 RETURNDATASIZE DUP11 GT PUSH2 0x45B JUMPI JUMPDEST PUSH2 0x44D DUP2 DUP4 PUSH2 0x133E JUMP JUMPDEST DUP2 ADD SWAP1 PUSH2 0x1446 JUMP JUMPDEST DUP9 PUSH2 0x427 JUMP JUMPDEST POP RETURNDATASIZE PUSH2 0x443 JUMP JUMPDEST PUSH1 0x40 MLOAD RETURNDATASIZE PUSH1 0x0 DUP3 RETURNDATACOPY RETURNDATASIZE SWAP1 REVERT JUMPDEST SWAP4 POP POP PUSH1 0x40 MLOAD DUP4 DUP2 MSTORE DUP5 PUSH1 0x4 DUP3 ADD MSTORE DUP10 DUP2 PUSH1 0x24 DUP2 DUP6 GAS STATICCALL SWAP1 DUP2 ISZERO PUSH2 0x462 JUMPI DUP11 SWAP2 DUP5 SWAP2 PUSH1 0x0 SWAP2 PUSH2 0x4A3 JUMPI JUMPDEST POP AND CALLER EQ ISZERO SWAP4 PUSH2 0x2E1 JUMP JUMPDEST PUSH2 0x4BA SWAP2 POP DUP4 RETURNDATASIZE DUP6 GT PUSH2 0x45B JUMPI PUSH2 0x44D DUP2 DUP4 PUSH2 0x133E JUMP JUMPDEST DUP13 PUSH2 0x498 JUMP JUMPDEST PUSH2 0x4D7 SWAP2 POP DUP4 RETURNDATASIZE DUP6 GT PUSH2 0x45B JUMPI PUSH2 0x44D DUP2 DUP4 PUSH2 0x133E JUMP JUMPDEST DUP13 PUSH2 0x2D5 JUMP JUMPDEST CALLVALUE PUSH2 0x15B JUMPI PUSH1 0x20 DUP1 PUSH1 0x3 NOT CALLDATASIZE ADD SLT PUSH2 0x15B JUMPI PUSH1 0x0 PUSH1 0xE0 PUSH1 0x40 MLOAD PUSH2 0x4FF DUP2 PUSH2 0x1305 JUMP JUMPDEST DUP3 DUP2 MSTORE DUP3 DUP5 DUP3 ADD MSTORE DUP3 PUSH1 0x40 DUP3 ADD MSTORE PUSH1 0x60 DUP1 DUP3 ADD MSTORE PUSH1 0x60 PUSH1 0x80 DUP3 ADD MSTORE DUP3 PUSH1 0xA0 DUP3 ADD MSTORE DUP3 PUSH1 0xC0 DUP3 ADD MSTORE ADD MSTORE PUSH1 0x4 CALLDATALOAD PUSH1 0x0 MSTORE PUSH1 0x7 DUP2 MSTORE PUSH1 0x40 PUSH1 0x0 KECCAK256 PUSH1 0x40 MLOAD SWAP1 PUSH2 0x544 DUP3 PUSH2 0x1305 JUMP JUMPDEST DUP1 SLOAD DUP3 MSTORE PUSH1 0x1 SWAP3 DUP4 DUP3 ADD SLOAD DUP2 DUP5 ADD SWAP1 DUP2 MSTORE PUSH1 0x2 DUP4 ADD SLOAD SWAP1 PUSH1 0x40 DUP6 ADD SWAP2 DUP3 MSTORE PUSH2 0x56E PUSH1 0x3 DUP6 ADD PUSH2 0x1360 JUMP JUMPDEST SWAP2 PUSH1 0x60 DUP7 ADD SWAP3 DUP4 MSTORE PUSH1 0x4 DUP6 ADD SWAP5 PUSH1 0x40 MLOAD SWAP6 DUP7 DUP7 DUP3 SLOAD SWAP2 DUP3 DUP2 MSTORE ADD SWAP2 PUSH1 0x0 MSTORE DUP7 PUSH1 0x0 KECCAK256 SWAP1 DUP11 PUSH1 0x0 JUMPDEST DUP3 DUP2 LT PUSH2 0x68E JUMPI POP POP POP POP SWAP1 PUSH2 0x5AF DUP8 PUSH1 0x5 SWAP4 SUB DUP9 PUSH2 0x133E JUMP JUMPDEST PUSH1 0x80 DUP9 ADD SWAP7 DUP8 MSTORE ADD SLOAD SWAP3 PUSH1 0xA0 DUP8 ADD SWAP2 PUSH1 0xFF DUP6 AND PUSH2 0x5CB DUP2 PUSH2 0x12A1 JUMP JUMPDEST DUP4 MSTORE PUSH1 0xFF DUP6 PUSH1 0x8 SHR AND SWAP4 PUSH1 0xC0 DUP10 ADD SWAP5 PUSH2 0x5E3 DUP2 PUSH2 0x12A1 JUMP JUMPDEST DUP6 MSTORE PUSH1 0xFF PUSH1 0xE0 DUP11 ADD SWAP7 PUSH1 0x10 SHR AND ISZERO ISZERO DUP7 MSTORE PUSH1 0x40 MLOAD SWAP9 DUP8 DUP11 MSTORE MLOAD DUP8 DUP11 ADD MSTORE MLOAD PUSH1 0x40 DUP10 ADD MSTORE MLOAD PUSH1 0x60 DUP9 ADD MSTORE MLOAD SWAP4 PUSH2 0x626 PUSH2 0x100 SWAP6 DUP7 PUSH1 0x80 DUP11 ADD MSTORE PUSH2 0x120 DUP10 ADD SWAP1 PUSH2 0x126D JUMP JUMPDEST SWAP6 MLOAD DUP8 DUP8 SUB PUSH1 0x1F NOT ADD PUSH1 0xA0 DUP10 ADD MSTORE DUP1 MLOAD DUP1 DUP9 MSTORE SWAP7 DUP3 ADD SWAP7 SWAP1 DUP3 ADD SWAP2 PUSH1 0x0 JUMPDEST DUP3 DUP2 LT PUSH2 0x67B JUMPI POP POP POP POP DUP6 SWAP7 POP MLOAD PUSH2 0x65C DUP2 PUSH2 0x12A1 JUMP JUMPDEST PUSH1 0xC0 DUP7 ADD MSTORE MLOAD PUSH2 0x66B DUP2 PUSH2 0x12A1 JUMP JUMPDEST PUSH1 0xE0 DUP6 ADD MSTORE MLOAD ISZERO ISZERO SWAP1 DUP4 ADD MSTORE SUB SWAP1 RETURN JUMPDEST DUP4 MLOAD DUP10 MSTORE SWAP8 DUP2 ADD SWAP8 SWAP3 DUP2 ADD SWAP3 DUP11 ADD PUSH2 0x644 JUMP JUMPDEST DUP4 SLOAD DUP6 MSTORE SWAP4 DUP10 ADD SWAP4 SWAP3 DUP2 ADD SWAP3 DUP2 ADD PUSH2 0x595 JUMP JUMPDEST CALLVALUE PUSH2 0x15B JUMPI PUSH32 0xB3181C21C7390851C911B2F39A61AEF36D5FB6112A44CEFF437E44CFA9396D4C PUSH1 0x80 PUSH2 0x6D2 CALLDATASIZE PUSH2 0x124F JUMP JUMPDEST SWAP2 PUSH2 0x6DB PUSH2 0x12C1 JUMP JUMPDEST DUP3 PUSH1 0x0 MSTORE PUSH1 0x7 PUSH1 0x20 MSTORE PUSH2 0x704 DUP3 PUSH1 0x3 PUSH1 0x40 PUSH1 0x0 KECCAK256 ADD PUSH2 0x6FA DUP8 DUP3 PUSH2 0x141B JUMP JUMPDEST PUSH2 0x392 DUP5 DUP3 PUSH2 0x141B JUMP JUMPDEST PUSH1 0x40 MLOAD SWAP4 DUP5 MSTORE PUSH1 0x20 DUP5 ADD MSTORE PUSH1 0x40 DUP4 ADD MSTORE PUSH1 0x60 DUP3 ADD MSTORE LOG1 STOP JUMPDEST CALLVALUE PUSH2 0x15B JUMPI PUSH1 0x0 CALLDATASIZE PUSH1 0x3 NOT ADD SLT PUSH2 0x15B JUMPI PUSH1 0x20 PUSH1 0x1 PUSH1 0x1 PUSH1 0xA0 SHL SUB PUSH1 0x2 SLOAD AND PUSH1 0x40 MLOAD SWAP1 DUP2 MSTORE RETURN JUMPDEST CALLVALUE PUSH2 0x15B JUMPI PUSH1 0x0 CALLDATASIZE PUSH1 0x3 NOT ADD SLT PUSH2 0x15B JUMPI PUSH1 0x20 PUSH1 0x1 PUSH1 0x1 PUSH1 0xA0 SHL SUB PUSH1 0x0 SLOAD AND PUSH1 0x40 MLOAD SWAP1 DUP2 MSTORE RETURN JUMPDEST CALLVALUE PUSH2 0x15B JUMPI PUSH1 0x20 CALLDATASIZE PUSH1 0x3 NOT ADD SLT PUSH2 0x15B JUMPI PUSH2 0x783 PUSH2 0x12C1 JUMP JUMPDEST PUSH1 0x1 PUSH1 0x3 SLOAD ADD DUP1 PUSH1 0x3 SSTORE PUSH1 0x0 MSTORE PUSH1 0x7 PUSH1 0x20 MSTORE PUSH1 0x5 PUSH1 0x40 PUSH1 0x0 KECCAK256 ADD PUSH1 0xFF NOT DUP2 SLOAD AND SWAP1 SSTORE PUSH1 0x20 PUSH1 0x3 SLOAD PUSH32 0x95E54CD418A6F7033A8FB10F82E32A066E6D83A5397D091D2A2DEE75EF1349E4 DUP3 PUSH1 0x40 MLOAD DUP4 DUP2 MSTORE LOG1 PUSH1 0x40 MLOAD SWAP1 DUP2 MSTORE RETURN JUMPDEST CALLVALUE PUSH2 0x15B JUMPI PUSH2 0x7E9 CALLDATASIZE PUSH2 0x124F JUMP JUMPDEST POP POP POP DUP1 PUSH1 0x0 MSTORE PUSH1 0x7 PUSH1 0x20 MSTORE PUSH1 0x40 PUSH1 0x0 KECCAK256 SWAP1 PUSH1 0xFF PUSH1 0x5 DUP4 SLOAD SWAP4 ADD SLOAD AND PUSH2 0x80E DUP2 PUSH2 0x12A1 JUMP JUMPDEST PUSH2 0xEAE JUMPI DUP1 PUSH1 0x0 MSTORE PUSH1 0x7 PUSH1 0x20 MSTORE PUSH2 0x82B PUSH1 0x3 PUSH1 0x40 PUSH1 0x0 KECCAK256 ADD PUSH2 0x1360 JUMP JUMPDEST SWAP1 PUSH1 0x3 DUP3 MLOAD LT PUSH2 0xE84 JUMPI DUP3 PUSH1 0x0 MSTORE PUSH1 0x6 PUSH1 0x20 MSTORE PUSH2 0x84E PUSH1 0x3 PUSH1 0x40 PUSH1 0x0 KECCAK256 ADD PUSH2 0x1360 JUMP JUMPDEST SWAP2 PUSH1 0x0 DUP1 PUSH1 0x1 PUSH1 0x5 SLOAD ADD PUSH1 0x5 SSTORE JUMPDEST DUP5 MLOAD DUP2 LT DUP1 PUSH2 0xE7A JUMPI JUMPDEST ISZERO PUSH2 0xE78 JUMPI PUSH2 0x875 DUP2 DUP7 PUSH2 0x13B1 JUMP JUMPDEST MLOAD PUSH2 0x880 DUP4 DUP6 PUSH2 0x13B1 JUMP JUMPDEST MLOAD SWAP1 PUSH1 0x1 PUSH1 0x1 PUSH1 0xA0 SHL SUB PUSH1 0x1 SLOAD AND SWAP2 PUSH1 0x40 MLOAD SWAP1 PUSH4 0xCFF840F PUSH1 0xE4 SHL DUP3 MSTORE DUP3 PUSH1 0x4 DUP4 ADD MSTORE PUSH1 0x20 DUP3 PUSH1 0x24 DUP2 DUP8 GAS STATICCALL SWAP2 DUP3 ISZERO PUSH2 0x462 JUMPI PUSH1 0x0 SWAP3 PUSH2 0xE44 JUMPI JUMPDEST POP PUSH1 0x40 MLOAD SWAP1 PUSH4 0xFF1C3CB PUSH1 0xE2 SHL DUP3 MSTORE DUP4 PUSH1 0x4 DUP4 ADD MSTORE PUSH1 0x20 DUP3 PUSH1 0x24 DUP2 DUP9 GAS STATICCALL SWAP2 DUP3 ISZERO PUSH2 0x462 JUMPI PUSH1 0x0 SWAP3 PUSH2 0xE10 JUMPI JUMPDEST POP PUSH1 0x40 MLOAD SWAP4 PUSH4 0xCFF840F PUSH1 0xE4 SHL DUP6 MSTORE DUP2 PUSH1 0x4 DUP7 ADD MSTORE PUSH1 0x20 DUP6 PUSH1 0x24 DUP2 DUP10 GAS STATICCALL SWAP5 DUP6 ISZERO PUSH2 0x462 JUMPI PUSH1 0x0 SWAP6 PUSH2 0xDDC JUMPI JUMPDEST POP PUSH1 0x40 MLOAD SWAP6 PUSH4 0xFF1C3CB PUSH1 0xE2 SHL DUP8 MSTORE DUP3 PUSH1 0x4 DUP9 ADD MSTORE PUSH1 0x20 DUP8 PUSH1 0x24 DUP2 DUP5 GAS STATICCALL SWAP7 DUP8 ISZERO PUSH2 0x462 JUMPI PUSH1 0x0 SWAP8 PUSH2 0xDA8 JUMPI JUMPDEST POP PUSH1 0x5 SLOAD SWAP2 DUP3 PUSH1 0x0 MSTORE PUSH1 0x9 PUSH1 0x20 MSTORE PUSH1 0xFF PUSH1 0x3 PUSH1 0x40 PUSH1 0x0 KECCAK256 ADD SLOAD PUSH1 0x8 SHR AND ISZERO PUSH2 0xD2F JUMPI JUMPDEST POP POP POP PUSH1 0x5 SLOAD SWAP1 DUP2 PUSH1 0x0 MSTORE PUSH1 0xFF PUSH1 0x1 PUSH1 0x40 PUSH1 0x0 KECCAK256 ADD SLOAD PUSH1 0x8 SHR AND ISZERO PUSH2 0xCA2 JUMPI JUMPDEST POP POP SWAP1 PUSH2 0x997 PUSH1 0x0 SWAP4 PUSH2 0x99D SWAP4 PUSH2 0x13DB JUMP JUMPDEST SWAP4 PUSH2 0x13DB JUMP JUMPDEST SWAP2 SGT ISZERO DUP1 DUP1 PUSH2 0xC97 JUMPI JUMPDEST ISZERO PUSH2 0xA10 JUMPI POP POP PUSH2 0x9BA PUSH2 0x9C0 SWAP2 PUSH2 0x13F4 JUMP JUMPDEST SWAP2 PUSH2 0x13F4 JUMP JUMPDEST SWAP1 DUP5 MLOAD DUP2 LT ISZERO DUP1 PUSH2 0xA05 JUMPI JUMPDEST PUSH2 0x9E2 JUMPI PUSH2 0x9BA PUSH2 0x9DC SWAP2 PUSH2 0x13F4 JUMP JUMPDEST SWAP1 PUSH2 0x85C JUMP JUMPDEST POP POP POP PUSH1 0x0 SWAP1 DUP2 MSTORE PUSH1 0x7 PUSH1 0x20 MSTORE PUSH1 0x40 SWAP1 KECCAK256 PUSH1 0x5 ADD DUP1 SLOAD PUSH2 0xFF00 NOT AND PUSH2 0x200 OR SWAP1 SSTORE STOP JUMPDEST POP DUP3 MLOAD DUP3 LT ISZERO PUSH2 0x9CC JUMP JUMPDEST ISZERO PUSH2 0xA74 JUMPI POP PUSH2 0xA1F SWAP1 PUSH2 0x13F4 JUMP JUMPDEST DUP5 MLOAD DUP2 LT ISZERO PUSH2 0xA34 JUMPI PUSH2 0x9BA PUSH2 0x9DC SWAP2 PUSH2 0x13F4 JUMP JUMPDEST POP POP POP SWAP1 POP PUSH1 0x0 MSTORE PUSH1 0x7 PUSH1 0x20 MSTORE PUSH1 0x40 PUSH1 0x0 KECCAK256 PUSH1 0x5 DUP2 ADD PUSH2 0x100 PUSH2 0xFF00 NOT DUP3 SLOAD AND OR SWAP1 SSTORE PUSH1 0x2 TIMESTAMP SWAP2 ADD SSTORE PUSH1 0x0 MSTORE PUSH1 0x6 PUSH1 0x20 MSTORE PUSH1 0x0 PUSH1 0x4 PUSH1 0x40 DUP3 KECCAK256 ADD SSTORE PUSH1 0x0 DUP1 RETURN JUMPDEST PUSH1 0x0 SLT ISZERO PUSH2 0xA89 JUMPI JUMPDEST PUSH2 0x9BA PUSH2 0x9DC SWAP2 PUSH2 0x13F4 JUMP JUMPDEST SWAP1 PUSH2 0xA93 SWAP1 PUSH2 0x13F4 JUMP JUMPDEST SWAP1 DUP3 MLOAD DUP3 LT ISZERO PUSH2 0xC42 JUMPI PUSH1 0x5 SLOAD DUP1 PUSH1 0x0 MSTORE PUSH1 0x9 PUSH1 0x20 MSTORE PUSH1 0x40 PUSH1 0x0 KECCAK256 DUP1 SLOAD SWAP1 PUSH1 0x1 DUP2 ADD SLOAD SWAP1 PUSH1 0x3 PUSH1 0x2 DUP3 ADD SLOAD SWAP2 ADD SLOAD SWAP2 PUSH1 0x40 MLOAD SWAP4 DUP5 PUSH1 0xE0 DUP2 ADD LT PUSH8 0xFFFFFFFFFFFFFFFF PUSH1 0xE0 DUP8 ADD GT OR PUSH2 0xC2C JUMPI PUSH1 0xE0 DUP6 ADD PUSH1 0x40 MSTORE DUP5 MSTORE PUSH1 0x20 DUP5 ADD SWAP2 PUSH1 0xFF DUP3 AND ISZERO ISZERO DUP4 MSTORE PUSH1 0xFF PUSH1 0x40 DUP7 ADD SWAP3 PUSH1 0x8 SHR AND ISZERO ISZERO DUP3 MSTORE PUSH1 0x60 SWAP1 DUP2 DUP7 ADD SWAP1 DUP2 MSTORE PUSH1 0x80 DUP1 DUP8 ADD SWAP4 PUSH1 0xFF DUP8 AND ISZERO ISZERO DUP6 MSTORE PUSH1 0xA0 SWAP4 PUSH1 0xFF DUP6 DUP11 ADD SWAP9 PUSH1 0x8 SHR AND ISZERO ISZERO DUP9 MSTORE PUSH1 0xC0 SWAP7 DUP8 DUP11 ADD SWAP10 TIMESTAMP DUP12 MSTORE PUSH1 0x40 MLOAD SWAP12 PUSH1 0x20 DUP14 ADD MSTORE MLOAD PUSH1 0x40 DUP13 ADD MSTORE MLOAD ISZERO ISZERO SWAP1 DUP11 ADD MSTORE MLOAD ISZERO ISZERO SWAP1 DUP9 ADD MSTORE MLOAD SWAP1 DUP7 ADD MSTORE MLOAD ISZERO ISZERO SWAP1 DUP5 ADD MSTORE MLOAD ISZERO ISZERO PUSH1 0xE0 DUP4 ADD MSTORE MLOAD PUSH2 0x100 SWAP1 DUP2 DUP4 ADD MSTORE DUP2 MSTORE DUP1 PUSH2 0x120 DUP2 ADD LT PUSH8 0xFFFFFFFFFFFFFFFF PUSH2 0x120 DUP4 ADD GT OR PUSH2 0xC2C JUMPI PUSH2 0x120 DUP2 ADD PUSH1 0x40 MSTORE PUSH1 0x20 DUP2 MLOAD SWAP2 ADD KECCAK256 SWAP1 DUP5 PUSH1 0x0 MSTORE PUSH1 0x7 PUSH1 0x20 MSTORE PUSH1 0x4 PUSH1 0x40 PUSH1 0x0 KECCAK256 ADD SWAP1 DUP2 SLOAD SWAP3 PUSH9 0x10000000000000000 DUP5 LT ISZERO PUSH2 0xC2C JUMPI PUSH2 0xBF3 PUSH2 0xBDC DUP6 PUSH2 0x9BA SWAP6 PUSH1 0x1 PUSH2 0x9DC SWAP9 ADD DUP2 SSTORE PUSH2 0x1403 JUMP JUMPDEST DUP2 SWAP4 SWAP2 SLOAD SWAP1 PUSH1 0x3 SHL SWAP2 DUP3 SHL SWAP2 PUSH1 0x0 NOT SWAP1 SHL NOT AND OR SWAP1 JUMP JUMPDEST SWAP1 SSTORE PUSH32 0x8ABA4BF97C53CD5124A16826906CF29C99E37B45DCACCFF77292AB676A81B527 PUSH1 0x40 DUP1 MLOAD DUP9 DUP2 MSTORE TIMESTAMP PUSH1 0x20 DUP3 ADD MSTORE LOG1 SWAP2 POP POP PUSH2 0xA7D JUMP JUMPDEST PUSH4 0x4E487B71 PUSH1 0xE0 SHL PUSH1 0x0 MSTORE PUSH1 0x41 PUSH1 0x4 MSTORE PUSH1 0x24 PUSH1 0x0 REVERT JUMPDEST POP POP POP SWAP1 POP PUSH1 0x0 MSTORE PUSH1 0x7 PUSH1 0x20 MSTORE PUSH1 0x5 PUSH1 0x40 PUSH1 0x0 KECCAK256 ADD PUSH2 0xFF00 NOT DUP2 SLOAD AND SWAP1 SSTORE PUSH1 0x0 MSTORE PUSH1 0x6 PUSH1 0x20 MSTORE PUSH1 0x4 PUSH1 0x40 PUSH1 0x0 KECCAK256 ADD DUP1 SLOAD SWAP1 PUSH1 0x1 DUP3 ADD DUP1 SWAP3 GT PUSH2 0xC81 JUMPI SSTORE STOP JUMPDEST PUSH4 0x4E487B71 PUSH1 0xE0 SHL PUSH1 0x0 MSTORE PUSH1 0x11 PUSH1 0x4 MSTORE PUSH1 0x24 PUSH1 0x0 REVERT JUMPDEST POP PUSH1 0x0 DUP3 SGT ISZERO PUSH2 0x9A7 JUMP JUMPDEST PUSH1 0x20 PUSH1 0x1 PUSH1 0x1 PUSH1 0xA0 SHL SUB PUSH1 0x1 SLOAD AND SWAP2 PUSH1 0x24 PUSH1 0x40 MLOAD DUP1 SWAP5 DUP2 SWAP4 PUSH4 0xCC56F2D3 PUSH1 0xE0 SHL DUP4 MSTORE PUSH1 0x4 DUP4 ADD MSTORE GAS STATICCALL DUP1 ISZERO PUSH2 0x462 JUMPI PUSH2 0xCFE JUMPI JUMPDEST POP PUSH1 0x0 SWAP1 DUP2 MSTORE PUSH1 0x9 PUSH1 0x20 MSTORE PUSH1 0x40 DUP2 KECCAK256 PUSH1 0x1 ADD DUP1 SLOAD PUSH2 0xFF00 NOT AND PUSH2 0x100 OR SWAP1 SSTORE PUSH2 0x997 SWAP1 PUSH2 0x985 JUMP JUMPDEST PUSH1 0x20 SWAP1 DUP2 SWAP5 SWAP4 SWAP5 RETURNDATASIZE DUP4 GT PUSH2 0xD28 JUMPI JUMPDEST PUSH2 0xD17 DUP2 DUP4 PUSH2 0x133E JUMP JUMPDEST DUP2 ADD SUB SLT PUSH2 0x15B JUMPI DUP12 SWAP3 SWAP2 SWAP3 PUSH2 0xCD6 JUMP JUMPDEST POP RETURNDATASIZE PUSH2 0xD0D JUMP JUMPDEST PUSH1 0x20 SWAP1 PUSH1 0x24 PUSH1 0x40 MLOAD DUP1 SWAP5 DUP2 SWAP4 PUSH4 0xCC56F2D3 PUSH1 0xE0 SHL DUP4 MSTORE PUSH1 0x4 DUP4 ADD MSTORE GAS STATICCALL DUP1 ISZERO PUSH2 0x462 JUMPI PUSH2 0xD7D JUMPI JUMPDEST POP PUSH1 0x0 MSTORE PUSH1 0x9 PUSH1 0x20 MSTORE PUSH1 0x3 PUSH1 0x40 PUSH1 0x0 KECCAK256 ADD PUSH2 0x100 PUSH2 0xFF00 NOT DUP3 SLOAD AND OR SWAP1 SSTORE DUP12 DUP1 DUP1 PUSH2 0x965 JUMP JUMPDEST PUSH1 0x20 SWAP1 DUP2 RETURNDATASIZE DUP4 GT PUSH2 0xDA1 JUMPI JUMPDEST PUSH2 0xD93 DUP2 DUP4 PUSH2 0x133E JUMP JUMPDEST DUP2 ADD SUB SLT PUSH2 0x15B JUMPI DUP13 PUSH2 0xD57 JUMP JUMPDEST POP RETURNDATASIZE PUSH2 0xD89 JUMP JUMPDEST SWAP1 SWAP7 POP PUSH1 0x20 DUP2 RETURNDATASIZE PUSH1 0x20 GT PUSH2 0xDD4 JUMPI JUMPDEST DUP2 PUSH2 0xDC4 PUSH1 0x20 SWAP4 DUP4 PUSH2 0x133E JUMP JUMPDEST DUP2 ADD SUB SLT PUSH2 0x15B JUMPI MLOAD SWAP6 DUP14 PUSH2 0x942 JUMP JUMPDEST RETURNDATASIZE SWAP2 POP PUSH2 0xDB7 JUMP JUMPDEST SWAP1 SWAP5 POP PUSH1 0x20 DUP2 RETURNDATASIZE PUSH1 0x20 GT PUSH2 0xE08 JUMPI JUMPDEST DUP2 PUSH2 0xDF8 PUSH1 0x20 SWAP4 DUP4 PUSH2 0x133E JUMP JUMPDEST DUP2 ADD SUB SLT PUSH2 0x15B JUMPI MLOAD SWAP4 DUP13 PUSH2 0x915 JUMP JUMPDEST RETURNDATASIZE SWAP2 POP PUSH2 0xDEB JUMP JUMPDEST SWAP1 SWAP2 POP PUSH1 0x20 DUP2 RETURNDATASIZE PUSH1 0x20 GT PUSH2 0xE3C JUMPI JUMPDEST DUP2 PUSH2 0xE2C PUSH1 0x20 SWAP4 DUP4 PUSH2 0x133E JUMP JUMPDEST DUP2 ADD SUB SLT PUSH2 0x15B JUMPI MLOAD SWAP1 DUP12 PUSH2 0x8E8 JUMP JUMPDEST RETURNDATASIZE SWAP2 POP PUSH2 0xE1F JUMP JUMPDEST SWAP1 SWAP2 POP PUSH1 0x20 DUP2 RETURNDATASIZE PUSH1 0x20 GT PUSH2 0xE70 JUMPI JUMPDEST DUP2 PUSH2 0xE60 PUSH1 0x20 SWAP4 DUP4 PUSH2 0x133E JUMP JUMPDEST DUP2 ADD SUB SLT PUSH2 0x15B JUMPI MLOAD SWAP1 DUP11 PUSH2 0x8BB JUMP JUMPDEST RETURNDATASIZE SWAP2 POP PUSH2 0xE53 JUMP JUMPDEST STOP JUMPDEST POP DUP3 MLOAD DUP3 LT PUSH2 0x866 JUMP JUMPDEST PUSH1 0x4 PUSH1 0x40 MLOAD PUSH32 0x1B971D6B00000000000000000000000000000000000000000000000000000000 DUP2 MSTORE REVERT JUMPDEST PUSH1 0x4 PUSH1 0x40 MLOAD PUSH32 0x7BF33C8800000000000000000000000000000000000000000000000000000000 DUP2 MSTORE REVERT JUMPDEST CALLVALUE PUSH2 0x15B JUMPI PUSH1 0x0 CALLDATASIZE PUSH1 0x3 NOT ADD SLT PUSH2 0x15B JUMPI PUSH2 0xEF1 PUSH2 0x12C1 JUMP JUMPDEST PUSH1 0x0 PUSH1 0x1 PUSH1 0x1 PUSH1 0xA0 SHL SUB DUP2 SLOAD PUSH20 0xFFFFFFFFFFFFFFFFFFFFFFFFFFFFFFFFFFFFFFFF NOT DUP2 AND DUP4 SSTORE AND PUSH32 0x8BE0079C531659141344CD1FD0A4F28419497F9722A3DAAFE3B4186F6B6457E0 DUP3 DUP1 LOG3 STOP JUMPDEST CALLVALUE PUSH2 0x15B JUMPI PUSH1 0x0 CALLDATASIZE PUSH1 0x3 NOT ADD SLT PUSH2 0x15B JUMPI PUSH1 0x20 PUSH1 0x1 PUSH1 0x1 PUSH1 0xA0 SHL SUB PUSH1 0x1 SLOAD AND PUSH1 0x40 MLOAD SWAP1 DUP2 MSTORE RETURN JUMPDEST CALLVALUE PUSH2 0x15B JUMPI PUSH1 0x40 CALLDATASIZE PUSH1 0x3 NOT ADD SLT PUSH2 0x15B JUMPI PUSH1 0x4 CALLDATALOAD SWAP1 DUP2 PUSH1 0x0 MSTORE PUSH1 0x7 SWAP2 PUSH1 0x20 SWAP2 DUP4 DUP4 MSTORE PUSH1 0x24 CALLDATALOAD PUSH1 0x40 PUSH1 0x0 KECCAK256 SLOAD SUB PUSH2 0x1227 JUMPI POP DUP1 PUSH1 0x0 MSTORE DUP3 DUP3 MSTORE PUSH1 0xFF PUSH1 0x5 PUSH1 0x40 PUSH1 0x0 KECCAK256 ADD SLOAD PUSH1 0x10 SHR AND PUSH2 0x11FD JUMPI PUSH1 0x1 PUSH1 0x1 PUSH1 0xA0 SHL SUB SWAP1 PUSH1 0x0 DUP4 DUP4 PUSH1 0x2 SLOAD AND PUSH1 0x44 PUSH1 0x40 MLOAD DUP1 SWAP5 DUP2 SWAP4 PUSH32 0x95EA7B300000000000000000000000000000000000000000000000000000000 DUP4 MSTORE ADDRESS PUSH1 0x4 DUP5 ADD MSTORE DUP2 NOT PUSH1 0x24 DUP5 ADD MSTORE GAS CALL DUP1 ISZERO PUSH2 0x462 JUMPI PUSH2 0x11E0 JUMPI JUMPDEST POP DUP1 PUSH1 0x0 MSTORE DUP4 DUP4 MSTORE PUSH1 0x40 PUSH1 0x0 KECCAK256 SLOAD PUSH1 0x0 MSTORE PUSH1 0x6 DUP4 MSTORE PUSH1 0x4 PUSH1 0x40 PUSH1 0x0 KECCAK256 ADD SLOAD SWAP3 DUP2 PUSH1 0x0 MSTORE DUP5 DUP2 MSTORE PUSH1 0x5 PUSH1 0x40 PUSH1 0x0 KECCAK256 ADD PUSH3 0x10000 PUSH3 0xFF0000 NOT DUP3 SLOAD AND OR SWAP1 SSTORE PUSH1 0x5 DUP5 MOD ISZERO PUSH1 0x0 EQ PUSH2 0x1162 JUMPI PUSH2 0x3E8 SWAP4 DUP5 DUP2 MUL SWAP5 DUP2 DUP7 DIV EQ SWAP1 ISZERO OR ISZERO PUSH2 0xC81 JUMPI PUSH2 0x10BF SWAP5 DUP2 DUP6 DUP6 PUSH1 0x2 SLOAD AND DUP6 PUSH1 0x0 MSTORE DUP4 DUP4 MSTORE PUSH1 0x40 PUSH1 0x0 KECCAK256 SLOAD PUSH1 0x0 MSTORE PUSH1 0x6 DUP4 MSTORE DUP7 PUSH1 0x40 PUSH1 0x0 KECCAK256 SLOAD AND PUSH1 0x0 PUSH1 0x40 MLOAD DUP1 SWAP12 DUP2 SWAP6 DUP3 SWAP5 PUSH4 0xA9059CBB PUSH1 0xE0 SHL DUP5 MSTORE PUSH1 0x4 DUP5 ADD PUSH1 0x20 SWAP1 SWAP4 SWAP3 SWAP2 SWAP4 PUSH1 0x1 PUSH1 0x1 PUSH1 0xA0 SHL SUB PUSH1 0x40 DUP3 ADD SWAP6 AND DUP2 MSTORE ADD MSTORE JUMP JUMPDEST SUB SWAP3 GAS CALL SWAP3 DUP4 ISZERO PUSH2 0x462 JUMPI PUSH32 0xFC30CDDEA38E2BF4D6EA7D3F9ED3B6AD7F176419F4963BD81318067A4AEE73FE SWAP7 PUSH1 0x6 SWAP5 PUSH2 0x1135 JUMPI JUMPDEST POP PUSH1 0x0 MSTORE DUP2 MSTORE PUSH1 0x40 PUSH1 0x0 KECCAK256 SLOAD PUSH1 0x0 MSTORE MSTORE PUSH1 0x40 PUSH1 0x0 KECCAK256 SLOAD AND PUSH2 0x1130 PUSH1 0x40 MLOAD SWAP3 DUP4 SWAP3 DUP4 PUSH1 0x20 SWAP1 SWAP4 SWAP3 SWAP2 SWAP4 PUSH1 0x1 PUSH1 0x1 PUSH1 0xA0 SHL SUB PUSH1 0x40 DUP3 ADD SWAP6 AND DUP2 MSTORE ADD MSTORE JUMP JUMPDEST SUB SWAP1 LOG1 STOP JUMPDEST PUSH2 0x1154 SWAP1 DUP5 RETURNDATASIZE DUP7 GT PUSH2 0x115B JUMPI JUMPDEST PUSH2 0x114C DUP2 DUP4 PUSH2 0x133E JUMP JUMPDEST DUP2 ADD SWAP1 PUSH2 0x1465 JUMP JUMPDEST POP DUP8 PUSH2 0x10F4 JUMP JUMPDEST POP RETURNDATASIZE PUSH2 0x1142 JUMP JUMPDEST PUSH1 0x64 DUP5 SWAP6 SWAP5 MUL SWAP4 DUP6 ISZERO DUP7 DUP7 DIV PUSH1 0x64 EQ DUP2 OR ISZERO PUSH2 0xC81 JUMPI DUP5 PUSH1 0x2 SLOAD AND SWAP7 DUP5 PUSH1 0x0 MSTORE DUP3 DUP5 MSTORE PUSH1 0x40 PUSH1 0x0 KECCAK256 SLOAD PUSH1 0x0 MSTORE PUSH1 0x6 DUP5 MSTORE DUP6 PUSH1 0x40 PUSH1 0x0 KECCAK256 SLOAD AND SWAP2 PUSH1 0x64 DUP3 DUP1 MUL MUL SWAP2 DUP3 DIV DUP9 EQ OR ISZERO PUSH2 0xC81 JUMPI PUSH1 0x40 MLOAD PUSH4 0xA9059CBB PUSH1 0xE0 SHL DUP2 MSTORE PUSH1 0x1 PUSH1 0x1 PUSH1 0xA0 SHL SUB SWAP1 SWAP3 AND PUSH1 0x4 DUP4 ADD MSTORE PUSH1 0x24 DUP3 ADD MSTORE SWAP6 DUP3 SWAP1 DUP8 SWAP1 DUP2 PUSH1 0x0 DUP2 PUSH1 0x44 DUP2 ADD PUSH2 0x10BF JUMP JUMPDEST PUSH2 0x11F6 SWAP1 DUP5 RETURNDATASIZE DUP7 GT PUSH2 0x115B JUMPI PUSH2 0x114C DUP2 DUP4 PUSH2 0x133E JUMP JUMPDEST POP DUP5 PUSH2 0x1007 JUMP JUMPDEST PUSH1 0x4 PUSH1 0x40 MLOAD PUSH32 0x375423BD00000000000000000000000000000000000000000000000000000000 DUP2 MSTORE REVERT JUMPDEST DUP1 PUSH32 0x9E55A17C00000000000000000000000000000000000000000000000000000000 PUSH1 0x4 SWAP3 MSTORE REVERT JUMPDEST PUSH1 0x80 SWAP1 PUSH1 0x3 NOT ADD SLT PUSH2 0x15B JUMPI PUSH1 0x4 CALLDATALOAD SWAP1 PUSH1 0x24 CALLDATALOAD SWAP1 PUSH1 0x44 CALLDATALOAD SWAP1 PUSH1 0x64 CALLDATALOAD SWAP1 JUMP JUMPDEST SWAP1 DUP2 MLOAD DUP1 DUP3 MSTORE PUSH1 0x20 DUP1 DUP1 SWAP4 ADD SWAP4 ADD SWAP2 PUSH1 0x0 JUMPDEST DUP3 DUP2 LT PUSH2 0x128D JUMPI POP POP POP POP SWAP1 JUMP JUMPDEST DUP4 MLOAD DUP6 MSTORE SWAP4 DUP2 ADD SWAP4 SWAP3 DUP2 ADD SWAP3 PUSH1 0x1 ADD PUSH2 0x127F JUMP JUMPDEST PUSH1 0x3 GT ISZERO PUSH2 0x12AB JUMPI JUMP JUMPDEST PUSH4 0x4E487B71 PUSH1 0xE0 SHL PUSH1 0x0 MSTORE PUSH1 0x21 PUSH1 0x4 MSTORE PUSH1 0x24 PUSH1 0x0 REVERT JUMPDEST PUSH1 0x1 PUSH1 0x1 PUSH1 0xA0 SHL SUB PUSH1 0x0 SLOAD AND CALLER SUB PUSH2 0x12D5 JUMPI JUMP JUMPDEST PUSH1 0x24 PUSH1 0x40 MLOAD PUSH32 0x118CDAA700000000000000000000000000000000000000000000000000000000 DUP2 MSTORE CALLER PUSH1 0x4 DUP3 ADD MSTORE REVERT JUMPDEST PUSH2 0x100 DUP2 ADD SWAP1 DUP2 LT PUSH8 0xFFFFFFFFFFFFFFFF DUP3 GT OR PUSH2 0xC2C JUMPI PUSH1 0x40 MSTORE JUMP JUMPDEST PUSH1 0xC0 DUP2 ADD SWAP1 DUP2 LT PUSH8 0xFFFFFFFFFFFFFFFF DUP3 GT OR PUSH2 0xC2C JUMPI PUSH1 0x40 MSTORE JUMP JUMPDEST SWAP1 PUSH1 0x1F DUP1 NOT SWAP2 ADD AND DUP2 ADD SWAP1 DUP2 LT PUSH8 0xFFFFFFFFFFFFFFFF DUP3 GT OR PUSH2 0xC2C JUMPI PUSH1 0x40 MSTORE JUMP JUMPDEST SWAP1 PUSH1 0x40 MLOAD SWAP2 DUP3 DUP2 SLOAD SWAP2 DUP3 DUP3 MSTORE PUSH1 0x20 SWAP3 DUP4 DUP4 ADD SWAP2 PUSH1 0x0 MSTORE DUP4 PUSH1 0x0 KECCAK256 SWAP4 PUSH1 0x0 SWAP1 JUMPDEST DUP3 DUP3 LT PUSH2 0x1397 JUMPI POP POP POP PUSH2 0x1395 SWAP3 POP SUB DUP4 PUSH2 0x133E JUMP JUMPDEST JUMP JUMPDEST DUP6 SLOAD DUP5 MSTORE PUSH1 0x1 SWAP6 DUP7 ADD SWAP6 DUP9 SWAP6 POP SWAP4 DUP2 ADD SWAP4 SWAP1 SWAP2 ADD SWAP1 PUSH2 0x137F JUMP JUMPDEST DUP1 MLOAD DUP3 LT ISZERO PUSH2 0x13C5 JUMPI PUSH1 0x20 SWAP2 PUSH1 0x5 SHL ADD ADD SWAP1 JUMP JUMPDEST PUSH4 0x4E487B71 PUSH1 0xE0 SHL PUSH1 0x0 MSTORE PUSH1 0x32 PUSH1 0x4 MSTORE PUSH1 0x24 PUSH1 0x0 REVERT JUMPDEST DUP2 DUP2 SUB SWAP3 SWAP2 PUSH1 0x0 SGT DUP1 ISZERO DUP3 DUP6 SGT AND SWAP2 DUP5 SLT AND OR PUSH2 0xC81 JUMPI JUMP JUMPDEST PUSH1 0x0 NOT DUP2 EQ PUSH2 0xC81 JUMPI PUSH1 0x1 ADD SWAP1 JUMP JUMPDEST DUP1 SLOAD DUP3 LT ISZERO PUSH2 0x13C5 JUMPI PUSH1 0x0 MSTORE PUSH1 0x20 PUSH1 0x0 KECCAK256 ADD SWAP1 PUSH1 0x0 SWAP1 JUMP JUMPDEST DUP1 SLOAD SWAP1 PUSH9 0x10000000000000000 DUP3 LT ISZERO PUSH2 0xC2C JUMPI DUP2 PUSH2 0xBDC SWAP2 PUSH1 0x1 PUSH2 0x1442 SWAP5 ADD DUP2 SSTORE PUSH2 0x1403 JUMP JUMPDEST SWAP1 SSTORE JUMP JUMPDEST SWAP1 DUP2 PUSH1 0x20 SWAP2 SUB SLT PUSH2 0x15B JUMPI MLOAD PUSH1 0x1 PUSH1 0x1 PUSH1 0xA0 SHL SUB DUP2 AND DUP2 SUB PUSH2 0x15B JUMPI SWAP1 JUMP JUMPDEST SWAP1 DUP2 PUSH1 0x20 SWAP2 SUB SLT PUSH2 0x15B JUMPI MLOAD DUP1 ISZERO ISZERO DUP2 SUB PUSH2 0x15B JUMPI SWAP1 JUMP INVALID LOG2 PUSH5 0x6970667358 0x22 SLT KECCAK256 LOG3 0xCB 0xB5 0xC5 SWAP1 0xBE REVERT PUSH8 0xC037AACEA5D04840 0xB1 0x4F 0xEC DUP15 0xBA SLT 0xC3 DUP5 REVERT 0xCC DUP13 POP PUSH29 0x4DD8BA64736F6C63430008140033000000000000000000000000000000 "},"methodIdentifiers":{"REWARD_TOKEN()":"99248ea7","battle(uint256,uint256,uint256,uint256)":"7a8075a3","claimRewards(uint256,uint256)":"594dd432","createBattlefield(uint256)":"8517e7d6","enterBattle(uint256,uint256,uint256,uint256)":"cd6dd5e1","generateEnemyCards(uint256,uint256,uint256,uint256)":"b7044c39","getBattleDetails(uint256)":"f0e26f80","getBattleField(uint256)":"b8755343","getCardAddress()":"70d00c77","getPlayer(uint256)":"e55ae4e8","owner()":"8da5cb5b","renounceOwnership()":"715018a6","transferOwnership(address)":"f2fde38b"}}}}}