{"contracts/ExPopulusCards.sol":{"ExPopulusCards":{"abi":[{"inputs":[{"internalType":"string","name":"_name","type":"string"},{"internalType":"string","name":"_symbol","type":"string"},{"internalType":"address","name":"_gameLogicAddress","type":"address"}],"stateMutability":"nonpayable","type":"constructor"},{"inputs":[],"name":"CardIsInBattle","type":"error"},{"inputs":[{"internalType":"address","name":"sender","type":"address"},{"internalType":"uint256","name":"tokenId","type":"uint256"},{"internalType":"address","name":"owner","type":"address"}],"name":"ERC721IncorrectOwner","type":"error"},{"inputs":[{"internalType":"address","name":"operator","type":"address"},{"internalType":"uint256","name":"tokenId","type":"uint256"}],"name":"ERC721InsufficientApproval","type":"error"},{"inputs":[{"internalType":"address","name":"approver","type":"address"}],"name":"ERC721InvalidApprover","type":"error"},{"inputs":[{"internalType":"address","name":"operator","type":"address"}],"name":"ERC721InvalidOperator","type":"error"},{"inputs":[{"internalType":"address","name":"owner","type":"address"}],"name":"ERC721InvalidOwner","type":"error"},{"inputs":[{"internalType":"address","name":"receiver","type":"address"}],"name":"ERC721InvalidReceiver","type":"error"},{"inputs":[{"internalType":"address","name":"sender","type":"address"}],"name":"ERC721InvalidSender","type":"error"},{"inputs":[{"internalType":"uint256","name":"tokenId","type":"uint256"}],"name":"ERC721NonexistentToken","type":"error"},{"inputs":[],"name":"InvalidValue","type":"error"},{"inputs":[],"name":"OnlyGameLogic","type":"error"},{"inputs":[],"name":"OnlyWhitelistedAddress","type":"error"},{"anonymous":false,"inputs":[{"indexed":false,"internalType":"address","name":"_address","type":"address"}],"name":"AddressWhitelisted","type":"event"},{"anonymous":false,"inputs":[{"indexed":true,"internalType":"address","name":"owner","type":"address"},{"indexed":true,"internalType":"address","name":"approved","type":"address"},{"indexed":true,"internalType":"uint256","name":"tokenId","type":"uint256"}],"name":"Approval","type":"event"},{"anonymous":false,"inputs":[{"indexed":true,"internalType":"address","name":"owner","type":"address"},{"indexed":true,"internalType":"address","name":"operator","type":"address"},{"indexed":false,"internalType":"bool","name":"approved","type":"bool"}],"name":"ApprovalForAll","type":"event"},{"anonymous":false,"inputs":[{"indexed":false,"internalType":"uint256","name":"tokenID","type":"uint256"},{"indexed":false,"internalType":"bool","name":"status","type":"bool"}],"name":"CardIsInGame","type":"event"},{"anonymous":false,"inputs":[{"indexed":false,"internalType":"uint8","name":"_health","type":"uint8"},{"indexed":false,"internalType":"uint8","name":"_attack","type":"uint8"},{"indexed":false,"internalType":"uint8","name":"_ability","type":"uint8"},{"indexed":false,"internalType":"address","name":"to","type":"address"},{"indexed":false,"internalType":"uint256","name":"tokenID","type":"uint256"}],"name":"CardMinted","type":"event"},{"anonymous":false,"inputs":[{"indexed":true,"internalType":"address","name":"from","type":"address"},{"indexed":true,"internalType":"address","name":"to","type":"address"},{"indexed":true,"internalType":"uint256","name":"tokenId","type":"uint256"}],"name":"Transfer","type":"event"},{"inputs":[],"name":"abilityCount","outputs":[{"internalType":"uint256","name":"","type":"uint256"}],"stateMutability":"view","type":"function"},{"inputs":[{"internalType":"address","name":"_address","type":"address"},{"internalType":"bool","name":"status","type":"bool"}],"name":"addOrRemoveFromWhiteList","outputs":[],"stateMutability":"nonpayable","type":"function"},{"inputs":[{"internalType":"address","name":"to","type":"address"},{"internalType":"uint256","name":"tokenId","type":"uint256"}],"name":"approve","outputs":[],"stateMutability":"nonpayable","type":"function"},{"inputs":[{"internalType":"address","name":"owner","type":"address"}],"name":"balanceOf","outputs":[{"internalType":"uint256","name":"","type":"uint256"}],"stateMutability":"view","type":"function"},{"inputs":[],"name":"cardCount","outputs":[{"internalType":"uint256","name":"","type":"uint256"}],"stateMutability":"view","type":"function"},{"inputs":[{"internalType":"uint256","name":"tokenID","type":"uint256"},{"internalType":"bool","name":"status","type":"bool"}],"name":"cardInGamePlay","outputs":[],"stateMutability":"nonpayable","type":"function"},{"inputs":[{"internalType":"uint256","name":"tokenID","type":"uint256"},{"internalType":"enum ExPopulusCards.specialPower","name":"_power","type":"uint8"},{"internalType":"uint8","name":"_priority","type":"uint8"}],"name":"defineAbilities","outputs":[{"internalType":"uint256","name":"","type":"uint256"}],"stateMutability":"nonpayable","type":"function"},{"inputs":[],"name":"deployer","outputs":[{"internalType":"address","name":"","type":"address"}],"stateMutability":"view","type":"function"},{"inputs":[],"name":"gameLogicAddress","outputs":[{"internalType":"address","name":"","type":"address"}],"stateMutability":"view","type":"function"},{"inputs":[{"internalType":"uint256","name":"tokenID","type":"uint256"}],"name":"getAbilityID","outputs":[{"internalType":"uint256","name":"","type":"uint256"}],"stateMutability":"view","type":"function"},{"inputs":[{"internalType":"uint256","name":"tokenId","type":"uint256"}],"name":"getApproved","outputs":[{"internalType":"address","name":"","type":"address"}],"stateMutability":"view","type":"function"},{"inputs":[{"internalType":"uint256","name":"tokenID","type":"uint256"}],"name":"getAttack","outputs":[{"internalType":"uint256","name":"","type":"uint256"}],"stateMutability":"view","type":"function"},{"inputs":[{"internalType":"uint256","name":"tokenID","type":"uint256"}],"name":"getHealth","outputs":[{"internalType":"uint256","name":"","type":"uint256"}],"stateMutability":"view","type":"function"},{"inputs":[{"internalType":"uint256","name":"abilityID","type":"uint256"}],"name":"getPriority","outputs":[{"internalType":"uint256","name":"","type":"uint256"}],"stateMutability":"view","type":"function"},{"inputs":[{"internalType":"address","name":"owner","type":"address"},{"internalType":"address","name":"operator","type":"address"}],"name":"isApprovedForAll","outputs":[{"internalType":"bool","name":"","type":"bool"}],"stateMutability":"view","type":"function"},{"inputs":[{"internalType":"uint256","name":"tokenID","type":"uint256"}],"name":"isInGame","outputs":[{"internalType":"bool","name":"","type":"bool"}],"stateMutability":"view","type":"function"},{"inputs":[{"internalType":"uint8","name":"_health","type":"uint8"},{"internalType":"uint8","name":"_attack","type":"uint8"},{"internalType":"uint8","name":"_ability","type":"uint8"},{"internalType":"address","name":"to","type":"address"},{"internalType":"uint256","name":"tokenID","type":"uint256"}],"name":"mintCard","outputs":[{"internalType":"uint256","name":"","type":"uint256"}],"stateMutability":"nonpayable","type":"function"},{"inputs":[],"name":"name","outputs":[{"internalType":"string","name":"","type":"string"}],"stateMutability":"view","type":"function"},{"inputs":[{"internalType":"uint256","name":"tokenId","type":"uint256"}],"name":"ownerOf","outputs":[{"internalType":"address","name":"","type":"address"}],"stateMutability":"view","type":"function"},{"inputs":[{"internalType":"address","name":"from","type":"address"},{"internalType":"address","name":"to","type":"address"},{"internalType":"uint256","name":"tokenId","type":"uint256"}],"name":"safeTransferFrom","outputs":[],"stateMutability":"nonpayable","type":"function"},{"inputs":[{"internalType":"address","name":"from","type":"address"},{"internalType":"address","name":"to","type":"address"},{"internalType":"uint256","name":"tokenId","type":"uint256"},{"internalType":"bytes","name":"data","type":"bytes"}],"name":"safeTransferFrom","outputs":[],"stateMutability":"nonpayable","type":"function"},{"inputs":[{"internalType":"address","name":"operator","type":"address"},{"internalType":"bool","name":"approved","type":"bool"}],"name":"setApprovalForAll","outputs":[],"stateMutability":"nonpayable","type":"function"},{"inputs":[{"internalType":"bytes4","name":"interfaceId","type":"bytes4"}],"name":"supportsInterface","outputs":[{"internalType":"bool","name":"","type":"bool"}],"stateMutability":"view","type":"function"},{"inputs":[],"name":"symbol","outputs":[{"internalType":"string","name":"","type":"string"}],"stateMutability":"view","type":"function"},{"inputs":[{"internalType":"uint256","name":"tokenId","type":"uint256"}],"name":"tokenURI","outputs":[{"internalType":"string","name":"","type":"string"}],"stateMutability":"view","type":"function"},{"inputs":[{"internalType":"address","name":"from","type":"address"},{"internalType":"address","name":"to","type":"address"},{"internalType":"uint256","name":"tokenID","type":"uint256"}],"name":"transferFrom","outputs":[],"stateMutability":"nonpayable","type":"function"}],"evm":{"bytecode":{"linkReferences":{},"object":"60806040523462000350576200175b803803806200001d8162000355565b928339810190606081830312620003505780516001600160401b03908181116200035057836200004f9184016200037b565b906020938484015182811162000350576040916200006f9186016200037b565b9301516001600160a01b038116939084900362000350578251908282116200033a5760008054926001958685811c951680156200032f575b898610146200031b578190601f95868111620002c8575b5089908683116001146200026457849262000258575b5050600019600383901b1c191690861b1781555b8151938411620002445784548581811c9116801562000239575b888210146200022557838111620001dd575b508692841160011462000177578394959650926200016b575b5050600019600383901b1c191690821b1790555b60018060a01b031933816006541617600655600754161760075560405161136d9081620003ee8239f35b0151905038806200012d565b9190601f1984169685845280842093905b888210620001c55750508385969710620001ab575b505050811b01905562000141565b015160001960f88460031b161c191690553880806200019d565b80878596829496860151815501950193019062000188565b8582528782208480870160051c8201928a88106200021b575b0160051c019086905b8281106200020f57505062000114565b838155018690620001ff565b92508192620001f6565b634e487b7160e01b82526022600452602482fd5b90607f169062000102565b634e487b7160e01b81526041600452602490fd5b015190503880620000d4565b8480528a85208994509190601f198416865b8d828210620002b1575050841162000297575b505050811b018155620000e8565b015160001960f88460031b161c1916905538808062000289565b8385015186558c9790950194938401930162000276565b9091508380528984208680850160051c8201928c861062000311575b918a91869594930160051c01915b82811062000302575050620000be565b8681558594508a9101620002f2565b92508192620002e4565b634e487b7160e01b83526022600452602483fd5b94607f1694620000a7565b634e487b7160e01b600052604160045260246000fd5b600080fd5b6040519190601f01601f191682016001600160401b038111838210176200033a57604052565b919080601f84011215620003505782516001600160401b0381116200033a57602090620003b1601f8201601f1916830162000355565b92818452828287010111620003505760005b818110620003d957508260009394955001015290565b8581018301518482018401528201620003c356fe60806040908082526004918236101561001757600080fd5b600091823560e01c90816301ffc9a714610d4e5750806306fdde0314610c83578063081812fc14610c49578063095ea7b314610b555780631b6cde1014610b3757806323b872dd14610b1f5780632494b2a1146108df5780633fc70f2c146108b157806342842e0e1461088957806354996d18146107d65780636352211e146107a65780636a019b7f146106fd57806370a082311461068f578063763d0f621461066457806391f3f18c1461063d57806395d89b4114610524578063a22cb46514610468578063b88d4fde146103de578063c87b56dd1461038d578063cc56f2d314610362578063cff840f014610337578063d2b325f41461030a578063d5f39488146102e3578063e985e9c514610296578063f530bd94146102785763f687b5041461014357600080fd5b3461027457606036600319011261027457602435600381101561027057610168610ec4565b6001600160a01b03600654163314801561025b575b61024c57826020959260019283600992818454018085558115610220575b5014806101ef575b6101bd575b5054948593358152600a875220015551908152f35b81548752600b885282872061020061ff00198254161790558154875260ff838820911660ff19825416179055386101a8565b82548852600b8952838820805461ff00191661010017905582548852838820805460ff191660ff84161790556101a3565b8952600b8a52848920805461ff001916905583548952848920805460ff191660ff85161790553861019b565b84835163d79d3adb60e01b8152fd5b50338452600c60205260ff838520541661017d565b8280fd5b5080fd5b50346102745781600319360112610274576020906009549051908152f35b503461027457806003193601126102745760ff816020936102b5610e5e565b6102bd610e79565b6001600160a01b0391821683526005875283832091168252855220549151911615158152f35b50346102745781600319360112610274576020906001600160a01b03600654169051908152f35b508234610270576020366003190112610270578160209360ff92358152600d855220541690519015158152f35b508234610270576020366003190112610270578160209360ff92358152600a85522054169051908152f35b5082346102705760203660031901126102705781602093600192358152600a85522001549051908152f35b5034610274576020366003190112610274576103ac6103da93356110ec565b508181516103b981610ee3565b528051916103c683610ee3565b825251918291602083526020830190610e1e565b0390f35b50829034610270576080366003190112610270576103fa610e5e565b610402610e79565b846064359467ffffffffffffffff86116102745736602387011215610274578501359461043a61043187610f37565b95519586610f15565b8585523660248783010111610274578561046596602460209301838801378501015260443591610f53565b80f35b50829034610270578060031936011261027057610483610e5e565b906001600160a01b03610494610ed4565b92169283156104f6575033845260056020528084208385526020526104c7828286209060ff801983541691151516179055565b5190151581527f17307eab39ab6107e8899845ad3d59bd9653f200f220920489ca2b5937696c3160203392a380f35b8360249251917f5b08ba18000000000000000000000000000000000000000000000000000000008352820152fd5b50903461063a578060031936011261063a578151918160019283549384811c91818616958615610630575b602096878510811461061d578899509688969785829a5291826000146105f657505060011461059b575b5050506103da929161058c910385610f15565b51928284938452830190610e1e565b91908693508083527fb10e2d527612073b26eecdfd717e6a320cf44b4afac2b0732d9fcbe2b7fa0cf65b8284106105de575050508201018161058c6103da610579565b8054848a0186015288955087949093019281016105c5565b60ff19168782015293151560051b8601909301935084925061058c91506103da9050610579565b60248360228c634e487b7160e01b835252fd5b92607f169261054f565b80fd5b50346102745781600319360112610274576020906001600160a01b03600754169051908152f35b508234610270576020366003190112610270578160209360ff92358152600b85522054169051908152f35b50903461063a57602036600319011261063a576001600160a01b036106b2610e5e565b169283156106cf5750806020938392526003845220549051908152f35b9060249251917f89c62b64000000000000000000000000000000000000000000000000000000008352820152fd5b50346102745780600319360112610274578235610718610ed4565b6001600160a01b0360075416331461077e57839450817fc4b31ae5059620910ac0a7a772a9fc25a174520541a9eb16b8d34a92859d25e19452600d60205261076e818487209060ff801983541691151516179055565b825191825215156020820152a180f35b8483517f35c2674b000000000000000000000000000000000000000000000000000000008152fd5b50903461063a57602036600319011261063a57506001600160a01b036107ce602093356110ec565b915191168152f35b508290346102705780600319360112610270576107f1610e5e565b916107fa610ed4565b926001600160a01b0391826006541633148015610874575b61086657509161085e7f4f783c179409b4127238bc9c990bc99b9a651666a0d20b51d6c42849eb88466d94926020941692838752600c85528287209060ff801983541691151516179055565b51908152a180f35b835163d79d3adb60e01b8152fd5b50338652600c60205260ff8487205416610812565b5034610274576104659061089c36610e8f565b919251926108a984610ee3565b858452610f53565b508234610270576020366003190112610270578160209360ff92358152600a8552205460081c169051908152f35b5082346102705760a03660031901126102705780359260ff841691828503610274576024359160ff831680930361063a57610918610ec4565b92606435926001600160a01b039283851680950361063a5760843595846006541633148015610b0a575b610afb576002881015610ad3576002841015610ad35760ff16936002851015610ad35786600855868252602099600a8b528983208560ff1982541617905560085483528983209061ff0082549160081b169061ff0019161790558515610abd5786825260028a52888220541686868215159283610a85575b81855260038d528b85206001815401905582855260028d528b8520826001600160a01b03198254161790557fddf252ad1be2c89b69c2b068fc378daa952ba7f163c4a11628f55a4df523b3ef8580a4610a5657505085519485528685015283850152606083015260808201527f348a824a73325a8ecab2df0bbc774084330fe3ff06c0498f72b92a0cd19a9d099060a090a16008549051908152f35b602492508751917f73c6ac6e000000000000000000000000000000000000000000000000000000008352820152fd5b610aa683600052600460205260406000206001600160a01b03198154169055565b80855260038d528b852080546000190190556109ba565b602483838b5191633250574960e11b8352820152fd5b8289517faa7feadc000000000000000000000000000000000000000000000000000000008152fd5b82895163d79d3adb60e01b8152fd5b50338252600c60205260ff8983205416610942565b823461063a57610465610b3136610e8f565b91611127565b50346102745781600319360112610274576020906008549051908152f35b50829034610270578060031936011261027057610b70610e5e565b91602435610b7d816110ec565b33151580610c36575b80610c0e575b610bdf5781906001600160a01b03809616958691167f8c5be1e5ebec7d5bd14f71427d1e84f3dd0314c0f7b2291e5b200ac8c7c3b9258880a484526020528220906001600160a01b031982541617905580f35b83517fa9fbf51f0000000000000000000000000000000000000000000000000000000081523381850152602490fd5b506001600160a01b0381168652600560205283862033875260205260ff848720541615610b8c565b50336001600160a01b0382161415610b86565b5082346102705760203660031901126102705781602093826001600160a01b039335610c74816110ec565b50825285522054169051908152f35b50903461063a578060031936011261063a5781519181825492600184811c91818616958615610d44575b602096878510811461061d578899509688969785829a5291826000146105f6575050600114610ce9575050506103da929161058c910385610f15565b91908693508280527f290decd9548b62a8d60345a988386fc84ba6bc95484008f6362f93160ef3e5635b828410610d2c575050508201018161058c6103da610579565b8054848a018601528895508794909301928101610d13565b92607f1692610cad565b8390853461027057602036600319011261027057357fffffffff00000000000000000000000000000000000000000000000000000000811680910361027057602092507f80ac58cd000000000000000000000000000000000000000000000000000000008114908115610df4575b8115610dca575b5015158152f35b7f01ffc9a70000000000000000000000000000000000000000000000000000000091501483610dc3565b7f5b5e139f0000000000000000000000000000000000000000000000000000000081149150610dbc565b919082519283825260005b848110610e4a575050826000602080949584010152601f8019910116010190565b602081830181015184830182015201610e29565b600435906001600160a01b0382168203610e7457565b600080fd5b602435906001600160a01b0382168203610e7457565b6060906003190112610e74576001600160a01b03906004358281168103610e7457916024359081168103610e74579060443590565b6044359060ff82168203610e7457565b602435908115158203610e7457565b6020810190811067ffffffffffffffff821117610eff57604052565b634e487b7160e01b600052604160045260246000fd5b90601f8019910116810190811067ffffffffffffffff821117610eff57604052565b67ffffffffffffffff8111610eff57601f01601f191660200190565b610f5e838383611127565b813b610f6b575b50505050565b6001600160a01b03949192939480931693604051937f150b7a02000000000000000000000000000000000000000000000000000000009283865233600487015216602485015260448401526080606484015282610fce6020966084830190610e1e565b039285816000958187895af1849181611090575b50611041575050503d600014611039573d610ffc81610f37565b9061100a6040519283610f15565b81528091843d92013e5b805192836110345760248360405190633250574960e11b82526004820152fd5b019050fd5b506060611014565b9092507fffffffff000000000000000000000000000000000000000000000000000000009194501603611078575038808080610f65565b60249060405190633250574960e11b82526004820152fd5b9091508681813d83116110e5575b6110a88183610f15565b810103126110e157517fffffffff00000000000000000000000000000000000000000000000000000000811681036110e1579038610fe2565b8480fd5b503d61109e565b8060005260026020526001600160a01b036040600020541690811561110f575090565b60249060405190637e27328960e01b82526004820152fd5b91600091818352602093600d855260409460ff868620541661130e576001600160a01b038093169081156112f7579084918287526002815284888820541696879133151580611248575b509060027fddf252ad1be2c89b69c2b068fc378daa952ba7f163c4a11628f55a4df523b3ef9284611210575b858352600381528b83206001815401905586835252898120846001600160a01b031982541617905580a416928383036111d65750505050565b6064945051927f64283d7b000000000000000000000000000000000000000000000000000000008452600484015260248301526044820152fd5b61123187600052600460205260406000206001600160a01b03198154169055565b848352600381528b8320805460001901905561119d565b919394509150806112b6575b1561126457859291879138611171565b878688611281576024915190637e27328960e01b82526004820152fd5b60449151907f177e802f0000000000000000000000000000000000000000000000000000000082523360048301526024820152fd5b5033871480156112db575b806112545750858252600481523385898420541614611254565b5086825260058152878220338352815260ff88832054166112c1565b602486885190633250574960e11b82526004820152fd5b600486517f9e51d34b000000000000000000000000000000000000000000000000000000008152fdfea264697066735822122019a3b80e7b1b9b36008949124db64e90399f1ed0bb6d82e2eb2228fc40bb0c9f64736f6c63430008140033","opcodes":"PUSH1 0x80 PUSH1 0x40 MSTORE CALLVALUE PUSH3 0x350 JUMPI PUSH3 0x175B DUP1 CODESIZE SUB DUP1 PUSH3 0x1D DUP2 PUSH3 0x355 JUMP JUMPDEST SWAP3 DUP4 CODECOPY DUP2 ADD SWAP1 PUSH1 0x60 DUP2 DUP4 SUB SLT PUSH3 0x350 JUMPI DUP1 MLOAD PUSH1 0x1 PUSH1 0x1 PUSH1 0x40 SHL SUB SWAP1 DUP2 DUP2 GT PUSH3 0x350 JUMPI DUP4 PUSH3 0x4F SWAP2 DUP5 ADD PUSH3 0x37B JUMP JUMPDEST SWAP1 PUSH1 0x20 SWAP4 DUP5 DUP5 ADD MLOAD DUP3 DUP2 GT PUSH3 0x350 JUMPI PUSH1 0x40 SWAP2 PUSH3 0x6F SWAP2 DUP7 ADD PUSH3 0x37B JUMP JUMPDEST SWAP4 ADD MLOAD PUSH1 0x1 PUSH1 0x1 PUSH1 0xA0 SHL SUB DUP2 AND SWAP4 SWAP1 DUP5 SWAP1 SUB PUSH3 0x350 JUMPI DUP3 MLOAD SWAP1 DUP3 DUP3 GT PUSH3 0x33A JUMPI PUSH1 0x0 DUP1 SLOAD SWAP3 PUSH1 0x1 SWAP6 DUP7 DUP6 DUP2 SHR SWAP6 AND DUP1 ISZERO PUSH3 0x32F JUMPI JUMPDEST DUP10 DUP7 LT EQ PUSH3 0x31B JUMPI DUP2 SWAP1 PUSH1 0x1F SWAP6 DUP7 DUP2 GT PUSH3 0x2C8 JUMPI JUMPDEST POP DUP10 SWAP1 DUP7 DUP4 GT PUSH1 0x1 EQ PUSH3 0x264 JUMPI DUP5 SWAP3 PUSH3 0x258 JUMPI JUMPDEST POP POP PUSH1 0x0 NOT PUSH1 0x3 DUP4 SWAP1 SHL SHR NOT AND SWAP1 DUP7 SHL OR DUP2 SSTORE JUMPDEST DUP2 MLOAD SWAP4 DUP5 GT PUSH3 0x244 JUMPI DUP5 SLOAD DUP6 DUP2 DUP2 SHR SWAP2 AND DUP1 ISZERO PUSH3 0x239 JUMPI JUMPDEST DUP9 DUP3 LT EQ PUSH3 0x225 JUMPI DUP4 DUP2 GT PUSH3 0x1DD JUMPI JUMPDEST POP DUP7 SWAP3 DUP5 GT PUSH1 0x1 EQ PUSH3 0x177 JUMPI DUP4 SWAP5 SWAP6 SWAP7 POP SWAP3 PUSH3 0x16B JUMPI JUMPDEST POP POP PUSH1 0x0 NOT PUSH1 0x3 DUP4 SWAP1 SHL SHR NOT AND SWAP1 DUP3 SHL OR SWAP1 SSTORE JUMPDEST PUSH1 0x1 DUP1 PUSH1 0xA0 SHL SUB NOT CALLER DUP2 PUSH1 0x6 SLOAD AND OR PUSH1 0x6 SSTORE PUSH1 0x7 SLOAD AND OR PUSH1 0x7 SSTORE PUSH1 0x40 MLOAD PUSH2 0x136D SWAP1 DUP2 PUSH3 0x3EE DUP3 CODECOPY RETURN JUMPDEST ADD MLOAD SWAP1 POP CODESIZE DUP1 PUSH3 0x12D JUMP JUMPDEST SWAP2 SWAP1 PUSH1 0x1F NOT DUP5 AND SWAP7 DUP6 DUP5 MSTORE DUP1 DUP5 KECCAK256 SWAP4 SWAP1 JUMPDEST DUP9 DUP3 LT PUSH3 0x1C5 JUMPI POP POP DUP4 DUP6 SWAP7 SWAP8 LT PUSH3 0x1AB JUMPI JUMPDEST POP POP POP DUP2 SHL ADD SWAP1 SSTORE PUSH3 0x141 JUMP JUMPDEST ADD MLOAD PUSH1 0x0 NOT PUSH1 0xF8 DUP5 PUSH1 0x3 SHL AND SHR NOT AND SWAP1 SSTORE CODESIZE DUP1 DUP1 PUSH3 0x19D JUMP JUMPDEST DUP1 DUP8 DUP6 SWAP7 DUP3 SWAP5 SWAP7 DUP7 ADD MLOAD DUP2 SSTORE ADD SWAP6 ADD SWAP4 ADD SWAP1 PUSH3 0x188 JUMP JUMPDEST DUP6 DUP3 MSTORE DUP8 DUP3 KECCAK256 DUP5 DUP1 DUP8 ADD PUSH1 0x5 SHR DUP3 ADD SWAP3 DUP11 DUP9 LT PUSH3 0x21B JUMPI JUMPDEST ADD PUSH1 0x5 SHR ADD SWAP1 DUP7 SWAP1 JUMPDEST DUP3 DUP2 LT PUSH3 0x20F JUMPI POP POP PUSH3 0x114 JUMP JUMPDEST DUP4 DUP2 SSTORE ADD DUP7 SWAP1 PUSH3 0x1FF JUMP JUMPDEST SWAP3 POP DUP2 SWAP3 PUSH3 0x1F6 JUMP JUMPDEST PUSH4 0x4E487B71 PUSH1 0xE0 SHL DUP3 MSTORE PUSH1 0x22 PUSH1 0x4 MSTORE PUSH1 0x24 DUP3 REVERT JUMPDEST SWAP1 PUSH1 0x7F AND SWAP1 PUSH3 0x102 JUMP JUMPDEST PUSH4 0x4E487B71 PUSH1 0xE0 SHL DUP2 MSTORE PUSH1 0x41 PUSH1 0x4 MSTORE PUSH1 0x24 SWAP1 REVERT JUMPDEST ADD MLOAD SWAP1 POP CODESIZE DUP1 PUSH3 0xD4 JUMP JUMPDEST DUP5 DUP1 MSTORE DUP11 DUP6 KECCAK256 DUP10 SWAP5 POP SWAP2 SWAP1 PUSH1 0x1F NOT DUP5 AND DUP7 JUMPDEST DUP14 DUP3 DUP3 LT PUSH3 0x2B1 JUMPI POP POP DUP5 GT PUSH3 0x297 JUMPI JUMPDEST POP POP POP DUP2 SHL ADD DUP2 SSTORE PUSH3 0xE8 JUMP JUMPDEST ADD MLOAD PUSH1 0x0 NOT PUSH1 0xF8 DUP5 PUSH1 0x3 SHL AND SHR NOT AND SWAP1 SSTORE CODESIZE DUP1 DUP1 PUSH3 0x289 JUMP JUMPDEST DUP4 DUP6 ADD MLOAD DUP7 SSTORE DUP13 SWAP8 SWAP1 SWAP6 ADD SWAP5 SWAP4 DUP5 ADD SWAP4 ADD PUSH3 0x276 JUMP JUMPDEST SWAP1 SWAP2 POP DUP4 DUP1 MSTORE DUP10 DUP5 KECCAK256 DUP7 DUP1 DUP6 ADD PUSH1 0x5 SHR DUP3 ADD SWAP3 DUP13 DUP7 LT PUSH3 0x311 JUMPI JUMPDEST SWAP2 DUP11 SWAP2 DUP7 SWAP6 SWAP5 SWAP4 ADD PUSH1 0x5 SHR ADD SWAP2 JUMPDEST DUP3 DUP2 LT PUSH3 0x302 JUMPI POP POP PUSH3 0xBE JUMP JUMPDEST DUP7 DUP2 SSTORE DUP6 SWAP5 POP DUP11 SWAP2 ADD PUSH3 0x2F2 JUMP JUMPDEST SWAP3 POP DUP2 SWAP3 PUSH3 0x2E4 JUMP JUMPDEST PUSH4 0x4E487B71 PUSH1 0xE0 SHL DUP4 MSTORE PUSH1 0x22 PUSH1 0x4 MSTORE PUSH1 0x24 DUP4 REVERT JUMPDEST SWAP5 PUSH1 0x7F AND SWAP5 PUSH3 0xA7 JUMP JUMPDEST PUSH4 0x4E487B71 PUSH1 0xE0 SHL PUSH1 0x0 MSTORE PUSH1 0x41 PUSH1 0x4 MSTORE PUSH1 0x24 PUSH1 0x0 REVERT JUMPDEST PUSH1 0x0 DUP1 REVERT JUMPDEST PUSH1 0x40 MLOAD SWAP2 SWAP1 PUSH1 0x1F ADD PUSH1 0x1F NOT AND DUP3 ADD PUSH1 0x1 PUSH1 0x1 PUSH1 0x40 SHL SUB DUP2 GT DUP4 DUP3 LT OR PUSH3 0x33A JUMPI PUSH1 0x40 MSTORE JUMP JUMPDEST SWAP2 SWAP1 DUP1 PUSH1 0x1F DUP5 ADD SLT ISZERO PUSH3 0x350 JUMPI DUP3 MLOAD PUSH1 0x1 PUSH1 0x1 PUSH1 0x40 SHL SUB DUP2 GT PUSH3 0x33A JUMPI PUSH1 0x20 SWAP1 PUSH3 0x3B1 PUSH1 0x1F DUP3 ADD PUSH1 0x1F NOT AND DUP4 ADD PUSH3 0x355 JUMP JUMPDEST SWAP3 DUP2 DUP5 MSTORE DUP3 DUP3 DUP8 ADD ADD GT PUSH3 0x350 JUMPI PUSH1 0x0 JUMPDEST DUP2 DUP2 LT PUSH3 0x3D9 JUMPI POP DUP3 PUSH1 0x0 SWAP4 SWAP5 SWAP6 POP ADD ADD MSTORE SWAP1 JUMP JUMPDEST DUP6 DUP2 ADD DUP4 ADD MLOAD DUP5 DUP3 ADD DUP5 ADD MSTORE DUP3 ADD PUSH3 0x3C3 JUMP INVALID PUSH1 0x80 PUSH1 0x40 SWAP1 DUP1 DUP3 MSTORE PUSH1 0x4 SWAP2 DUP3 CALLDATASIZE LT ISZERO PUSH2 0x17 JUMPI PUSH1 0x0 DUP1 REVERT JUMPDEST PUSH1 0x0 SWAP2 DUP3 CALLDATALOAD PUSH1 0xE0 SHR SWAP1 DUP2 PUSH4 0x1FFC9A7 EQ PUSH2 0xD4E JUMPI POP DUP1 PUSH4 0x6FDDE03 EQ PUSH2 0xC83 JUMPI DUP1 PUSH4 0x81812FC EQ PUSH2 0xC49 JUMPI DUP1 PUSH4 0x95EA7B3 EQ PUSH2 0xB55 JUMPI DUP1 PUSH4 0x1B6CDE10 EQ PUSH2 0xB37 JUMPI DUP1 PUSH4 0x23B872DD EQ PUSH2 0xB1F JUMPI DUP1 PUSH4 0x2494B2A1 EQ PUSH2 0x8DF JUMPI DUP1 PUSH4 0x3FC70F2C EQ PUSH2 0x8B1 JUMPI DUP1 PUSH4 0x42842E0E EQ PUSH2 0x889 JUMPI DUP1 PUSH4 0x54996D18 EQ PUSH2 0x7D6 JUMPI DUP1 PUSH4 0x6352211E EQ PUSH2 0x7A6 JUMPI DUP1 PUSH4 0x6A019B7F EQ PUSH2 0x6FD JUMPI DUP1 PUSH4 0x70A08231 EQ PUSH2 0x68F JUMPI DUP1 PUSH4 0x763D0F62 EQ PUSH2 0x664 JUMPI DUP1 PUSH4 0x91F3F18C EQ PUSH2 0x63D JUMPI DUP1 PUSH4 0x95D89B41 EQ PUSH2 0x524 JUMPI DUP1 PUSH4 0xA22CB465 EQ PUSH2 0x468 JUMPI DUP1 PUSH4 0xB88D4FDE EQ PUSH2 0x3DE JUMPI DUP1 PUSH4 0xC87B56DD EQ PUSH2 0x38D JUMPI DUP1 PUSH4 0xCC56F2D3 EQ PUSH2 0x362 JUMPI DUP1 PUSH4 0xCFF840F0 EQ PUSH2 0x337 JUMPI DUP1 PUSH4 0xD2B325F4 EQ PUSH2 0x30A JUMPI DUP1 PUSH4 0xD5F39488 EQ PUSH2 0x2E3 JUMPI DUP1 PUSH4 0xE985E9C5 EQ PUSH2 0x296 JUMPI DUP1 PUSH4 0xF530BD94 EQ PUSH2 0x278 JUMPI PUSH4 0xF687B504 EQ PUSH2 0x143 JUMPI PUSH1 0x0 DUP1 REVERT JUMPDEST CALLVALUE PUSH2 0x274 JUMPI PUSH1 0x60 CALLDATASIZE PUSH1 0x3 NOT ADD SLT PUSH2 0x274 JUMPI PUSH1 0x24 CALLDATALOAD PUSH1 0x3 DUP2 LT ISZERO PUSH2 0x270 JUMPI PUSH2 0x168 PUSH2 0xEC4 JUMP JUMPDEST PUSH1 0x1 PUSH1 0x1 PUSH1 0xA0 SHL SUB PUSH1 0x6 SLOAD AND CALLER EQ DUP1 ISZERO PUSH2 0x25B JUMPI JUMPDEST PUSH2 0x24C JUMPI DUP3 PUSH1 0x20 SWAP6 SWAP3 PUSH1 0x1 SWAP3 DUP4 PUSH1 0x9 SWAP3 DUP2 DUP5 SLOAD ADD DUP1 DUP6 SSTORE DUP2 ISZERO PUSH2 0x220 JUMPI JUMPDEST POP EQ DUP1 PUSH2 0x1EF JUMPI JUMPDEST PUSH2 0x1BD JUMPI JUMPDEST POP SLOAD SWAP5 DUP6 SWAP4 CALLDATALOAD DUP2 MSTORE PUSH1 0xA DUP8 MSTORE KECCAK256 ADD SSTORE MLOAD SWAP1 DUP2 MSTORE RETURN JUMPDEST DUP2 SLOAD DUP8 MSTORE PUSH1 0xB DUP9 MSTORE DUP3 DUP8 KECCAK256 PUSH2 0x200 PUSH2 0xFF00 NOT DUP3 SLOAD AND OR SWAP1 SSTORE DUP2 SLOAD DUP8 MSTORE PUSH1 0xFF DUP4 DUP9 KECCAK256 SWAP2 AND PUSH1 0xFF NOT DUP3 SLOAD AND OR SWAP1 SSTORE CODESIZE PUSH2 0x1A8 JUMP JUMPDEST DUP3 SLOAD DUP9 MSTORE PUSH1 0xB DUP10 MSTORE DUP4 DUP9 KECCAK256 DUP1 SLOAD PUSH2 0xFF00 NOT AND PUSH2 0x100 OR SWAP1 SSTORE DUP3 SLOAD DUP9 MSTORE DUP4 DUP9 KECCAK256 DUP1 SLOAD PUSH1 0xFF NOT AND PUSH1 0xFF DUP5 AND OR SWAP1 SSTORE PUSH2 0x1A3 JUMP JUMPDEST DUP10 MSTORE PUSH1 0xB DUP11 MSTORE DUP5 DUP10 KECCAK256 DUP1 SLOAD PUSH2 0xFF00 NOT AND SWAP1 SSTORE DUP4 SLOAD DUP10 MSTORE DUP5 DUP10 KECCAK256 DUP1 SLOAD PUSH1 0xFF NOT AND PUSH1 0xFF DUP6 AND OR SWAP1 SSTORE CODESIZE PUSH2 0x19B JUMP JUMPDEST DUP5 DUP4 MLOAD PUSH4 0xD79D3ADB PUSH1 0xE0 SHL DUP2 MSTORE REVERT JUMPDEST POP CALLER DUP5 MSTORE PUSH1 0xC PUSH1 0x20 MSTORE PUSH1 0xFF DUP4 DUP6 KECCAK256 SLOAD AND PUSH2 0x17D JUMP JUMPDEST DUP3 DUP1 REVERT JUMPDEST POP DUP1 REVERT JUMPDEST POP CALLVALUE PUSH2 0x274 JUMPI DUP2 PUSH1 0x3 NOT CALLDATASIZE ADD SLT PUSH2 0x274 JUMPI PUSH1 0x20 SWAP1 PUSH1 0x9 SLOAD SWAP1 MLOAD SWAP1 DUP2 MSTORE RETURN JUMPDEST POP CALLVALUE PUSH2 0x274 JUMPI DUP1 PUSH1 0x3 NOT CALLDATASIZE ADD SLT PUSH2 0x274 JUMPI PUSH1 0xFF DUP2 PUSH1 0x20 SWAP4 PUSH2 0x2B5 PUSH2 0xE5E JUMP JUMPDEST PUSH2 0x2BD PUSH2 0xE79 JUMP JUMPDEST PUSH1 0x1 PUSH1 0x1 PUSH1 0xA0 SHL SUB SWAP2 DUP3 AND DUP4 MSTORE PUSH1 0x5 DUP8 MSTORE DUP4 DUP4 KECCAK256 SWAP2 AND DUP3 MSTORE DUP6 MSTORE KECCAK256 SLOAD SWAP2 MLOAD SWAP2 AND ISZERO ISZERO DUP2 MSTORE RETURN JUMPDEST POP CALLVALUE PUSH2 0x274 JUMPI DUP2 PUSH1 0x3 NOT CALLDATASIZE ADD SLT PUSH2 0x274 JUMPI PUSH1 0x20 SWAP1 PUSH1 0x1 PUSH1 0x1 PUSH1 0xA0 SHL SUB PUSH1 0x6 SLOAD AND SWAP1 MLOAD SWAP1 DUP2 MSTORE RETURN JUMPDEST POP DUP3 CALLVALUE PUSH2 0x270 JUMPI PUSH1 0x20 CALLDATASIZE PUSH1 0x3 NOT ADD SLT PUSH2 0x270 JUMPI DUP2 PUSH1 0x20 SWAP4 PUSH1 0xFF SWAP3 CALLDATALOAD DUP2 MSTORE PUSH1 0xD DUP6 MSTORE KECCAK256 SLOAD AND SWAP1 MLOAD SWAP1 ISZERO ISZERO DUP2 MSTORE RETURN JUMPDEST POP DUP3 CALLVALUE PUSH2 0x270 JUMPI PUSH1 0x20 CALLDATASIZE PUSH1 0x3 NOT ADD SLT PUSH2 0x270 JUMPI DUP2 PUSH1 0x20 SWAP4 PUSH1 0xFF SWAP3 CALLDATALOAD DUP2 MSTORE PUSH1 0xA DUP6 MSTORE KECCAK256 SLOAD AND SWAP1 MLOAD SWAP1 DUP2 MSTORE RETURN JUMPDEST POP DUP3 CALLVALUE PUSH2 0x270 JUMPI PUSH1 0x20 CALLDATASIZE PUSH1 0x3 NOT ADD SLT PUSH2 0x270 JUMPI DUP2 PUSH1 0x20 SWAP4 PUSH1 0x1 SWAP3 CALLDATALOAD DUP2 MSTORE PUSH1 0xA DUP6 MSTORE KECCAK256 ADD SLOAD SWAP1 MLOAD SWAP1 DUP2 MSTORE RETURN JUMPDEST POP CALLVALUE PUSH2 0x274 JUMPI PUSH1 0x20 CALLDATASIZE PUSH1 0x3 NOT ADD SLT PUSH2 0x274 JUMPI PUSH2 0x3AC PUSH2 0x3DA SWAP4 CALLDATALOAD PUSH2 0x10EC JUMP JUMPDEST POP DUP2 DUP2 MLOAD PUSH2 0x3B9 DUP2 PUSH2 0xEE3 JUMP JUMPDEST MSTORE DUP1 MLOAD SWAP2 PUSH2 0x3C6 DUP4 PUSH2 0xEE3 JUMP JUMPDEST DUP3 MSTORE MLOAD SWAP2 DUP3 SWAP2 PUSH1 0x20 DUP4 MSTORE PUSH1 0x20 DUP4 ADD SWAP1 PUSH2 0xE1E JUMP JUMPDEST SUB SWAP1 RETURN JUMPDEST POP DUP3 SWAP1 CALLVALUE PUSH2 0x270 JUMPI PUSH1 0x80 CALLDATASIZE PUSH1 0x3 NOT ADD SLT PUSH2 0x270 JUMPI PUSH2 0x3FA PUSH2 0xE5E JUMP JUMPDEST PUSH2 0x402 PUSH2 0xE79 JUMP JUMPDEST DUP5 PUSH1 0x64 CALLDATALOAD SWAP5 PUSH8 0xFFFFFFFFFFFFFFFF DUP7 GT PUSH2 0x274 JUMPI CALLDATASIZE PUSH1 0x23 DUP8 ADD SLT ISZERO PUSH2 0x274 JUMPI DUP6 ADD CALLDATALOAD SWAP5 PUSH2 0x43A PUSH2 0x431 DUP8 PUSH2 0xF37 JUMP JUMPDEST SWAP6 MLOAD SWAP6 DUP7 PUSH2 0xF15 JUMP JUMPDEST DUP6 DUP6 MSTORE CALLDATASIZE PUSH1 0x24 DUP8 DUP4 ADD ADD GT PUSH2 0x274 JUMPI DUP6 PUSH2 0x465 SWAP7 PUSH1 0x24 PUSH1 0x20 SWAP4 ADD DUP4 DUP9 ADD CALLDATACOPY DUP6 ADD ADD MSTORE PUSH1 0x44 CALLDATALOAD SWAP2 PUSH2 0xF53 JUMP JUMPDEST DUP1 RETURN JUMPDEST POP DUP3 SWAP1 CALLVALUE PUSH2 0x270 JUMPI DUP1 PUSH1 0x3 NOT CALLDATASIZE ADD SLT PUSH2 0x270 JUMPI PUSH2 0x483 PUSH2 0xE5E JUMP JUMPDEST SWAP1 PUSH1 0x1 PUSH1 0x1 PUSH1 0xA0 SHL SUB PUSH2 0x494 PUSH2 0xED4 JUMP JUMPDEST SWAP3 AND SWAP3 DUP4 ISZERO PUSH2 0x4F6 JUMPI POP CALLER DUP5 MSTORE PUSH1 0x5 PUSH1 0x20 MSTORE DUP1 DUP5 KECCAK256 DUP4 DUP6 MSTORE PUSH1 0x20 MSTORE PUSH2 0x4C7 DUP3 DUP3 DUP7 KECCAK256 SWAP1 PUSH1 0xFF DUP1 NOT DUP4 SLOAD AND SWAP2 ISZERO ISZERO AND OR SWAP1 SSTORE JUMP JUMPDEST MLOAD SWAP1 ISZERO ISZERO DUP2 MSTORE PUSH32 0x17307EAB39AB6107E8899845AD3D59BD9653F200F220920489CA2B5937696C31 PUSH1 0x20 CALLER SWAP3 LOG3 DUP1 RETURN JUMPDEST DUP4 PUSH1 0x24 SWAP3 MLOAD SWAP2 PUSH32 0x5B08BA1800000000000000000000000000000000000000000000000000000000 DUP4 MSTORE DUP3 ADD MSTORE REVERT JUMPDEST POP SWAP1 CALLVALUE PUSH2 0x63A JUMPI DUP1 PUSH1 0x3 NOT CALLDATASIZE ADD SLT PUSH2 0x63A JUMPI DUP2 MLOAD SWAP2 DUP2 PUSH1 0x1 SWAP3 DUP4 SLOAD SWAP4 DUP5 DUP2 SHR SWAP2 DUP2 DUP7 AND SWAP6 DUP7 ISZERO PUSH2 0x630 JUMPI JUMPDEST PUSH1 0x20 SWAP7 DUP8 DUP6 LT DUP2 EQ PUSH2 0x61D JUMPI DUP9 SWAP10 POP SWAP7 DUP9 SWAP7 SWAP8 DUP6 DUP3 SWAP11 MSTORE SWAP2 DUP3 PUSH1 0x0 EQ PUSH2 0x5F6 JUMPI POP POP PUSH1 0x1 EQ PUSH2 0x59B JUMPI JUMPDEST POP POP POP PUSH2 0x3DA SWAP3 SWAP2 PUSH2 0x58C SWAP2 SUB DUP6 PUSH2 0xF15 JUMP JUMPDEST MLOAD SWAP3 DUP3 DUP5 SWAP4 DUP5 MSTORE DUP4 ADD SWAP1 PUSH2 0xE1E JUMP JUMPDEST SWAP2 SWAP1 DUP7 SWAP4 POP DUP1 DUP4 MSTORE PUSH32 0xB10E2D527612073B26EECDFD717E6A320CF44B4AFAC2B0732D9FCBE2B7FA0CF6 JUMPDEST DUP3 DUP5 LT PUSH2 0x5DE JUMPI POP POP POP DUP3 ADD ADD DUP2 PUSH2 0x58C PUSH2 0x3DA PUSH2 0x579 JUMP JUMPDEST DUP1 SLOAD DUP5 DUP11 ADD DUP7 ADD MSTORE DUP9 SWAP6 POP DUP8 SWAP5 SWAP1 SWAP4 ADD SWAP3 DUP2 ADD PUSH2 0x5C5 JUMP JUMPDEST PUSH1 0xFF NOT AND DUP8 DUP3 ADD MSTORE SWAP4 ISZERO ISZERO PUSH1 0x5 SHL DUP7 ADD SWAP1 SWAP4 ADD SWAP4 POP DUP5 SWAP3 POP PUSH2 0x58C SWAP2 POP PUSH2 0x3DA SWAP1 POP PUSH2 0x579 JUMP JUMPDEST PUSH1 0x24 DUP4 PUSH1 0x22 DUP13 PUSH4 0x4E487B71 PUSH1 0xE0 SHL DUP4 MSTORE MSTORE REVERT JUMPDEST SWAP3 PUSH1 0x7F AND SWAP3 PUSH2 0x54F JUMP JUMPDEST DUP1 REVERT JUMPDEST POP CALLVALUE PUSH2 0x274 JUMPI DUP2 PUSH1 0x3 NOT CALLDATASIZE ADD SLT PUSH2 0x274 JUMPI PUSH1 0x20 SWAP1 PUSH1 0x1 PUSH1 0x1 PUSH1 0xA0 SHL SUB PUSH1 0x7 SLOAD AND SWAP1 MLOAD SWAP1 DUP2 MSTORE RETURN JUMPDEST POP DUP3 CALLVALUE PUSH2 0x270 JUMPI PUSH1 0x20 CALLDATASIZE PUSH1 0x3 NOT ADD SLT PUSH2 0x270 JUMPI DUP2 PUSH1 0x20 SWAP4 PUSH1 0xFF SWAP3 CALLDATALOAD DUP2 MSTORE PUSH1 0xB DUP6 MSTORE KECCAK256 SLOAD AND SWAP1 MLOAD SWAP1 DUP2 MSTORE RETURN JUMPDEST POP SWAP1 CALLVALUE PUSH2 0x63A JUMPI PUSH1 0x20 CALLDATASIZE PUSH1 0x3 NOT ADD SLT PUSH2 0x63A JUMPI PUSH1 0x1 PUSH1 0x1 PUSH1 0xA0 SHL SUB PUSH2 0x6B2 PUSH2 0xE5E JUMP JUMPDEST AND SWAP3 DUP4 ISZERO PUSH2 0x6CF JUMPI POP DUP1 PUSH1 0x20 SWAP4 DUP4 SWAP3 MSTORE PUSH1 0x3 DUP5 MSTORE KECCAK256 SLOAD SWAP1 MLOAD SWAP1 DUP2 MSTORE RETURN JUMPDEST SWAP1 PUSH1 0x24 SWAP3 MLOAD SWAP2 PUSH32 0x89C62B6400000000000000000000000000000000000000000000000000000000 DUP4 MSTORE DUP3 ADD MSTORE REVERT JUMPDEST POP CALLVALUE PUSH2 0x274 JUMPI DUP1 PUSH1 0x3 NOT CALLDATASIZE ADD SLT PUSH2 0x274 JUMPI DUP3 CALLDATALOAD PUSH2 0x718 PUSH2 0xED4 JUMP JUMPDEST PUSH1 0x1 PUSH1 0x1 PUSH1 0xA0 SHL SUB PUSH1 0x7 SLOAD AND CALLER EQ PUSH2 0x77E JUMPI DUP4 SWAP5 POP DUP2 PUSH32 0xC4B31AE5059620910AC0A7A772A9FC25A174520541A9EB16B8D34A92859D25E1 SWAP5 MSTORE PUSH1 0xD PUSH1 0x20 MSTORE PUSH2 0x76E DUP2 DUP5 DUP8 KECCAK256 SWAP1 PUSH1 0xFF DUP1 NOT DUP4 SLOAD AND SWAP2 ISZERO ISZERO AND OR SWAP1 SSTORE JUMP JUMPDEST DUP3 MLOAD SWAP2 DUP3 MSTORE ISZERO ISZERO PUSH1 0x20 DUP3 ADD MSTORE LOG1 DUP1 RETURN JUMPDEST DUP5 DUP4 MLOAD PUSH32 0x35C2674B00000000000000000000000000000000000000000000000000000000 DUP2 MSTORE REVERT JUMPDEST POP SWAP1 CALLVALUE PUSH2 0x63A JUMPI PUSH1 0x20 CALLDATASIZE PUSH1 0x3 NOT ADD SLT PUSH2 0x63A JUMPI POP PUSH1 0x1 PUSH1 0x1 PUSH1 0xA0 SHL SUB PUSH2 0x7CE PUSH1 0x20 SWAP4 CALLDATALOAD PUSH2 0x10EC JUMP JUMPDEST SWAP2 MLOAD SWAP2 AND DUP2 MSTORE RETURN JUMPDEST POP DUP3 SWAP1 CALLVALUE PUSH2 0x270 JUMPI DUP1 PUSH1 0x3 NOT CALLDATASIZE ADD SLT PUSH2 0x270 JUMPI PUSH2 0x7F1 PUSH2 0xE5E JUMP JUMPDEST SWAP2 PUSH2 0x7FA PUSH2 0xED4 JUMP JUMPDEST SWAP3 PUSH1 0x1 PUSH1 0x1 PUSH1 0xA0 SHL SUB SWAP2 DUP3 PUSH1 0x6 SLOAD AND CALLER EQ DUP1 ISZERO PUSH2 0x874 JUMPI JUMPDEST PUSH2 0x866 JUMPI POP SWAP2 PUSH2 0x85E PUSH32 0x4F783C179409B4127238BC9C990BC99B9A651666A0D20B51D6C42849EB88466D SWAP5 SWAP3 PUSH1 0x20 SWAP5 AND SWAP3 DUP4 DUP8 MSTORE PUSH1 0xC DUP6 MSTORE DUP3 DUP8 KECCAK256 SWAP1 PUSH1 0xFF DUP1 NOT DUP4 SLOAD AND SWAP2 ISZERO ISZERO AND OR SWAP1 SSTORE JUMP JUMPDEST MLOAD SWAP1 DUP2 MSTORE LOG1 DUP1 RETURN JUMPDEST DUP4 MLOAD PUSH4 0xD79D3ADB PUSH1 0xE0 SHL DUP2 MSTORE REVERT JUMPDEST POP CALLER DUP7 MSTORE PUSH1 0xC PUSH1 0x20 MSTORE PUSH1 0xFF DUP5 DUP8 KECCAK256 SLOAD AND PUSH2 0x812 JUMP JUMPDEST POP CALLVALUE PUSH2 0x274 JUMPI PUSH2 0x465 SWAP1 PUSH2 0x89C CALLDATASIZE PUSH2 0xE8F JUMP JUMPDEST SWAP2 SWAP3 MLOAD SWAP3 PUSH2 0x8A9 DUP5 PUSH2 0xEE3 JUMP JUMPDEST DUP6 DUP5 MSTORE PUSH2 0xF53 JUMP JUMPDEST POP DUP3 CALLVALUE PUSH2 0x270 JUMPI PUSH1 0x20 CALLDATASIZE PUSH1 0x3 NOT ADD SLT PUSH2 0x270 JUMPI DUP2 PUSH1 0x20 SWAP4 PUSH1 0xFF SWAP3 CALLDATALOAD DUP2 MSTORE PUSH1 0xA DUP6 MSTORE KECCAK256 SLOAD PUSH1 0x8 SHR AND SWAP1 MLOAD SWAP1 DUP2 MSTORE RETURN JUMPDEST POP DUP3 CALLVALUE PUSH2 0x270 JUMPI PUSH1 0xA0 CALLDATASIZE PUSH1 0x3 NOT ADD SLT PUSH2 0x270 JUMPI DUP1 CALLDATALOAD SWAP3 PUSH1 0xFF DUP5 AND SWAP2 DUP3 DUP6 SUB PUSH2 0x274 JUMPI PUSH1 0x24 CALLDATALOAD SWAP2 PUSH1 0xFF DUP4 AND DUP1 SWAP4 SUB PUSH2 0x63A JUMPI PUSH2 0x918 PUSH2 0xEC4 JUMP JUMPDEST SWAP3 PUSH1 0x64 CALLDATALOAD SWAP3 PUSH1 0x1 PUSH1 0x1 PUSH1 0xA0 SHL SUB SWAP3 DUP4 DUP6 AND DUP1 SWAP6 SUB PUSH2 0x63A JUMPI PUSH1 0x84 CALLDATALOAD SWAP6 DUP5 PUSH1 0x6 SLOAD AND CALLER EQ DUP1 ISZERO PUSH2 0xB0A JUMPI JUMPDEST PUSH2 0xAFB JUMPI PUSH1 0x2 DUP9 LT ISZERO PUSH2 0xAD3 JUMPI PUSH1 0x2 DUP5 LT ISZERO PUSH2 0xAD3 JUMPI PUSH1 0xFF AND SWAP4 PUSH1 0x2 DUP6 LT ISZERO PUSH2 0xAD3 JUMPI DUP7 PUSH1 0x8 SSTORE DUP7 DUP3 MSTORE PUSH1 0x20 SWAP10 PUSH1 0xA DUP12 MSTORE DUP10 DUP4 KECCAK256 DUP6 PUSH1 0xFF NOT DUP3 SLOAD AND OR SWAP1 SSTORE PUSH1 0x8 SLOAD DUP4 MSTORE DUP10 DUP4 KECCAK256 SWAP1 PUSH2 0xFF00 DUP3 SLOAD SWAP2 PUSH1 0x8 SHL AND SWAP1 PUSH2 0xFF00 NOT AND OR SWAP1 SSTORE DUP6 ISZERO PUSH2 0xABD JUMPI DUP7 DUP3 MSTORE PUSH1 0x2 DUP11 MSTORE DUP9 DUP3 KECCAK256 SLOAD AND DUP7 DUP7 DUP3 ISZERO ISZERO SWAP3 DUP4 PUSH2 0xA85 JUMPI JUMPDEST DUP2 DUP6 MSTORE PUSH1 0x3 DUP14 MSTORE DUP12 DUP6 KECCAK256 PUSH1 0x1 DUP2 SLOAD ADD SWAP1 SSTORE DUP3 DUP6 MSTORE PUSH1 0x2 DUP14 MSTORE DUP12 DUP6 KECCAK256 DUP3 PUSH1 0x1 PUSH1 0x1 PUSH1 0xA0 SHL SUB NOT DUP3 SLOAD AND OR SWAP1 SSTORE PUSH32 0xDDF252AD1BE2C89B69C2B068FC378DAA952BA7F163C4A11628F55A4DF523B3EF DUP6 DUP1 LOG4 PUSH2 0xA56 JUMPI POP POP DUP6 MLOAD SWAP5 DUP6 MSTORE DUP7 DUP6 ADD MSTORE DUP4 DUP6 ADD MSTORE PUSH1 0x60 DUP4 ADD MSTORE PUSH1 0x80 DUP3 ADD MSTORE PUSH32 0x348A824A73325A8ECAB2DF0BBC774084330FE3FF06C0498F72B92A0CD19A9D09 SWAP1 PUSH1 0xA0 SWAP1 LOG1 PUSH1 0x8 SLOAD SWAP1 MLOAD SWAP1 DUP2 MSTORE RETURN JUMPDEST PUSH1 0x24 SWAP3 POP DUP8 MLOAD SWAP2 PUSH32 0x73C6AC6E00000000000000000000000000000000000000000000000000000000 DUP4 MSTORE DUP3 ADD MSTORE REVERT JUMPDEST PUSH2 0xAA6 DUP4 PUSH1 0x0 MSTORE PUSH1 0x4 PUSH1 0x20 MSTORE PUSH1 0x40 PUSH1 0x0 KECCAK256 PUSH1 0x1 PUSH1 0x1 PUSH1 0xA0 SHL SUB NOT DUP2 SLOAD AND SWAP1 SSTORE JUMP JUMPDEST DUP1 DUP6 MSTORE PUSH1 0x3 DUP14 MSTORE DUP12 DUP6 KECCAK256 DUP1 SLOAD PUSH1 0x0 NOT ADD SWAP1 SSTORE PUSH2 0x9BA JUMP JUMPDEST PUSH1 0x24 DUP4 DUP4 DUP12 MLOAD SWAP2 PUSH4 0x32505749 PUSH1 0xE1 SHL DUP4 MSTORE DUP3 ADD MSTORE REVERT JUMPDEST DUP3 DUP10 MLOAD PUSH32 0xAA7FEADC00000000000000000000000000000000000000000000000000000000 DUP2 MSTORE REVERT JUMPDEST DUP3 DUP10 MLOAD PUSH4 0xD79D3ADB PUSH1 0xE0 SHL DUP2 MSTORE REVERT JUMPDEST POP CALLER DUP3 MSTORE PUSH1 0xC PUSH1 0x20 MSTORE PUSH1 0xFF DUP10 DUP4 KECCAK256 SLOAD AND PUSH2 0x942 JUMP JUMPDEST DUP3 CALLVALUE PUSH2 0x63A JUMPI PUSH2 0x465 PUSH2 0xB31 CALLDATASIZE PUSH2 0xE8F JUMP JUMPDEST SWAP2 PUSH2 0x1127 JUMP JUMPDEST POP CALLVALUE PUSH2 0x274 JUMPI DUP2 PUSH1 0x3 NOT CALLDATASIZE ADD SLT PUSH2 0x274 JUMPI PUSH1 0x20 SWAP1 PUSH1 0x8 SLOAD SWAP1 MLOAD SWAP1 DUP2 MSTORE RETURN JUMPDEST POP DUP3 SWAP1 CALLVALUE PUSH2 0x270 JUMPI DUP1 PUSH1 0x3 NOT CALLDATASIZE ADD SLT PUSH2 0x270 JUMPI PUSH2 0xB70 PUSH2 0xE5E JUMP JUMPDEST SWAP2 PUSH1 0x24 CALLDATALOAD PUSH2 0xB7D DUP2 PUSH2 0x10EC JUMP JUMPDEST CALLER ISZERO ISZERO DUP1 PUSH2 0xC36 JUMPI JUMPDEST DUP1 PUSH2 0xC0E JUMPI JUMPDEST PUSH2 0xBDF JUMPI DUP2 SWAP1 PUSH1 0x1 PUSH1 0x1 PUSH1 0xA0 SHL SUB DUP1 SWAP7 AND SWAP6 DUP7 SWAP2 AND PUSH32 0x8C5BE1E5EBEC7D5BD14F71427D1E84F3DD0314C0F7B2291E5B200AC8C7C3B925 DUP9 DUP1 LOG4 DUP5 MSTORE PUSH1 0x20 MSTORE DUP3 KECCAK256 SWAP1 PUSH1 0x1 PUSH1 0x1 PUSH1 0xA0 SHL SUB NOT DUP3 SLOAD AND OR SWAP1 SSTORE DUP1 RETURN JUMPDEST DUP4 MLOAD PUSH32 0xA9FBF51F00000000000000000000000000000000000000000000000000000000 DUP2 MSTORE CALLER DUP2 DUP6 ADD MSTORE PUSH1 0x24 SWAP1 REVERT JUMPDEST POP PUSH1 0x1 PUSH1 0x1 PUSH1 0xA0 SHL SUB DUP2 AND DUP7 MSTORE PUSH1 0x5 PUSH1 0x20 MSTORE DUP4 DUP7 KECCAK256 CALLER DUP8 MSTORE PUSH1 0x20 MSTORE PUSH1 0xFF DUP5 DUP8 KECCAK256 SLOAD AND ISZERO PUSH2 0xB8C JUMP JUMPDEST POP CALLER PUSH1 0x1 PUSH1 0x1 PUSH1 0xA0 SHL SUB DUP3 AND EQ ISZERO PUSH2 0xB86 JUMP JUMPDEST POP DUP3 CALLVALUE PUSH2 0x270 JUMPI PUSH1 0x20 CALLDATASIZE PUSH1 0x3 NOT ADD SLT PUSH2 0x270 JUMPI DUP2 PUSH1 0x20 SWAP4 DUP3 PUSH1 0x1 PUSH1 0x1 PUSH1 0xA0 SHL SUB SWAP4 CALLDATALOAD PUSH2 0xC74 DUP2 PUSH2 0x10EC JUMP JUMPDEST POP DUP3 MSTORE DUP6 MSTORE KECCAK256 SLOAD AND SWAP1 MLOAD SWAP1 DUP2 MSTORE RETURN JUMPDEST POP SWAP1 CALLVALUE PUSH2 0x63A JUMPI DUP1 PUSH1 0x3 NOT CALLDATASIZE ADD SLT PUSH2 0x63A JUMPI DUP2 MLOAD SWAP2 DUP2 DUP3 SLOAD SWAP3 PUSH1 0x1 DUP5 DUP2 SHR SWAP2 DUP2 DUP7 AND SWAP6 DUP7 ISZERO PUSH2 0xD44 JUMPI JUMPDEST PUSH1 0x20 SWAP7 DUP8 DUP6 LT DUP2 EQ PUSH2 0x61D JUMPI DUP9 SWAP10 POP SWAP7 DUP9 SWAP7 SWAP8 DUP6 DUP3 SWAP11 MSTORE SWAP2 DUP3 PUSH1 0x0 EQ PUSH2 0x5F6 JUMPI POP POP PUSH1 0x1 EQ PUSH2 0xCE9 JUMPI POP POP POP PUSH2 0x3DA SWAP3 SWAP2 PUSH2 0x58C SWAP2 SUB DUP6 PUSH2 0xF15 JUMP JUMPDEST SWAP2 SWAP1 DUP7 SWAP4 POP DUP3 DUP1 MSTORE PUSH32 0x290DECD9548B62A8D60345A988386FC84BA6BC95484008F6362F93160EF3E563 JUMPDEST DUP3 DUP5 LT PUSH2 0xD2C JUMPI POP POP POP DUP3 ADD ADD DUP2 PUSH2 0x58C PUSH2 0x3DA PUSH2 0x579 JUMP JUMPDEST DUP1 SLOAD DUP5 DUP11 ADD DUP7 ADD MSTORE DUP9 SWAP6 POP DUP8 SWAP5 SWAP1 SWAP4 ADD SWAP3 DUP2 ADD PUSH2 0xD13 JUMP JUMPDEST SWAP3 PUSH1 0x7F AND SWAP3 PUSH2 0xCAD JUMP JUMPDEST DUP4 SWAP1 DUP6 CALLVALUE PUSH2 0x270 JUMPI PUSH1 0x20 CALLDATASIZE PUSH1 0x3 NOT ADD SLT PUSH2 0x270 JUMPI CALLDATALOAD PUSH32 0xFFFFFFFF00000000000000000000000000000000000000000000000000000000 DUP2 AND DUP1 SWAP2 SUB PUSH2 0x270 JUMPI PUSH1 0x20 SWAP3 POP PUSH32 0x80AC58CD00000000000000000000000000000000000000000000000000000000 DUP2 EQ SWAP1 DUP2 ISZERO PUSH2 0xDF4 JUMPI JUMPDEST DUP2 ISZERO PUSH2 0xDCA JUMPI JUMPDEST POP ISZERO ISZERO DUP2 MSTORE RETURN JUMPDEST PUSH32 0x1FFC9A700000000000000000000000000000000000000000000000000000000 SWAP2 POP EQ DUP4 PUSH2 0xDC3 JUMP JUMPDEST PUSH32 0x5B5E139F00000000000000000000000000000000000000000000000000000000 DUP2 EQ SWAP2 POP PUSH2 0xDBC JUMP JUMPDEST SWAP2 SWAP1 DUP3 MLOAD SWAP3 DUP4 DUP3 MSTORE PUSH1 0x0 JUMPDEST DUP5 DUP2 LT PUSH2 0xE4A JUMPI POP POP DUP3 PUSH1 0x0 PUSH1 0x20 DUP1 SWAP5 SWAP6 DUP5 ADD ADD MSTORE PUSH1 0x1F DUP1 NOT SWAP2 ADD AND ADD ADD SWAP1 JUMP JUMPDEST PUSH1 0x20 DUP2 DUP4 ADD DUP2 ADD MLOAD DUP5 DUP4 ADD DUP3 ADD MSTORE ADD PUSH2 0xE29 JUMP JUMPDEST PUSH1 0x4 CALLDATALOAD SWAP1 PUSH1 0x1 PUSH1 0x1 PUSH1 0xA0 SHL SUB DUP3 AND DUP3 SUB PUSH2 0xE74 JUMPI JUMP JUMPDEST PUSH1 0x0 DUP1 REVERT JUMPDEST PUSH1 0x24 CALLDATALOAD SWAP1 PUSH1 0x1 PUSH1 0x1 PUSH1 0xA0 SHL SUB DUP3 AND DUP3 SUB PUSH2 0xE74 JUMPI JUMP JUMPDEST PUSH1 0x60 SWAP1 PUSH1 0x3 NOT ADD SLT PUSH2 0xE74 JUMPI PUSH1 0x1 PUSH1 0x1 PUSH1 0xA0 SHL SUB SWAP1 PUSH1 0x4 CALLDATALOAD DUP3 DUP2 AND DUP2 SUB PUSH2 0xE74 JUMPI SWAP2 PUSH1 0x24 CALLDATALOAD SWAP1 DUP2 AND DUP2 SUB PUSH2 0xE74 JUMPI SWAP1 PUSH1 0x44 CALLDATALOAD SWAP1 JUMP JUMPDEST PUSH1 0x44 CALLDATALOAD SWAP1 PUSH1 0xFF DUP3 AND DUP3 SUB PUSH2 0xE74 JUMPI JUMP JUMPDEST PUSH1 0x24 CALLDATALOAD SWAP1 DUP2 ISZERO ISZERO DUP3 SUB PUSH2 0xE74 JUMPI JUMP JUMPDEST PUSH1 0x20 DUP2 ADD SWAP1 DUP2 LT PUSH8 0xFFFFFFFFFFFFFFFF DUP3 GT OR PUSH2 0xEFF JUMPI PUSH1 0x40 MSTORE JUMP JUMPDEST PUSH4 0x4E487B71 PUSH1 0xE0 SHL PUSH1 0x0 MSTORE PUSH1 0x41 PUSH1 0x4 MSTORE PUSH1 0x24 PUSH1 0x0 REVERT JUMPDEST SWAP1 PUSH1 0x1F DUP1 NOT SWAP2 ADD AND DUP2 ADD SWAP1 DUP2 LT PUSH8 0xFFFFFFFFFFFFFFFF DUP3 GT OR PUSH2 0xEFF JUMPI PUSH1 0x40 MSTORE JUMP JUMPDEST PUSH8 0xFFFFFFFFFFFFFFFF DUP2 GT PUSH2 0xEFF JUMPI PUSH1 0x1F ADD PUSH1 0x1F NOT AND PUSH1 0x20 ADD SWAP1 JUMP JUMPDEST PUSH2 0xF5E DUP4 DUP4 DUP4 PUSH2 0x1127 JUMP JUMPDEST DUP2 EXTCODESIZE PUSH2 0xF6B JUMPI JUMPDEST POP POP POP POP JUMP JUMPDEST PUSH1 0x1 PUSH1 0x1 PUSH1 0xA0 SHL SUB SWAP5 SWAP2 SWAP3 SWAP4 SWAP5 DUP1 SWAP4 AND SWAP4 PUSH1 0x40 MLOAD SWAP4 PUSH32 0x150B7A0200000000000000000000000000000000000000000000000000000000 SWAP3 DUP4 DUP7 MSTORE CALLER PUSH1 0x4 DUP8 ADD MSTORE AND PUSH1 0x24 DUP6 ADD MSTORE PUSH1 0x44 DUP5 ADD MSTORE PUSH1 0x80 PUSH1 0x64 DUP5 ADD MSTORE DUP3 PUSH2 0xFCE PUSH1 0x20 SWAP7 PUSH1 0x84 DUP4 ADD SWAP1 PUSH2 0xE1E JUMP JUMPDEST SUB SWAP3 DUP6 DUP2 PUSH1 0x0 SWAP6 DUP2 DUP8 DUP10 GAS CALL DUP5 SWAP2 DUP2 PUSH2 0x1090 JUMPI JUMPDEST POP PUSH2 0x1041 JUMPI POP POP POP RETURNDATASIZE PUSH1 0x0 EQ PUSH2 0x1039 JUMPI RETURNDATASIZE PUSH2 0xFFC DUP2 PUSH2 0xF37 JUMP JUMPDEST SWAP1 PUSH2 0x100A PUSH1 0x40 MLOAD SWAP3 DUP4 PUSH2 0xF15 JUMP JUMPDEST DUP2 MSTORE DUP1 SWAP2 DUP5 RETURNDATASIZE SWAP3 ADD RETURNDATACOPY JUMPDEST DUP1 MLOAD SWAP3 DUP4 PUSH2 0x1034 JUMPI PUSH1 0x24 DUP4 PUSH1 0x40 MLOAD SWAP1 PUSH4 0x32505749 PUSH1 0xE1 SHL DUP3 MSTORE PUSH1 0x4 DUP3 ADD MSTORE REVERT JUMPDEST ADD SWAP1 POP REVERT JUMPDEST POP PUSH1 0x60 PUSH2 0x1014 JUMP JUMPDEST SWAP1 SWAP3 POP PUSH32 0xFFFFFFFF00000000000000000000000000000000000000000000000000000000 SWAP2 SWAP5 POP AND SUB PUSH2 0x1078 JUMPI POP CODESIZE DUP1 DUP1 DUP1 PUSH2 0xF65 JUMP JUMPDEST PUSH1 0x24 SWAP1 PUSH1 0x40 MLOAD SWAP1 PUSH4 0x32505749 PUSH1 0xE1 SHL DUP3 MSTORE PUSH1 0x4 DUP3 ADD MSTORE REVERT JUMPDEST SWAP1 SWAP2 POP DUP7 DUP2 DUP2 RETURNDATASIZE DUP4 GT PUSH2 0x10E5 JUMPI JUMPDEST PUSH2 0x10A8 DUP2 DUP4 PUSH2 0xF15 JUMP JUMPDEST DUP2 ADD SUB SLT PUSH2 0x10E1 JUMPI MLOAD PUSH32 0xFFFFFFFF00000000000000000000000000000000000000000000000000000000 DUP2 AND DUP2 SUB PUSH2 0x10E1 JUMPI SWAP1 CODESIZE PUSH2 0xFE2 JUMP JUMPDEST DUP5 DUP1 REVERT JUMPDEST POP RETURNDATASIZE PUSH2 0x109E JUMP JUMPDEST DUP1 PUSH1 0x0 MSTORE PUSH1 0x2 PUSH1 0x20 MSTORE PUSH1 0x1 PUSH1 0x1 PUSH1 0xA0 SHL SUB PUSH1 0x40 PUSH1 0x0 KECCAK256 SLOAD AND SWAP1 DUP2 ISZERO PUSH2 0x110F JUMPI POP SWAP1 JUMP JUMPDEST PUSH1 0x24 SWAP1 PUSH1 0x40 MLOAD SWAP1 PUSH4 0x7E273289 PUSH1 0xE0 SHL DUP3 MSTORE PUSH1 0x4 DUP3 ADD MSTORE REVERT JUMPDEST SWAP2 PUSH1 0x0 SWAP2 DUP2 DUP4 MSTORE PUSH1 0x20 SWAP4 PUSH1 0xD DUP6 MSTORE PUSH1 0x40 SWAP5 PUSH1 0xFF DUP7 DUP7 KECCAK256 SLOAD AND PUSH2 0x130E JUMPI PUSH1 0x1 PUSH1 0x1 PUSH1 0xA0 SHL SUB DUP1 SWAP4 AND SWAP1 DUP2 ISZERO PUSH2 0x12F7 JUMPI SWAP1 DUP5 SWAP2 DUP3 DUP8 MSTORE PUSH1 0x2 DUP2 MSTORE DUP5 DUP9 DUP9 KECCAK256 SLOAD AND SWAP7 DUP8 SWAP2 CALLER ISZERO ISZERO DUP1 PUSH2 0x1248 JUMPI JUMPDEST POP SWAP1 PUSH1 0x2 PUSH32 0xDDF252AD1BE2C89B69C2B068FC378DAA952BA7F163C4A11628F55A4DF523B3EF SWAP3 DUP5 PUSH2 0x1210 JUMPI JUMPDEST DUP6 DUP4 MSTORE PUSH1 0x3 DUP2 MSTORE DUP12 DUP4 KECCAK256 PUSH1 0x1 DUP2 SLOAD ADD SWAP1 SSTORE DUP7 DUP4 MSTORE MSTORE DUP10 DUP2 KECCAK256 DUP5 PUSH1 0x1 PUSH1 0x1 PUSH1 0xA0 SHL SUB NOT DUP3 SLOAD AND OR SWAP1 SSTORE DUP1 LOG4 AND SWAP3 DUP4 DUP4 SUB PUSH2 0x11D6 JUMPI POP POP POP POP JUMP JUMPDEST PUSH1 0x64 SWAP5 POP MLOAD SWAP3 PUSH32 0x64283D7B00000000000000000000000000000000000000000000000000000000 DUP5 MSTORE PUSH1 0x4 DUP5 ADD MSTORE PUSH1 0x24 DUP4 ADD MSTORE PUSH1 0x44 DUP3 ADD MSTORE REVERT JUMPDEST PUSH2 0x1231 DUP8 PUSH1 0x0 MSTORE PUSH1 0x4 PUSH1 0x20 MSTORE PUSH1 0x40 PUSH1 0x0 KECCAK256 PUSH1 0x1 PUSH1 0x1 PUSH1 0xA0 SHL SUB NOT DUP2 SLOAD AND SWAP1 SSTORE JUMP JUMPDEST DUP5 DUP4 MSTORE PUSH1 0x3 DUP2 MSTORE DUP12 DUP4 KECCAK256 DUP1 SLOAD PUSH1 0x0 NOT ADD SWAP1 SSTORE PUSH2 0x119D JUMP JUMPDEST SWAP2 SWAP4 SWAP5 POP SWAP2 POP DUP1 PUSH2 0x12B6 JUMPI JUMPDEST ISZERO PUSH2 0x1264 JUMPI DUP6 SWAP3 SWAP2 DUP8 SWAP2 CODESIZE PUSH2 0x1171 JUMP JUMPDEST DUP8 DUP7 DUP9 PUSH2 0x1281 JUMPI PUSH1 0x24 SWAP2 MLOAD SWAP1 PUSH4 0x7E273289 PUSH1 0xE0 SHL DUP3 MSTORE PUSH1 0x4 DUP3 ADD MSTORE REVERT JUMPDEST PUSH1 0x44 SWAP2 MLOAD SWAP1 PUSH32 0x177E802F00000000000000000000000000000000000000000000000000000000 DUP3 MSTORE CALLER PUSH1 0x4 DUP4 ADD MSTORE PUSH1 0x24 DUP3 ADD MSTORE REVERT JUMPDEST POP CALLER DUP8 EQ DUP1 ISZERO PUSH2 0x12DB JUMPI JUMPDEST DUP1 PUSH2 0x1254 JUMPI POP DUP6 DUP3 MSTORE PUSH1 0x4 DUP2 MSTORE CALLER DUP6 DUP10 DUP5 KECCAK256 SLOAD AND EQ PUSH2 0x1254 JUMP JUMPDEST POP DUP7 DUP3 MSTORE PUSH1 0x5 DUP2 MSTORE DUP8 DUP3 KECCAK256 CALLER DUP4 MSTORE DUP2 MSTORE PUSH1 0xFF DUP9 DUP4 KECCAK256 SLOAD AND PUSH2 0x12C1 JUMP JUMPDEST PUSH1 0x24 DUP7 DUP9 MLOAD SWAP1 PUSH4 0x32505749 PUSH1 0xE1 SHL DUP3 MSTORE PUSH1 0x4 DUP3 ADD MSTORE REVERT JUMPDEST PUSH1 0x4 DUP7 MLOAD PUSH32 0x9E51D34B00000000000000000000000000000000000000000000000000000000 DUP2 MSTORE REVERT INVALID LOG2 PUSH5 0x6970667358 0x22 SLT KECCAK256 NOT LOG3 0xB8 0xE PUSH28 0x1B9B36008949124DB64E90399F1ED0BB6D82E2EB2228FC40BB0C9F64 PUSH20 0x6F6C634300081400330000000000000000000000 "},"methodIdentifiers":{"abilityCount()":"f530bd94","addOrRemoveFromWhiteList(address,bool)":"54996d18","approve(address,uint256)":"095ea7b3","balanceOf(address)":"70a08231","cardCount()":"1b6cde10","cardInGamePlay(uint256,bool)":"6a019b7f","defineAbilities(uint256,uint8,uint8)":"f687b504","deployer()":"d5f39488","gameLogicAddress()":"91f3f18c","getAbilityID(uint256)":"cc56f2d3","getApproved(uint256)":"081812fc","getAttack(uint256)":"cff840f0","getHealth(uint256)":"3fc70f2c","getPriority(uint256)":"763d0f62","isApprovedForAll(address,address)":"e985e9c5","isInGame(uint256)":"d2b325f4","mintCard(uint8,uint8,uint8,address,uint256)":"2494b2a1","name()":"06fdde03","ownerOf(uint256)":"6352211e","safeTransferFrom(address,address,uint256)":"42842e0e","safeTransferFrom(address,address,uint256,bytes)":"b88d4fde","setApprovalForAll(address,bool)":"a22cb465","supportsInterface(bytes4)":"01ffc9a7","symbol()":"95d89b41","tokenURI(uint256)":"c87b56dd","transferFrom(address,address,uint256)":"23b872dd"}}}}}