{"contracts/ExPopulusCardGameLogic.sol":{"ExPopulusCardGameLogic":{"abi":[{"inputs":[{"internalType":"address","name":"_cardContractAddress","type":"address"},{"internalType":"address","name":"_rewardTokenAddres","type":"address"},{"internalType":"address","name":"_initialOwner","type":"address"}],"stateMutability":"nonpayable","type":"constructor"},{"inputs":[],"name":"InactiveOrPausedBattleField","type":"error"},{"inputs":[],"name":"NotEnoughEnemyCards","type":"error"},{"inputs":[],"name":"OnlyCardOwner","type":"error"},{"inputs":[{"internalType":"address","name":"owner","type":"address"}],"name":"OwnableInvalidOwner","type":"error"},{"inputs":[{"internalType":"address","name":"account","type":"address"}],"name":"OwnableUnauthorizedAccount","type":"error"},{"anonymous":false,"inputs":[{"indexed":false,"internalType":"uint256","name":"fieldID","type":"uint256"}],"name":"BattleFieldCreated","type":"event"},{"anonymous":false,"inputs":[{"indexed":false,"internalType":"uint256","name":"card1","type":"uint256"},{"indexed":false,"internalType":"uint256","name":"card2","type":"uint256"},{"indexed":false,"internalType":"uint256","name":"card3","type":"uint256"},{"indexed":false,"internalType":"uint256","name":"fieldID","type":"uint256"}],"name":"EnemyCardsGenerated","type":"event"},{"anonymous":false,"inputs":[{"indexed":false,"internalType":"uint256","name":"fieldID","type":"uint256"},{"indexed":false,"internalType":"uint256","name":"playerID","type":"uint256"}],"name":"EnteredBattle","type":"event"},{"anonymous":false,"inputs":[{"indexed":true,"internalType":"address","name":"previousOwner","type":"address"},{"indexed":true,"internalType":"address","name":"newOwner","type":"address"}],"name":"OwnershipTransferred","type":"event"},{"anonymous":false,"inputs":[{"indexed":false,"internalType":"uint256","name":"fieldID","type":"uint256"},{"indexed":false,"internalType":"uint256","name":"playerID","type":"uint256"},{"indexed":false,"internalType":"uint256","name":"startTime","type":"uint256"}],"name":"PlayerEnteredBattle","type":"event"},{"anonymous":false,"inputs":[{"indexed":false,"internalType":"uint256","name":"fieldID","type":"uint256"},{"indexed":false,"internalType":"uint256","name":"timestamp","type":"uint256"}],"name":"RoundFinished","type":"event"},{"inputs":[],"name":"REWARD_TOKEN","outputs":[{"internalType":"contract IERC20","name":"","type":"address"}],"stateMutability":"view","type":"function"},{"inputs":[{"internalType":"uint256","name":"fieldID","type":"uint256"},{"internalType":"uint256","name":"playerID","type":"uint256"},{"internalType":"uint256","name":"card1","type":"uint256"},{"internalType":"uint256","name":"card2","type":"uint256"},{"internalType":"uint256","name":"card3","type":"uint256"}],"name":"battle","outputs":[],"stateMutability":"nonpayable","type":"function"},{"inputs":[],"name":"createBattlefield","outputs":[{"internalType":"uint256","name":"","type":"uint256"}],"stateMutability":"nonpayable","type":"function"},{"inputs":[{"internalType":"uint256","name":"fieldID","type":"uint256"}],"name":"enterBattle","outputs":[{"internalType":"uint256","name":"","type":"uint256"}],"stateMutability":"nonpayable","type":"function"},{"inputs":[{"internalType":"uint256","name":"card1","type":"uint256"},{"internalType":"uint256","name":"card2","type":"uint256"},{"internalType":"uint256","name":"card3","type":"uint256"},{"internalType":"uint256","name":"fieldID","type":"uint256"}],"name":"generateEnemyCards","outputs":[],"stateMutability":"nonpayable","type":"function"},{"inputs":[{"internalType":"uint256","name":"fieldID","type":"uint256"}],"name":"getBattleField","outputs":[{"components":[{"internalType":"uint256","name":"playerID","type":"uint256"},{"internalType":"uint256","name":"battleStartTime","type":"uint256"},{"internalType":"uint256","name":"battleEndTime","type":"uint256"},{"internalType":"uint256","name":"rewardsEarned","type":"uint256"},{"internalType":"uint256[]","name":"enemyCards","type":"uint256[]"},{"internalType":"address","name":"winner","type":"address"},{"internalType":"bytes32[]","name":"roundDetails","type":"bytes32[]"},{"internalType":"enum ExPopulusCardGameLogic.FieldStatus","name":"status","type":"uint8"}],"internalType":"struct ExPopulusCardGameLogic.BattleField","name":"","type":"tuple"}],"stateMutability":"view","type":"function"},{"inputs":[{"internalType":"uint256","name":"playerID","type":"uint256"}],"name":"getPalyer","outputs":[{"components":[{"internalType":"address","name":"wallet","type":"address"},{"internalType":"uint256","name":"battleFieldID","type":"uint256"},{"internalType":"bool","name":"isActive","type":"bool"},{"internalType":"uint256[]","name":"cardsInHand","type":"uint256[]"},{"internalType":"uint256","name":"winstreak","type":"uint256"}],"internalType":"struct ExPopulusCardGameLogic.Player","name":"","type":"tuple"}],"stateMutability":"view","type":"function"},{"inputs":[],"name":"owner","outputs":[{"internalType":"address","name":"","type":"address"}],"stateMutability":"view","type":"function"},{"inputs":[],"name":"renounceOwnership","outputs":[],"stateMutability":"nonpayable","type":"function"},{"inputs":[{"internalType":"address","name":"newOwner","type":"address"}],"name":"transferOwnership","outputs":[],"stateMutability":"nonpayable","type":"function"}],"evm":{"bytecode":{"linkReferences":{},"object":"6080346100ed57601f61119538819003918201601f19168301916001600160401b038311848410176100f2578084926060946040528339810103126100ed5761004781610108565b604061005560208401610108565b926001600160a01b0391829161006b9101610108565b169182156100d457816000549460018060a01b03199480868816176000558260405197167f8be0079c531659141344cd1fd0a4f28419497f9722a3daafe3b4186f6b6457e0600080a31683600254161760025516906001541617600155611078908161011d8239f35b604051631e4fbdf760e01b815260006004820152602490fd5b600080fd5b634e487b7160e01b600052604160045260246000fd5b51906001600160a01b03821682036100ed5756fe608060408181526004908136101561001657600080fd5b600092833560e01c9081631f8643c614610dca575080635048249c146106bf578063715018a6146106595780638da5cb5b1461063357806399248ea71461060b578063ac8dd23f14610550578063b7044c39146103a0578063b8755343146101b5578063d7e41b9f146101465763f2fde38b1461009257600080fd5b34610142576020366003190112610142578135916001600160a01b039182841680940361013e576100c1610ed2565b831561010f57505082548273ffffffffffffffffffffffffffffffffffffffff198216178455167f8be0079c531659141344cd1fd0a4f28419497f9722a3daafe3b4186f6b6457e08380a380f35b908460249251917f1e4fbdf7000000000000000000000000000000000000000000000000000000008352820152fd5b8480fd5b8280fd5b8382346101b157816003193601126101b157600781602093610166610ed2565b600160035401806003558152828552200160ff198154169055600354907f95e54cd418a6f7033a8fb10f82e32a066e6d83a5397d091d2a2dee75ef1349e4838251848152a151908152f35b5080fd5b50913461039d576020908160031936011261039d578060e085516101d881610f48565b82815282858201528287820152826060820152606060808201528260a0820152606060c082015201528235815260078252838120845161021781610f48565b815481526001808301549685830197885260028401549381840194855260038101546060850190815261024b898301610fab565b90608086019182526001600160a01b0396876005850154169460a0880195865260068501948b8251968c88838a94845492838152019383528c81842093915b838310610380575050505050916102a760079260ff940389610f65565b60c08b019788520154169c60e089019860038f101561036c578c9d9e8a9d99989d5282519d8e918183525191015251908c01525160608b01525160808a01525194610300610100968760a08c01526101208b0190610e9e565b97511660c089015251878703601f190160e089015280518088529683019690830192865b8281106103595750505050505191600383101561034657508380955001520390f35b80602187634e487b7160e01b6024945252fd5b8451895297810197938101938301610324565b5060248b60218f634e487b7160e01b835252fd5b9092948484939597505481520194019101918f928c8b959461028a565b80fd5b50903461014257608036600319011261014257803591602435606435926103c5610ed2565b6001600160a01b039081600154168451926331a9108f60e11b9182855288848601526020948581602481855afa90811561052957869184918d91610533575b501633141593846104da575b84610471575b5050505061046357508386526007815282519485528401526044359083015260608201527fb3181c21c7390851c911b2f39a61aef36d5fb6112a44ceff437e44cfa9396d4c90608090a180f35b8351638e21607360e01b8152fd5b90919293506024885180948193825289888301525afa9081156104d05789916104a3575b501633141538808481610416565b6104c39150843d86116104c9575b6104bb8183610f65565b810190610f87565b38610495565b503d6104b1565b86513d8b823e3d90fd5b935050865183815286858201528581602481855afa90811561052957869184918d9161050c575b501633141593610410565b6105239150833d85116104c9576104bb8183610f65565b38610501565b88513d8d823e3d90fd5b61054a9150833d85116104c9576104bb8183610f65565b38610404565b508290346101b15760203660031901126101b1577f620f0ed05d46ba10787e67d2a336868d61f9ce492ccde631907d128de642085b6060846001846020973592828154018082558852600689528188203373ffffffffffffffffffffffffffffffffffffffff19825416179055805488528383838a200155805488526002828920018360ff198254161790556003548852600789524283838a200155549660035481522001548451918252858783015284820152a151908152f35b8382346101b157816003193601126101b1576020906001600160a01b03600254169051908152f35b8382346101b157816003193601126101b1576001600160a01b0360209254169051908152f35b833461039d578060031936011261039d57610672610ed2565b806001600160a01b03815473ffffffffffffffffffffffffffffffffffffffff1981168355167f8be0079c531659141344cd1fd0a4f28419497f9722a3daafe3b4186f6b6457e08280a380f35b5090346101425760a036600319011261014257803591604435916064356001600160a01b039260019484865416908251936331a9108f60e11b96878652828787015260209760249689818981895afa908d8215610b7157908492610dad575b50163314159283610d62575b83610d17575b505050610d08578789526007865260ff6007848b200154166003811015610cf657610cce578789526007865261076985848b2001610fab565b6003815110610ca65761077b81610ffc565b518451907fcc56f2d300000000000000000000000000000000000000000000000000000000908183528883015288828881885afa918215610bb1578c92610c77575b5085517f763d0f6200000000000000000000000000000000000000000000000000000000928382528982015289818981895afa8015610c6d57908a91610c44575b50508551908152838882015288818881885afa908115610bb1578c91610c17575b5085519182528782015287818781875afa8015610b2f57908891610bea575b505061084981610ffc565b51908451907fcff840f000000000000000000000000000000000000000000000000000000000928383528883015288828881885afa918215610bb1578c92610bbb575b508551928352838884015288838881885afa928315610bb1578c93610b7c575b506108b690610ffc565b51928551937f3fc70f2c00000000000000000000000000000000000000000000000000000000908186528986015289858981895afa948d8615610b71579189918c949397610b39575b508851978893849283528c8301525afa938415610b2f578b94610afc575b506005938985540191828655818111610ab9575b50505081811161093f578980f35b6109489161101f565b8154895260098652828920558054885285828920805415610a7a575b5050548088526009855281882080549060ff88820154169060ff60036002830154920154169085519361099685610f16565b8452888401921515835285840190815260608401911515825260808401924284528651948a86019687525187860152511515606085015251608084015251151560a08301525160c082015260c0815260e0810181811067ffffffffffffffff821117610a6857835251902095875260078452862060060180549490929068010000000000000000861015610a56578501808455851015610a455750508452832001553880808080808080808980f35b60328791634e487b7160e01b835252fd5b5060418791634e487b7160e01b835252fd5b848a604188634e487b7160e01b835252fd5b018660ff1982541617905580548852600685528382892001805490878201809211610aa757558538610964565b848a601188634e487b7160e01b835252fd5b610ac29161101f565b908b52600988526002858c20015582548a52838a20600281015415610ae9575b8080610931565b600301805460ff19168917905538610ae2565b9093508781813d8311610b28575b610b148183610f65565b81010312610b245751923861091d565b8a80fd5b503d610b0a565b85513d8d823e3d90fd5b93849197508092503d8311610b6a575b610b538183610f65565b81010312610b6657878a925195386108ff565b8c80fd5b503d610b49565b8851903d90823e3d90fd5b9092508881813d8311610baa575b610b948183610f65565b81010312610ba65751916108b66108ac565b8b80fd5b503d610b8a565b86513d8e823e3d90fd5b9091508881813d8311610be3575b610bd38183610f65565b81010312610ba65751903861088c565b503d610bc9565b813d8311610c10575b610bfd8183610f65565b81010312610c0c57863861083e565b8980fd5b503d610bf3565b90508881813d8311610c3d575b610c2e8183610f65565b81010312610ba657513861081f565b503d610c24565b813d8311610c66575b610c578183610f65565b81010312610ba65788386107fe565b503d610c4d565b87513d8f823e3d90fd5b9091508881813d8311610c9f575b610c8f8183610f65565b81010312610ba6575190386107bd565b503d610c85565b8584517f1b971d6b000000000000000000000000000000000000000000000000000000008152fd5b8483517f7bf33c88000000000000000000000000000000000000000000000000000000008152fd5b848a602188634e487b7160e01b835252fd5b848351638e21607360e01b8152fd5b86519182528882015290915087818781875afa908115610b2f578b91610d45575b5016331415388080610730565b610d5c9150883d8a116104c9576104bb8183610f65565b38610d38565b92508551818152838982015289818981895afa908d8215610b7157908492610d90575b50163314159261072a565b610da791508b3d8d116104c9576104bb8183610f65565b38610d85565b610dc491508b3d8d116104c9576104bb8183610f65565b3861071e565b919390503461039d57602091826003193601126101b15781610e9392608083610df38995610f16565b828152828782015282858201526060808201520152843581526006845220845193610e1d85610f16565b6001600160a01b0395868354168652600183015485870190815260ff600285015416928288019315158452610e5460038601610fab565b9460608901958652015495608088019687528251988998828a52511690880152519086015251151560608501525160a0608085015260c0840190610e9e565b905160a08301520390f35b90815180825260208080930193019160005b828110610ebe575050505090565b835185529381019392810192600101610eb0565b6001600160a01b03600054163303610ee657565b60246040517f118cdaa7000000000000000000000000000000000000000000000000000000008152336004820152fd5b60a0810190811067ffffffffffffffff821117610f3257604052565b634e487b7160e01b600052604160045260246000fd5b610100810190811067ffffffffffffffff821117610f3257604052565b90601f8019910116810190811067ffffffffffffffff821117610f3257604052565b90816020910312610fa657516001600160a01b0381168103610fa65790565b600080fd5b9060405191828154918282526020928383019160005283600020936000905b828210610fe257505050610fe092500383610f65565b565b855484526001958601958895509381019390910190610fca565b8051156110095760200190565b634e487b7160e01b600052603260045260246000fd5b9190820391821161102c57565b634e487b7160e01b600052601160045260246000fdfea2646970667358221220fcf4d8e51400dba61e441954507089520e0a3faca3e4a66c8d6f9a2ccbefbec364736f6c63430008140033","opcodes":"PUSH1 0x80 CALLVALUE PUSH2 0xED JUMPI PUSH1 0x1F PUSH2 0x1195 CODESIZE DUP2 SWAP1 SUB SWAP2 DUP3 ADD PUSH1 0x1F NOT AND DUP4 ADD SWAP2 PUSH1 0x1 PUSH1 0x1 PUSH1 0x40 SHL SUB DUP4 GT DUP5 DUP5 LT OR PUSH2 0xF2 JUMPI DUP1 DUP5 SWAP3 PUSH1 0x60 SWAP5 PUSH1 0x40 MSTORE DUP4 CODECOPY DUP2 ADD SUB SLT PUSH2 0xED JUMPI PUSH2 0x47 DUP2 PUSH2 0x108 JUMP JUMPDEST PUSH1 0x40 PUSH2 0x55 PUSH1 0x20 DUP5 ADD PUSH2 0x108 JUMP JUMPDEST SWAP3 PUSH1 0x1 PUSH1 0x1 PUSH1 0xA0 SHL SUB SWAP2 DUP3 SWAP2 PUSH2 0x6B SWAP2 ADD PUSH2 0x108 JUMP JUMPDEST AND SWAP2 DUP3 ISZERO PUSH2 0xD4 JUMPI DUP2 PUSH1 0x0 SLOAD SWAP5 PUSH1 0x1 DUP1 PUSH1 0xA0 SHL SUB NOT SWAP5 DUP1 DUP7 DUP9 AND OR PUSH1 0x0 SSTORE DUP3 PUSH1 0x40 MLOAD SWAP8 AND PUSH32 0x8BE0079C531659141344CD1FD0A4F28419497F9722A3DAAFE3B4186F6B6457E0 PUSH1 0x0 DUP1 LOG3 AND DUP4 PUSH1 0x2 SLOAD AND OR PUSH1 0x2 SSTORE AND SWAP1 PUSH1 0x1 SLOAD AND OR PUSH1 0x1 SSTORE PUSH2 0x1078 SWAP1 DUP2 PUSH2 0x11D DUP3 CODECOPY RETURN JUMPDEST PUSH1 0x40 MLOAD PUSH4 0x1E4FBDF7 PUSH1 0xE0 SHL DUP2 MSTORE PUSH1 0x0 PUSH1 0x4 DUP3 ADD MSTORE PUSH1 0x24 SWAP1 REVERT JUMPDEST PUSH1 0x0 DUP1 REVERT JUMPDEST PUSH4 0x4E487B71 PUSH1 0xE0 SHL PUSH1 0x0 MSTORE PUSH1 0x41 PUSH1 0x4 MSTORE PUSH1 0x24 PUSH1 0x0 REVERT JUMPDEST MLOAD SWAP1 PUSH1 0x1 PUSH1 0x1 PUSH1 0xA0 SHL SUB DUP3 AND DUP3 SUB PUSH2 0xED JUMPI JUMP INVALID PUSH1 0x80 PUSH1 0x40 DUP2 DUP2 MSTORE PUSH1 0x4 SWAP1 DUP2 CALLDATASIZE LT ISZERO PUSH2 0x16 JUMPI PUSH1 0x0 DUP1 REVERT JUMPDEST PUSH1 0x0 SWAP3 DUP4 CALLDATALOAD PUSH1 0xE0 SHR SWAP1 DUP2 PUSH4 0x1F8643C6 EQ PUSH2 0xDCA JUMPI POP DUP1 PUSH4 0x5048249C EQ PUSH2 0x6BF JUMPI DUP1 PUSH4 0x715018A6 EQ PUSH2 0x659 JUMPI DUP1 PUSH4 0x8DA5CB5B EQ PUSH2 0x633 JUMPI DUP1 PUSH4 0x99248EA7 EQ PUSH2 0x60B JUMPI DUP1 PUSH4 0xAC8DD23F EQ PUSH2 0x550 JUMPI DUP1 PUSH4 0xB7044C39 EQ PUSH2 0x3A0 JUMPI DUP1 PUSH4 0xB8755343 EQ PUSH2 0x1B5 JUMPI DUP1 PUSH4 0xD7E41B9F EQ PUSH2 0x146 JUMPI PUSH4 0xF2FDE38B EQ PUSH2 0x92 JUMPI PUSH1 0x0 DUP1 REVERT JUMPDEST CALLVALUE PUSH2 0x142 JUMPI PUSH1 0x20 CALLDATASIZE PUSH1 0x3 NOT ADD SLT PUSH2 0x142 JUMPI DUP2 CALLDATALOAD SWAP2 PUSH1 0x1 PUSH1 0x1 PUSH1 0xA0 SHL SUB SWAP2 DUP3 DUP5 AND DUP1 SWAP5 SUB PUSH2 0x13E JUMPI PUSH2 0xC1 PUSH2 0xED2 JUMP JUMPDEST DUP4 ISZERO PUSH2 0x10F JUMPI POP POP DUP3 SLOAD DUP3 PUSH20 0xFFFFFFFFFFFFFFFFFFFFFFFFFFFFFFFFFFFFFFFF NOT DUP3 AND OR DUP5 SSTORE AND PUSH32 0x8BE0079C531659141344CD1FD0A4F28419497F9722A3DAAFE3B4186F6B6457E0 DUP4 DUP1 LOG3 DUP1 RETURN JUMPDEST SWAP1 DUP5 PUSH1 0x24 SWAP3 MLOAD SWAP2 PUSH32 0x1E4FBDF700000000000000000000000000000000000000000000000000000000 DUP4 MSTORE DUP3 ADD MSTORE REVERT JUMPDEST DUP5 DUP1 REVERT JUMPDEST DUP3 DUP1 REVERT JUMPDEST DUP4 DUP3 CALLVALUE PUSH2 0x1B1 JUMPI DUP2 PUSH1 0x3 NOT CALLDATASIZE ADD SLT PUSH2 0x1B1 JUMPI PUSH1 0x7 DUP2 PUSH1 0x20 SWAP4 PUSH2 0x166 PUSH2 0xED2 JUMP JUMPDEST PUSH1 0x1 PUSH1 0x3 SLOAD ADD DUP1 PUSH1 0x3 SSTORE DUP2 MSTORE DUP3 DUP6 MSTORE KECCAK256 ADD PUSH1 0xFF NOT DUP2 SLOAD AND SWAP1 SSTORE PUSH1 0x3 SLOAD SWAP1 PUSH32 0x95E54CD418A6F7033A8FB10F82E32A066E6D83A5397D091D2A2DEE75EF1349E4 DUP4 DUP3 MLOAD DUP5 DUP2 MSTORE LOG1 MLOAD SWAP1 DUP2 MSTORE RETURN JUMPDEST POP DUP1 REVERT JUMPDEST POP SWAP2 CALLVALUE PUSH2 0x39D JUMPI PUSH1 0x20 SWAP1 DUP2 PUSH1 0x3 NOT CALLDATASIZE ADD SLT PUSH2 0x39D JUMPI DUP1 PUSH1 0xE0 DUP6 MLOAD PUSH2 0x1D8 DUP2 PUSH2 0xF48 JUMP JUMPDEST DUP3 DUP2 MSTORE DUP3 DUP6 DUP3 ADD MSTORE DUP3 DUP8 DUP3 ADD MSTORE DUP3 PUSH1 0x60 DUP3 ADD MSTORE PUSH1 0x60 PUSH1 0x80 DUP3 ADD MSTORE DUP3 PUSH1 0xA0 DUP3 ADD MSTORE PUSH1 0x60 PUSH1 0xC0 DUP3 ADD MSTORE ADD MSTORE DUP3 CALLDATALOAD DUP2 MSTORE PUSH1 0x7 DUP3 MSTORE DUP4 DUP2 KECCAK256 DUP5 MLOAD PUSH2 0x217 DUP2 PUSH2 0xF48 JUMP JUMPDEST DUP2 SLOAD DUP2 MSTORE PUSH1 0x1 DUP1 DUP4 ADD SLOAD SWAP7 DUP6 DUP4 ADD SWAP8 DUP9 MSTORE PUSH1 0x2 DUP5 ADD SLOAD SWAP4 DUP2 DUP5 ADD SWAP5 DUP6 MSTORE PUSH1 0x3 DUP2 ADD SLOAD PUSH1 0x60 DUP6 ADD SWAP1 DUP2 MSTORE PUSH2 0x24B DUP10 DUP4 ADD PUSH2 0xFAB JUMP JUMPDEST SWAP1 PUSH1 0x80 DUP7 ADD SWAP2 DUP3 MSTORE PUSH1 0x1 PUSH1 0x1 PUSH1 0xA0 SHL SUB SWAP7 DUP8 PUSH1 0x5 DUP6 ADD SLOAD AND SWAP5 PUSH1 0xA0 DUP9 ADD SWAP6 DUP7 MSTORE PUSH1 0x6 DUP6 ADD SWAP5 DUP12 DUP3 MLOAD SWAP7 DUP13 DUP9 DUP4 DUP11 SWAP5 DUP5 SLOAD SWAP3 DUP4 DUP2 MSTORE ADD SWAP4 DUP4 MSTORE DUP13 DUP2 DUP5 KECCAK256 SWAP4 SWAP2 JUMPDEST DUP4 DUP4 LT PUSH2 0x380 JUMPI POP POP POP POP POP SWAP2 PUSH2 0x2A7 PUSH1 0x7 SWAP3 PUSH1 0xFF SWAP5 SUB DUP10 PUSH2 0xF65 JUMP JUMPDEST PUSH1 0xC0 DUP12 ADD SWAP8 DUP9 MSTORE ADD SLOAD AND SWAP13 PUSH1 0xE0 DUP10 ADD SWAP9 PUSH1 0x3 DUP16 LT ISZERO PUSH2 0x36C JUMPI DUP13 SWAP14 SWAP15 DUP11 SWAP14 SWAP10 SWAP9 SWAP14 MSTORE DUP3 MLOAD SWAP14 DUP15 SWAP2 DUP2 DUP4 MSTORE MLOAD SWAP2 ADD MSTORE MLOAD SWAP1 DUP13 ADD MSTORE MLOAD PUSH1 0x60 DUP12 ADD MSTORE MLOAD PUSH1 0x80 DUP11 ADD MSTORE MLOAD SWAP5 PUSH2 0x300 PUSH2 0x100 SWAP7 DUP8 PUSH1 0xA0 DUP13 ADD MSTORE PUSH2 0x120 DUP12 ADD SWAP1 PUSH2 0xE9E JUMP JUMPDEST SWAP8 MLOAD AND PUSH1 0xC0 DUP10 ADD MSTORE MLOAD DUP8 DUP8 SUB PUSH1 0x1F NOT ADD PUSH1 0xE0 DUP10 ADD MSTORE DUP1 MLOAD DUP1 DUP9 MSTORE SWAP7 DUP4 ADD SWAP7 SWAP1 DUP4 ADD SWAP3 DUP7 JUMPDEST DUP3 DUP2 LT PUSH2 0x359 JUMPI POP POP POP POP POP MLOAD SWAP2 PUSH1 0x3 DUP4 LT ISZERO PUSH2 0x346 JUMPI POP DUP4 DUP1 SWAP6 POP ADD MSTORE SUB SWAP1 RETURN JUMPDEST DUP1 PUSH1 0x21 DUP8 PUSH4 0x4E487B71 PUSH1 0xE0 SHL PUSH1 0x24 SWAP5 MSTORE MSTORE REVERT JUMPDEST DUP5 MLOAD DUP10 MSTORE SWAP8 DUP2 ADD SWAP8 SWAP4 DUP2 ADD SWAP4 DUP4 ADD PUSH2 0x324 JUMP JUMPDEST POP PUSH1 0x24 DUP12 PUSH1 0x21 DUP16 PUSH4 0x4E487B71 PUSH1 0xE0 SHL DUP4 MSTORE MSTORE REVERT JUMPDEST SWAP1 SWAP3 SWAP5 DUP5 DUP5 SWAP4 SWAP6 SWAP8 POP SLOAD DUP2 MSTORE ADD SWAP5 ADD SWAP2 ADD SWAP2 DUP16 SWAP3 DUP13 DUP12 SWAP6 SWAP5 PUSH2 0x28A JUMP JUMPDEST DUP1 REVERT JUMPDEST POP SWAP1 CALLVALUE PUSH2 0x142 JUMPI PUSH1 0x80 CALLDATASIZE PUSH1 0x3 NOT ADD SLT PUSH2 0x142 JUMPI DUP1 CALLDATALOAD SWAP2 PUSH1 0x24 CALLDATALOAD PUSH1 0x64 CALLDATALOAD SWAP3 PUSH2 0x3C5 PUSH2 0xED2 JUMP JUMPDEST PUSH1 0x1 PUSH1 0x1 PUSH1 0xA0 SHL SUB SWAP1 DUP2 PUSH1 0x1 SLOAD AND DUP5 MLOAD SWAP3 PUSH4 0x31A9108F PUSH1 0xE1 SHL SWAP2 DUP3 DUP6 MSTORE DUP9 DUP5 DUP7 ADD MSTORE PUSH1 0x20 SWAP5 DUP6 DUP2 PUSH1 0x24 DUP2 DUP6 GAS STATICCALL SWAP1 DUP2 ISZERO PUSH2 0x529 JUMPI DUP7 SWAP2 DUP5 SWAP2 DUP14 SWAP2 PUSH2 0x533 JUMPI JUMPDEST POP AND CALLER EQ ISZERO SWAP4 DUP5 PUSH2 0x4DA JUMPI JUMPDEST DUP5 PUSH2 0x471 JUMPI JUMPDEST POP POP POP POP PUSH2 0x463 JUMPI POP DUP4 DUP7 MSTORE PUSH1 0x7 DUP2 MSTORE DUP3 MLOAD SWAP5 DUP6 MSTORE DUP5 ADD MSTORE PUSH1 0x44 CALLDATALOAD SWAP1 DUP4 ADD MSTORE PUSH1 0x60 DUP3 ADD MSTORE PUSH32 0xB3181C21C7390851C911B2F39A61AEF36D5FB6112A44CEFF437E44CFA9396D4C SWAP1 PUSH1 0x80 SWAP1 LOG1 DUP1 RETURN JUMPDEST DUP4 MLOAD PUSH4 0x8E216073 PUSH1 0xE0 SHL DUP2 MSTORE REVERT JUMPDEST SWAP1 SWAP2 SWAP3 SWAP4 POP PUSH1 0x24 DUP9 MLOAD DUP1 SWAP5 DUP2 SWAP4 DUP3 MSTORE DUP10 DUP9 DUP4 ADD MSTORE GAS STATICCALL SWAP1 DUP2 ISZERO PUSH2 0x4D0 JUMPI DUP10 SWAP2 PUSH2 0x4A3 JUMPI JUMPDEST POP AND CALLER EQ ISZERO CODESIZE DUP1 DUP5 DUP2 PUSH2 0x416 JUMP JUMPDEST PUSH2 0x4C3 SWAP2 POP DUP5 RETURNDATASIZE DUP7 GT PUSH2 0x4C9 JUMPI JUMPDEST PUSH2 0x4BB DUP2 DUP4 PUSH2 0xF65 JUMP JUMPDEST DUP2 ADD SWAP1 PUSH2 0xF87 JUMP JUMPDEST CODESIZE PUSH2 0x495 JUMP JUMPDEST POP RETURNDATASIZE PUSH2 0x4B1 JUMP JUMPDEST DUP7 MLOAD RETURNDATASIZE DUP12 DUP3 RETURNDATACOPY RETURNDATASIZE SWAP1 REVERT JUMPDEST SWAP4 POP POP DUP7 MLOAD DUP4 DUP2 MSTORE DUP7 DUP6 DUP3 ADD MSTORE DUP6 DUP2 PUSH1 0x24 DUP2 DUP6 GAS STATICCALL SWAP1 DUP2 ISZERO PUSH2 0x529 JUMPI DUP7 SWAP2 DUP5 SWAP2 DUP14 SWAP2 PUSH2 0x50C JUMPI JUMPDEST POP AND CALLER EQ ISZERO SWAP4 PUSH2 0x410 JUMP JUMPDEST PUSH2 0x523 SWAP2 POP DUP4 RETURNDATASIZE DUP6 GT PUSH2 0x4C9 JUMPI PUSH2 0x4BB DUP2 DUP4 PUSH2 0xF65 JUMP JUMPDEST CODESIZE PUSH2 0x501 JUMP JUMPDEST DUP9 MLOAD RETURNDATASIZE DUP14 DUP3 RETURNDATACOPY RETURNDATASIZE SWAP1 REVERT JUMPDEST PUSH2 0x54A SWAP2 POP DUP4 RETURNDATASIZE DUP6 GT PUSH2 0x4C9 JUMPI PUSH2 0x4BB DUP2 DUP4 PUSH2 0xF65 JUMP JUMPDEST CODESIZE PUSH2 0x404 JUMP JUMPDEST POP DUP3 SWAP1 CALLVALUE PUSH2 0x1B1 JUMPI PUSH1 0x20 CALLDATASIZE PUSH1 0x3 NOT ADD SLT PUSH2 0x1B1 JUMPI PUSH32 0x620F0ED05D46BA10787E67D2A336868D61F9CE492CCDE631907D128DE642085B PUSH1 0x60 DUP5 PUSH1 0x1 DUP5 PUSH1 0x20 SWAP8 CALLDATALOAD SWAP3 DUP3 DUP2 SLOAD ADD DUP1 DUP3 SSTORE DUP9 MSTORE PUSH1 0x6 DUP10 MSTORE DUP2 DUP9 KECCAK256 CALLER PUSH20 0xFFFFFFFFFFFFFFFFFFFFFFFFFFFFFFFFFFFFFFFF NOT DUP3 SLOAD AND OR SWAP1 SSTORE DUP1 SLOAD DUP9 MSTORE DUP4 DUP4 DUP4 DUP11 KECCAK256 ADD SSTORE DUP1 SLOAD DUP9 MSTORE PUSH1 0x2 DUP3 DUP10 KECCAK256 ADD DUP4 PUSH1 0xFF NOT DUP3 SLOAD AND OR SWAP1 SSTORE PUSH1 0x3 SLOAD DUP9 MSTORE PUSH1 0x7 DUP10 MSTORE TIMESTAMP DUP4 DUP4 DUP11 KECCAK256 ADD SSTORE SLOAD SWAP7 PUSH1 0x3 SLOAD DUP2 MSTORE KECCAK256 ADD SLOAD DUP5 MLOAD SWAP2 DUP3 MSTORE DUP6 DUP8 DUP4 ADD MSTORE DUP5 DUP3 ADD MSTORE LOG1 MLOAD SWAP1 DUP2 MSTORE RETURN JUMPDEST DUP4 DUP3 CALLVALUE PUSH2 0x1B1 JUMPI DUP2 PUSH1 0x3 NOT CALLDATASIZE ADD SLT PUSH2 0x1B1 JUMPI PUSH1 0x20 SWAP1 PUSH1 0x1 PUSH1 0x1 PUSH1 0xA0 SHL SUB PUSH1 0x2 SLOAD AND SWAP1 MLOAD SWAP1 DUP2 MSTORE RETURN JUMPDEST DUP4 DUP3 CALLVALUE PUSH2 0x1B1 JUMPI DUP2 PUSH1 0x3 NOT CALLDATASIZE ADD SLT PUSH2 0x1B1 JUMPI PUSH1 0x1 PUSH1 0x1 PUSH1 0xA0 SHL SUB PUSH1 0x20 SWAP3 SLOAD AND SWAP1 MLOAD SWAP1 DUP2 MSTORE RETURN JUMPDEST DUP4 CALLVALUE PUSH2 0x39D JUMPI DUP1 PUSH1 0x3 NOT CALLDATASIZE ADD SLT PUSH2 0x39D JUMPI PUSH2 0x672 PUSH2 0xED2 JUMP JUMPDEST DUP1 PUSH1 0x1 PUSH1 0x1 PUSH1 0xA0 SHL SUB DUP2 SLOAD PUSH20 0xFFFFFFFFFFFFFFFFFFFFFFFFFFFFFFFFFFFFFFFF NOT DUP2 AND DUP4 SSTORE AND PUSH32 0x8BE0079C531659141344CD1FD0A4F28419497F9722A3DAAFE3B4186F6B6457E0 DUP3 DUP1 LOG3 DUP1 RETURN JUMPDEST POP SWAP1 CALLVALUE PUSH2 0x142 JUMPI PUSH1 0xA0 CALLDATASIZE PUSH1 0x3 NOT ADD SLT PUSH2 0x142 JUMPI DUP1 CALLDATALOAD SWAP2 PUSH1 0x44 CALLDATALOAD SWAP2 PUSH1 0x64 CALLDATALOAD PUSH1 0x1 PUSH1 0x1 PUSH1 0xA0 SHL SUB SWAP3 PUSH1 0x1 SWAP5 DUP5 DUP7 SLOAD AND SWAP1 DUP3 MLOAD SWAP4 PUSH4 0x31A9108F PUSH1 0xE1 SHL SWAP7 DUP8 DUP7 MSTORE DUP3 DUP8 DUP8 ADD MSTORE PUSH1 0x20 SWAP8 PUSH1 0x24 SWAP7 DUP10 DUP2 DUP10 DUP2 DUP10 GAS STATICCALL SWAP1 DUP14 DUP3 ISZERO PUSH2 0xB71 JUMPI SWAP1 DUP5 SWAP3 PUSH2 0xDAD JUMPI JUMPDEST POP AND CALLER EQ ISZERO SWAP3 DUP4 PUSH2 0xD62 JUMPI JUMPDEST DUP4 PUSH2 0xD17 JUMPI JUMPDEST POP POP POP PUSH2 0xD08 JUMPI DUP8 DUP10 MSTORE PUSH1 0x7 DUP7 MSTORE PUSH1 0xFF PUSH1 0x7 DUP5 DUP12 KECCAK256 ADD SLOAD AND PUSH1 0x3 DUP2 LT ISZERO PUSH2 0xCF6 JUMPI PUSH2 0xCCE JUMPI DUP8 DUP10 MSTORE PUSH1 0x7 DUP7 MSTORE PUSH2 0x769 DUP6 DUP5 DUP12 KECCAK256 ADD PUSH2 0xFAB JUMP JUMPDEST PUSH1 0x3 DUP2 MLOAD LT PUSH2 0xCA6 JUMPI PUSH2 0x77B DUP2 PUSH2 0xFFC JUMP JUMPDEST MLOAD DUP5 MLOAD SWAP1 PUSH32 0xCC56F2D300000000000000000000000000000000000000000000000000000000 SWAP1 DUP2 DUP4 MSTORE DUP9 DUP4 ADD MSTORE DUP9 DUP3 DUP9 DUP2 DUP9 GAS STATICCALL SWAP2 DUP3 ISZERO PUSH2 0xBB1 JUMPI DUP13 SWAP3 PUSH2 0xC77 JUMPI JUMPDEST POP DUP6 MLOAD PUSH32 0x763D0F6200000000000000000000000000000000000000000000000000000000 SWAP3 DUP4 DUP3 MSTORE DUP10 DUP3 ADD MSTORE DUP10 DUP2 DUP10 DUP2 DUP10 GAS STATICCALL DUP1 ISZERO PUSH2 0xC6D JUMPI SWAP1 DUP11 SWAP2 PUSH2 0xC44 JUMPI JUMPDEST POP POP DUP6 MLOAD SWAP1 DUP2 MSTORE DUP4 DUP9 DUP3 ADD MSTORE DUP9 DUP2 DUP9 DUP2 DUP9 GAS STATICCALL SWAP1 DUP2 ISZERO PUSH2 0xBB1 JUMPI DUP13 SWAP2 PUSH2 0xC17 JUMPI JUMPDEST POP DUP6 MLOAD SWAP2 DUP3 MSTORE DUP8 DUP3 ADD MSTORE DUP8 DUP2 DUP8 DUP2 DUP8 GAS STATICCALL DUP1 ISZERO PUSH2 0xB2F JUMPI SWAP1 DUP9 SWAP2 PUSH2 0xBEA JUMPI JUMPDEST POP POP PUSH2 0x849 DUP2 PUSH2 0xFFC JUMP JUMPDEST MLOAD SWAP1 DUP5 MLOAD SWAP1 PUSH32 0xCFF840F000000000000000000000000000000000000000000000000000000000 SWAP3 DUP4 DUP4 MSTORE DUP9 DUP4 ADD MSTORE DUP9 DUP3 DUP9 DUP2 DUP9 GAS STATICCALL SWAP2 DUP3 ISZERO PUSH2 0xBB1 JUMPI DUP13 SWAP3 PUSH2 0xBBB JUMPI JUMPDEST POP DUP6 MLOAD SWAP3 DUP4 MSTORE DUP4 DUP9 DUP5 ADD MSTORE DUP9 DUP4 DUP9 DUP2 DUP9 GAS STATICCALL SWAP3 DUP4 ISZERO PUSH2 0xBB1 JUMPI DUP13 SWAP4 PUSH2 0xB7C JUMPI JUMPDEST POP PUSH2 0x8B6 SWAP1 PUSH2 0xFFC JUMP JUMPDEST MLOAD SWAP3 DUP6 MLOAD SWAP4 PUSH32 0x3FC70F2C00000000000000000000000000000000000000000000000000000000 SWAP1 DUP2 DUP7 MSTORE DUP10 DUP7 ADD MSTORE DUP10 DUP6 DUP10 DUP2 DUP10 GAS STATICCALL SWAP5 DUP14 DUP7 ISZERO PUSH2 0xB71 JUMPI SWAP2 DUP10 SWAP2 DUP13 SWAP5 SWAP4 SWAP8 PUSH2 0xB39 JUMPI JUMPDEST POP DUP9 MLOAD SWAP8 DUP9 SWAP4 DUP5 SWAP3 DUP4 MSTORE DUP13 DUP4 ADD MSTORE GAS STATICCALL SWAP4 DUP5 ISZERO PUSH2 0xB2F JUMPI DUP12 SWAP5 PUSH2 0xAFC JUMPI JUMPDEST POP PUSH1 0x5 SWAP4 DUP10 DUP6 SLOAD ADD SWAP2 DUP3 DUP7 SSTORE DUP2 DUP2 GT PUSH2 0xAB9 JUMPI JUMPDEST POP POP POP DUP2 DUP2 GT PUSH2 0x93F JUMPI DUP10 DUP1 RETURN JUMPDEST PUSH2 0x948 SWAP2 PUSH2 0x101F JUMP JUMPDEST DUP2 SLOAD DUP10 MSTORE PUSH1 0x9 DUP7 MSTORE DUP3 DUP10 KECCAK256 SSTORE DUP1 SLOAD DUP9 MSTORE DUP6 DUP3 DUP10 KECCAK256 DUP1 SLOAD ISZERO PUSH2 0xA7A JUMPI JUMPDEST POP POP SLOAD DUP1 DUP9 MSTORE PUSH1 0x9 DUP6 MSTORE DUP2 DUP9 KECCAK256 DUP1 SLOAD SWAP1 PUSH1 0xFF DUP9 DUP3 ADD SLOAD AND SWAP1 PUSH1 0xFF PUSH1 0x3 PUSH1 0x2 DUP4 ADD SLOAD SWAP3 ADD SLOAD AND SWAP1 DUP6 MLOAD SWAP4 PUSH2 0x996 DUP6 PUSH2 0xF16 JUMP JUMPDEST DUP5 MSTORE DUP9 DUP5 ADD SWAP3 ISZERO ISZERO DUP4 MSTORE DUP6 DUP5 ADD SWAP1 DUP2 MSTORE PUSH1 0x60 DUP5 ADD SWAP2 ISZERO ISZERO DUP3 MSTORE PUSH1 0x80 DUP5 ADD SWAP3 TIMESTAMP DUP5 MSTORE DUP7 MLOAD SWAP5 DUP11 DUP7 ADD SWAP7 DUP8 MSTORE MLOAD DUP8 DUP7 ADD MSTORE MLOAD ISZERO ISZERO PUSH1 0x60 DUP6 ADD MSTORE MLOAD PUSH1 0x80 DUP5 ADD MSTORE MLOAD ISZERO ISZERO PUSH1 0xA0 DUP4 ADD MSTORE MLOAD PUSH1 0xC0 DUP3 ADD MSTORE PUSH1 0xC0 DUP2 MSTORE PUSH1 0xE0 DUP2 ADD DUP2 DUP2 LT PUSH8 0xFFFFFFFFFFFFFFFF DUP3 GT OR PUSH2 0xA68 JUMPI DUP4 MSTORE MLOAD SWAP1 KECCAK256 SWAP6 DUP8 MSTORE PUSH1 0x7 DUP5 MSTORE DUP7 KECCAK256 PUSH1 0x6 ADD DUP1 SLOAD SWAP5 SWAP1 SWAP3 SWAP1 PUSH9 0x10000000000000000 DUP7 LT ISZERO PUSH2 0xA56 JUMPI DUP6 ADD DUP1 DUP5 SSTORE DUP6 LT ISZERO PUSH2 0xA45 JUMPI POP POP DUP5 MSTORE DUP4 KECCAK256 ADD SSTORE CODESIZE DUP1 DUP1 DUP1 DUP1 DUP1 DUP1 DUP1 DUP1 DUP10 DUP1 RETURN JUMPDEST PUSH1 0x32 DUP8 SWAP2 PUSH4 0x4E487B71 PUSH1 0xE0 SHL DUP4 MSTORE MSTORE REVERT JUMPDEST POP PUSH1 0x41 DUP8 SWAP2 PUSH4 0x4E487B71 PUSH1 0xE0 SHL DUP4 MSTORE MSTORE REVERT JUMPDEST DUP5 DUP11 PUSH1 0x41 DUP9 PUSH4 0x4E487B71 PUSH1 0xE0 SHL DUP4 MSTORE MSTORE REVERT JUMPDEST ADD DUP7 PUSH1 0xFF NOT DUP3 SLOAD AND OR SWAP1 SSTORE DUP1 SLOAD DUP9 MSTORE PUSH1 0x6 DUP6 MSTORE DUP4 DUP3 DUP10 KECCAK256 ADD DUP1 SLOAD SWAP1 DUP8 DUP3 ADD DUP1 SWAP3 GT PUSH2 0xAA7 JUMPI SSTORE DUP6 CODESIZE PUSH2 0x964 JUMP JUMPDEST DUP5 DUP11 PUSH1 0x11 DUP9 PUSH4 0x4E487B71 PUSH1 0xE0 SHL DUP4 MSTORE MSTORE REVERT JUMPDEST PUSH2 0xAC2 SWAP2 PUSH2 0x101F JUMP JUMPDEST SWAP1 DUP12 MSTORE PUSH1 0x9 DUP9 MSTORE PUSH1 0x2 DUP6 DUP13 KECCAK256 ADD SSTORE DUP3 SLOAD DUP11 MSTORE DUP4 DUP11 KECCAK256 PUSH1 0x2 DUP2 ADD SLOAD ISZERO PUSH2 0xAE9 JUMPI JUMPDEST DUP1 DUP1 PUSH2 0x931 JUMP JUMPDEST PUSH1 0x3 ADD DUP1 SLOAD PUSH1 0xFF NOT AND DUP10 OR SWAP1 SSTORE CODESIZE PUSH2 0xAE2 JUMP JUMPDEST SWAP1 SWAP4 POP DUP8 DUP2 DUP2 RETURNDATASIZE DUP4 GT PUSH2 0xB28 JUMPI JUMPDEST PUSH2 0xB14 DUP2 DUP4 PUSH2 0xF65 JUMP JUMPDEST DUP2 ADD SUB SLT PUSH2 0xB24 JUMPI MLOAD SWAP3 CODESIZE PUSH2 0x91D JUMP JUMPDEST DUP11 DUP1 REVERT JUMPDEST POP RETURNDATASIZE PUSH2 0xB0A JUMP JUMPDEST DUP6 MLOAD RETURNDATASIZE DUP14 DUP3 RETURNDATACOPY RETURNDATASIZE SWAP1 REVERT JUMPDEST SWAP4 DUP5 SWAP2 SWAP8 POP DUP1 SWAP3 POP RETURNDATASIZE DUP4 GT PUSH2 0xB6A JUMPI JUMPDEST PUSH2 0xB53 DUP2 DUP4 PUSH2 0xF65 JUMP JUMPDEST DUP2 ADD SUB SLT PUSH2 0xB66 JUMPI DUP8 DUP11 SWAP3 MLOAD SWAP6 CODESIZE PUSH2 0x8FF JUMP JUMPDEST DUP13 DUP1 REVERT JUMPDEST POP RETURNDATASIZE PUSH2 0xB49 JUMP JUMPDEST DUP9 MLOAD SWAP1 RETURNDATASIZE SWAP1 DUP3 RETURNDATACOPY RETURNDATASIZE SWAP1 REVERT JUMPDEST SWAP1 SWAP3 POP DUP9 DUP2 DUP2 RETURNDATASIZE DUP4 GT PUSH2 0xBAA JUMPI JUMPDEST PUSH2 0xB94 DUP2 DUP4 PUSH2 0xF65 JUMP JUMPDEST DUP2 ADD SUB SLT PUSH2 0xBA6 JUMPI MLOAD SWAP2 PUSH2 0x8B6 PUSH2 0x8AC JUMP JUMPDEST DUP12 DUP1 REVERT JUMPDEST POP RETURNDATASIZE PUSH2 0xB8A JUMP JUMPDEST DUP7 MLOAD RETURNDATASIZE DUP15 DUP3 RETURNDATACOPY RETURNDATASIZE SWAP1 REVERT JUMPDEST SWAP1 SWAP2 POP DUP9 DUP2 DUP2 RETURNDATASIZE DUP4 GT PUSH2 0xBE3 JUMPI JUMPDEST PUSH2 0xBD3 DUP2 DUP4 PUSH2 0xF65 JUMP JUMPDEST DUP2 ADD SUB SLT PUSH2 0xBA6 JUMPI MLOAD SWAP1 CODESIZE PUSH2 0x88C JUMP JUMPDEST POP RETURNDATASIZE PUSH2 0xBC9 JUMP JUMPDEST DUP2 RETURNDATASIZE DUP4 GT PUSH2 0xC10 JUMPI JUMPDEST PUSH2 0xBFD DUP2 DUP4 PUSH2 0xF65 JUMP JUMPDEST DUP2 ADD SUB SLT PUSH2 0xC0C JUMPI DUP7 CODESIZE PUSH2 0x83E JUMP JUMPDEST DUP10 DUP1 REVERT JUMPDEST POP RETURNDATASIZE PUSH2 0xBF3 JUMP JUMPDEST SWAP1 POP DUP9 DUP2 DUP2 RETURNDATASIZE DUP4 GT PUSH2 0xC3D JUMPI JUMPDEST PUSH2 0xC2E DUP2 DUP4 PUSH2 0xF65 JUMP JUMPDEST DUP2 ADD SUB SLT PUSH2 0xBA6 JUMPI MLOAD CODESIZE PUSH2 0x81F JUMP JUMPDEST POP RETURNDATASIZE PUSH2 0xC24 JUMP JUMPDEST DUP2 RETURNDATASIZE DUP4 GT PUSH2 0xC66 JUMPI JUMPDEST PUSH2 0xC57 DUP2 DUP4 PUSH2 0xF65 JUMP JUMPDEST DUP2 ADD SUB SLT PUSH2 0xBA6 JUMPI DUP9 CODESIZE PUSH2 0x7FE JUMP JUMPDEST POP RETURNDATASIZE PUSH2 0xC4D JUMP JUMPDEST DUP8 MLOAD RETURNDATASIZE DUP16 DUP3 RETURNDATACOPY RETURNDATASIZE SWAP1 REVERT JUMPDEST SWAP1 SWAP2 POP DUP9 DUP2 DUP2 RETURNDATASIZE DUP4 GT PUSH2 0xC9F JUMPI JUMPDEST PUSH2 0xC8F DUP2 DUP4 PUSH2 0xF65 JUMP JUMPDEST DUP2 ADD SUB SLT PUSH2 0xBA6 JUMPI MLOAD SWAP1 CODESIZE PUSH2 0x7BD JUMP JUMPDEST POP RETURNDATASIZE PUSH2 0xC85 JUMP JUMPDEST DUP6 DUP5 MLOAD PUSH32 0x1B971D6B00000000000000000000000000000000000000000000000000000000 DUP2 MSTORE REVERT JUMPDEST DUP5 DUP4 MLOAD PUSH32 0x7BF33C8800000000000000000000000000000000000000000000000000000000 DUP2 MSTORE REVERT JUMPDEST DUP5 DUP11 PUSH1 0x21 DUP9 PUSH4 0x4E487B71 PUSH1 0xE0 SHL DUP4 MSTORE MSTORE REVERT JUMPDEST DUP5 DUP4 MLOAD PUSH4 0x8E216073 PUSH1 0xE0 SHL DUP2 MSTORE REVERT JUMPDEST DUP7 MLOAD SWAP2 DUP3 MSTORE DUP9 DUP3 ADD MSTORE SWAP1 SWAP2 POP DUP8 DUP2 DUP8 DUP2 DUP8 GAS STATICCALL SWAP1 DUP2 ISZERO PUSH2 0xB2F JUMPI DUP12 SWAP2 PUSH2 0xD45 JUMPI JUMPDEST POP AND CALLER EQ ISZERO CODESIZE DUP1 DUP1 PUSH2 0x730 JUMP JUMPDEST PUSH2 0xD5C SWAP2 POP DUP9 RETURNDATASIZE DUP11 GT PUSH2 0x4C9 JUMPI PUSH2 0x4BB DUP2 DUP4 PUSH2 0xF65 JUMP JUMPDEST CODESIZE PUSH2 0xD38 JUMP JUMPDEST SWAP3 POP DUP6 MLOAD DUP2 DUP2 MSTORE DUP4 DUP10 DUP3 ADD MSTORE DUP10 DUP2 DUP10 DUP2 DUP10 GAS STATICCALL SWAP1 DUP14 DUP3 ISZERO PUSH2 0xB71 JUMPI SWAP1 DUP5 SWAP3 PUSH2 0xD90 JUMPI JUMPDEST POP AND CALLER EQ ISZERO SWAP3 PUSH2 0x72A JUMP JUMPDEST PUSH2 0xDA7 SWAP2 POP DUP12 RETURNDATASIZE DUP14 GT PUSH2 0x4C9 JUMPI PUSH2 0x4BB DUP2 DUP4 PUSH2 0xF65 JUMP JUMPDEST CODESIZE PUSH2 0xD85 JUMP JUMPDEST PUSH2 0xDC4 SWAP2 POP DUP12 RETURNDATASIZE DUP14 GT PUSH2 0x4C9 JUMPI PUSH2 0x4BB DUP2 DUP4 PUSH2 0xF65 JUMP JUMPDEST CODESIZE PUSH2 0x71E JUMP JUMPDEST SWAP2 SWAP4 SWAP1 POP CALLVALUE PUSH2 0x39D JUMPI PUSH1 0x20 SWAP2 DUP3 PUSH1 0x3 NOT CALLDATASIZE ADD SLT PUSH2 0x1B1 JUMPI DUP2 PUSH2 0xE93 SWAP3 PUSH1 0x80 DUP4 PUSH2 0xDF3 DUP10 SWAP6 PUSH2 0xF16 JUMP JUMPDEST DUP3 DUP2 MSTORE DUP3 DUP8 DUP3 ADD MSTORE DUP3 DUP6 DUP3 ADD MSTORE PUSH1 0x60 DUP1 DUP3 ADD MSTORE ADD MSTORE DUP5 CALLDATALOAD DUP2 MSTORE PUSH1 0x6 DUP5 MSTORE KECCAK256 DUP5 MLOAD SWAP4 PUSH2 0xE1D DUP6 PUSH2 0xF16 JUMP JUMPDEST PUSH1 0x1 PUSH1 0x1 PUSH1 0xA0 SHL SUB SWAP6 DUP7 DUP4 SLOAD AND DUP7 MSTORE PUSH1 0x1 DUP4 ADD SLOAD DUP6 DUP8 ADD SWAP1 DUP2 MSTORE PUSH1 0xFF PUSH1 0x2 DUP6 ADD SLOAD AND SWAP3 DUP3 DUP9 ADD SWAP4 ISZERO ISZERO DUP5 MSTORE PUSH2 0xE54 PUSH1 0x3 DUP7 ADD PUSH2 0xFAB JUMP JUMPDEST SWAP5 PUSH1 0x60 DUP10 ADD SWAP6 DUP7 MSTORE ADD SLOAD SWAP6 PUSH1 0x80 DUP9 ADD SWAP7 DUP8 MSTORE DUP3 MLOAD SWAP9 DUP10 SWAP9 DUP3 DUP11 MSTORE MLOAD AND SWAP1 DUP9 ADD MSTORE MLOAD SWAP1 DUP7 ADD MSTORE MLOAD ISZERO ISZERO PUSH1 0x60 DUP6 ADD MSTORE MLOAD PUSH1 0xA0 PUSH1 0x80 DUP6 ADD MSTORE PUSH1 0xC0 DUP5 ADD SWAP1 PUSH2 0xE9E JUMP JUMPDEST SWAP1 MLOAD PUSH1 0xA0 DUP4 ADD MSTORE SUB SWAP1 RETURN JUMPDEST SWAP1 DUP2 MLOAD DUP1 DUP3 MSTORE PUSH1 0x20 DUP1 DUP1 SWAP4 ADD SWAP4 ADD SWAP2 PUSH1 0x0 JUMPDEST DUP3 DUP2 LT PUSH2 0xEBE JUMPI POP POP POP POP SWAP1 JUMP JUMPDEST DUP4 MLOAD DUP6 MSTORE SWAP4 DUP2 ADD SWAP4 SWAP3 DUP2 ADD SWAP3 PUSH1 0x1 ADD PUSH2 0xEB0 JUMP JUMPDEST PUSH1 0x1 PUSH1 0x1 PUSH1 0xA0 SHL SUB PUSH1 0x0 SLOAD AND CALLER SUB PUSH2 0xEE6 JUMPI JUMP JUMPDEST PUSH1 0x24 PUSH1 0x40 MLOAD PUSH32 0x118CDAA700000000000000000000000000000000000000000000000000000000 DUP2 MSTORE CALLER PUSH1 0x4 DUP3 ADD MSTORE REVERT JUMPDEST PUSH1 0xA0 DUP2 ADD SWAP1 DUP2 LT PUSH8 0xFFFFFFFFFFFFFFFF DUP3 GT OR PUSH2 0xF32 JUMPI PUSH1 0x40 MSTORE JUMP JUMPDEST PUSH4 0x4E487B71 PUSH1 0xE0 SHL PUSH1 0x0 MSTORE PUSH1 0x41 PUSH1 0x4 MSTORE PUSH1 0x24 PUSH1 0x0 REVERT JUMPDEST PUSH2 0x100 DUP2 ADD SWAP1 DUP2 LT PUSH8 0xFFFFFFFFFFFFFFFF DUP3 GT OR PUSH2 0xF32 JUMPI PUSH1 0x40 MSTORE JUMP JUMPDEST SWAP1 PUSH1 0x1F DUP1 NOT SWAP2 ADD AND DUP2 ADD SWAP1 DUP2 LT PUSH8 0xFFFFFFFFFFFFFFFF DUP3 GT OR PUSH2 0xF32 JUMPI PUSH1 0x40 MSTORE JUMP JUMPDEST SWAP1 DUP2 PUSH1 0x20 SWAP2 SUB SLT PUSH2 0xFA6 JUMPI MLOAD PUSH1 0x1 PUSH1 0x1 PUSH1 0xA0 SHL SUB DUP2 AND DUP2 SUB PUSH2 0xFA6 JUMPI SWAP1 JUMP JUMPDEST PUSH1 0x0 DUP1 REVERT JUMPDEST SWAP1 PUSH1 0x40 MLOAD SWAP2 DUP3 DUP2 SLOAD SWAP2 DUP3 DUP3 MSTORE PUSH1 0x20 SWAP3 DUP4 DUP4 ADD SWAP2 PUSH1 0x0 MSTORE DUP4 PUSH1 0x0 KECCAK256 SWAP4 PUSH1 0x0 SWAP1 JUMPDEST DUP3 DUP3 LT PUSH2 0xFE2 JUMPI POP POP POP PUSH2 0xFE0 SWAP3 POP SUB DUP4 PUSH2 0xF65 JUMP JUMPDEST JUMP JUMPDEST DUP6 SLOAD DUP5 MSTORE PUSH1 0x1 SWAP6 DUP7 ADD SWAP6 DUP9 SWAP6 POP SWAP4 DUP2 ADD SWAP4 SWAP1 SWAP2 ADD SWAP1 PUSH2 0xFCA JUMP JUMPDEST DUP1 MLOAD ISZERO PUSH2 0x1009 JUMPI PUSH1 0x20 ADD SWAP1 JUMP JUMPDEST PUSH4 0x4E487B71 PUSH1 0xE0 SHL PUSH1 0x0 MSTORE PUSH1 0x32 PUSH1 0x4 MSTORE PUSH1 0x24 PUSH1 0x0 REVERT JUMPDEST SWAP2 SWAP1 DUP3 SUB SWAP2 DUP3 GT PUSH2 0x102C JUMPI JUMP JUMPDEST PUSH4 0x4E487B71 PUSH1 0xE0 SHL PUSH1 0x0 MSTORE PUSH1 0x11 PUSH1 0x4 MSTORE PUSH1 0x24 PUSH1 0x0 REVERT INVALID LOG2 PUSH5 0x6970667358 0x22 SLT KECCAK256 0xFC DELEGATECALL 0xD8 0xE5 EQ STOP 0xDB 0xA6 0x1E PREVRANDAO NOT SLOAD POP PUSH17 0x89520E0A3FACA3E4A66C8D6F9A2CCBEFBE 0xC3 PUSH5 0x736F6C6343 STOP ADDMOD EQ STOP CALLER "},"methodIdentifiers":{"REWARD_TOKEN()":"99248ea7","battle(uint256,uint256,uint256,uint256,uint256)":"5048249c","createBattlefield()":"d7e41b9f","enterBattle(uint256)":"ac8dd23f","generateEnemyCards(uint256,uint256,uint256,uint256)":"b7044c39","getBattleField(uint256)":"b8755343","getPalyer(uint256)":"1f8643c6","owner()":"8da5cb5b","renounceOwnership()":"715018a6","transferOwnership(address)":"f2fde38b"}}}}}